{
  "address": "0x43c04BF00bc19d91561e2146597a7Fb23642fa25",
  "abi": [
    {
      "inputs": [],
      "name": "AccountAlreadyAuthorized",
      "type": "error"
    },
    {
      "inputs": [],
      "name": "AccountDoesNotExist",
      "type": "error"
    },
    {
      "inputs": [],
      "name": "AtBlockNumberCannotBeZero",
      "type": "error"
    },
    {
      "inputs": [],
      "name": "AuthorizedAccountCannotBeZeroAddress",
      "type": "error"
    },
    {
      "inputs": [],
      "name": "MainAccountCannotBeZeroAddress",
      "type": "error"
    },
    {
      "anonymous": false,
      "inputs": [
        {
          "indexed": false,
          "internalType": "uint8",
          "name": "version",
          "type": "uint8"
        }
      ],
      "name": "Initialized",
      "type": "event"
    },
    {
      "anonymous": false,
      "inputs": [
        {
          "indexed": true,
          "internalType": "address",
          "name": "previousOwner",
          "type": "address"
        },
        {
          "indexed": true,
          "internalType": "address",
          "name": "newOwner",
          "type": "address"
        }
      ],
      "name": "OwnershipTransferStarted",
      "type": "event"
    },
    {
      "anonymous": false,
      "inputs": [
        {
          "indexed": true,
          "internalType": "address",
          "name": "previousOwner",
          "type": "address"
        },
        {
          "indexed": true,
          "internalType": "address",
          "name": "newOwner",
          "type": "address"
        }
      ],
      "name": "OwnershipTransferred",
      "type": "event"
    },
    {
      "anonymous": false,
      "inputs": [
        {
          "indexed": true,
          "internalType": "address",
          "name": "main",
          "type": "address"
        },
        {
          "indexed": true,
          "internalType": "address",
          "name": "authorized",
          "type": "address"
        },
        {
          "indexed": false,
          "internalType": "enum IAuthorizedAccounts.Permission[]",
          "name": "permissions",
          "type": "uint8[]"
        }
      ],
      "name": "PermissionsAdded",
      "type": "event"
    },
    {
      "anonymous": false,
      "inputs": [
        {
          "indexed": true,
          "internalType": "address",
          "name": "main",
          "type": "address"
        },
        {
          "indexed": true,
          "internalType": "address",
          "name": "authorized",
          "type": "address"
        },
        {
          "indexed": false,
          "internalType": "enum IAuthorizedAccounts.Permission[]",
          "name": "permissions",
          "type": "uint8[]"
        }
      ],
      "name": "PermissionsRemoved",
      "type": "event"
    },
    {
      "inputs": [],
      "name": "acceptOwnership",
      "outputs": [],
      "stateMutability": "nonpayable",
      "type": "function"
    },
    {
      "inputs": [
        {
          "internalType": "address",
          "name": "authorized",
          "type": "address"
        },
        {
          "internalType": "enum IAuthorizedAccounts.Permission[]",
          "name": "permissions",
          "type": "uint8[]"
        }
      ],
      "name": "addPermissions",
      "outputs": [],
      "stateMutability": "nonpayable",
      "type": "function"
    },
    {
      "inputs": [
        {
          "internalType": "address",
          "name": "authorized",
          "type": "address"
        },
        {
          "internalType": "enum IAuthorizedAccounts.Permission[]",
          "name": "permissions",
          "type": "uint8[]"
        }
      ],
      "name": "authorizeAccount",
      "outputs": [],
      "stateMutability": "nonpayable",
      "type": "function"
    },
    {
      "inputs": [
        {
          "internalType": "address",
          "name": "",
          "type": "address"
        },
        {
          "internalType": "uint256",
          "name": "",
          "type": "uint256"
        }
      ],
      "name": "authorizedAccounts",
      "outputs": [
        {
          "internalType": "address",
          "name": "account",
          "type": "address"
        },
        {
          "internalType": "uint256",
          "name": "authorizedAt",
          "type": "uint256"
        }
      ],
      "stateMutability": "view",
      "type": "function"
    },
    {
      "inputs": [
        {
          "internalType": "address",
          "name": "main",
          "type": "address"
        }
      ],
      "name": "getAuthorizedAccounts",
      "outputs": [
        {
          "components": [
            {
              "internalType": "address",
              "name": "account",
              "type": "address"
            },
            {
              "internalType": "uint256",
              "name": "authorizedAt",
              "type": "uint256"
            },
            {
              "components": [
                {
                  "internalType": "enum IAuthorizedAccounts.Permission",
                  "name": "permission",
                  "type": "uint8"
                },
                {
                  "internalType": "uint256",
                  "name": "authorizedAt",
                  "type": "uint256"
                },
                {
                  "internalType": "uint256",
                  "name": "unauthorizedAt",
                  "type": "uint256"
                }
              ],
              "internalType": "struct IAuthorizedAccounts.AuthorizedPermission[]",
              "name": "permissions",
              "type": "tuple[]"
            }
          ],
          "internalType": "struct IAuthorizedAccounts.AuthorizedAccount[]",
          "name": "",
          "type": "tuple[]"
        }
      ],
      "stateMutability": "view",
      "type": "function"
    },
    {
      "inputs": [],
      "name": "initialize",
      "outputs": [],
      "stateMutability": "nonpayable",
      "type": "function"
    },
    {
      "inputs": [],
      "name": "owner",
      "outputs": [
        {
          "internalType": "address",
          "name": "",
          "type": "address"
        }
      ],
      "stateMutability": "view",
      "type": "function"
    },
    {
      "inputs": [],
      "name": "pendingOwner",
      "outputs": [
        {
          "internalType": "address",
          "name": "",
          "type": "address"
        }
      ],
      "stateMutability": "view",
      "type": "function"
    },
    {
      "inputs": [
        {
          "internalType": "address",
          "name": "authorized",
          "type": "address"
        },
        {
          "internalType": "enum IAuthorizedAccounts.Permission[]",
          "name": "permissions",
          "type": "uint8[]"
        }
      ],
      "name": "removePermissions",
      "outputs": [],
      "stateMutability": "nonpayable",
      "type": "function"
    },
    {
      "inputs": [],
      "name": "renounceOwnership",
      "outputs": [],
      "stateMutability": "nonpayable",
      "type": "function"
    },
    {
      "inputs": [
        {
          "internalType": "bytes4",
          "name": "interfaceId",
          "type": "bytes4"
        }
      ],
      "name": "supportsInterface",
      "outputs": [
        {
          "internalType": "bool",
          "name": "",
          "type": "bool"
        }
      ],
      "stateMutability": "view",
      "type": "function"
    },
    {
      "inputs": [
        {
          "internalType": "address",
          "name": "newOwner",
          "type": "address"
        }
      ],
      "name": "transferOwnership",
      "outputs": [],
      "stateMutability": "nonpayable",
      "type": "function"
    },
    {
      "inputs": [
        {
          "internalType": "address",
          "name": "authorized",
          "type": "address"
        }
      ],
      "name": "unauthorizeAccount",
      "outputs": [],
      "stateMutability": "nonpayable",
      "type": "function"
    },
    {
      "inputs": [
        {
          "internalType": "address",
          "name": "main",
          "type": "address"
        },
        {
          "internalType": "address",
          "name": "authorized",
          "type": "address"
        },
        {
          "internalType": "enum IAuthorizedAccounts.Permission",
          "name": "permission",
          "type": "uint8"
        },
        {
          "internalType": "uint256",
          "name": "atBlock",
          "type": "uint256"
        }
      ],
      "name": "validatePermission",
      "outputs": [
        {
          "internalType": "bool",
          "name": "",
          "type": "bool"
        }
      ],
      "stateMutability": "view",
      "type": "function"
    }
  ],
  "transactionHash": "0x50609135b191d56020d3fb63afd2c9930fd46c28290720b4daeb8b7ba2aaf46d",
  "args": [],
  "numDeployments": 1,
  "solcInputHash": "028a55b8eaa1999d8f382c93dbafe26d",
  "bytecode": "0x608060405234801561001057600080fd5b5061155f806100206000396000f3fe608060405234801561001057600080fd5b50600436106100ea5760003560e01c80638129fc1c1161008c578063b0b2a57511610066578063b0b2a575146101f2578063c346893b14610205578063e30c397814610218578063f2fde38b1461022957600080fd5b80638129fc1c146101b25780638da5cb5b146101ba57806395c4300b146101df57600080fd5b80636f3201c9116100c85780636f3201c91461016f578063715018a6146101825780637408d09c1461018a57806379ba5097146101aa57600080fd5b806301ffc9a7146100ef578063229c86d4146101285780633a8565151461013d575b600080fd5b6101136100fd3660046111b5565b6001600160e01b0319166337e592f160e21b1490565b60405190151581526020015b60405180910390f35b61013b610136366004611202565b61023c565b005b61015061014b366004611288565b610346565b604080516001600160a01b03909316835260208301919091520161011f565b61013b61017d366004611202565b61038c565b61013b610475565b61019d6101983660046112b2565b610489565b60405161011f9190611305565b61013b6105d1565b61013b610650565b6033546001600160a01b03165b6040516001600160a01b03909116815260200161011f565b61013b6101ed366004611202565b610760565b61013b6102003660046112b2565b61090d565b6101136102133660046113d1565b6109f6565b6065546001600160a01b03166101c7565b61013b6102373660046112b2565b610c75565b6001600160a01b0383166102635760405163055a500d60e51b815260040160405180910390fd5b336000908152609760205260408120905b815481101561032c57846001600160a01b031682828154811061029957610299611422565b60009182526020909120600390910201546001600160a01b03160361031c57610315858383815481106102ce576102ce611422565b9060005260206000209060030201868680806020026020016040519081016040528093929190818152602001838360200280828437600092019190915250610ce692505050565b5050505050565b6103258161144e565b9050610274565b5060405163e76ea87f60e01b815260040160405180910390fd5b6097602052816000526040600020818154811061036257600080fd5b6000918252602090912060039091020180546001909101546001600160a01b039091169250905082565b6001600160a01b0383166103b35760405163055a500d60e51b815260040160405180910390fd5b336000908152609760205260408120905b815481101561032c57846001600160a01b03168282815481106103e9576103e9611422565b60009182526020909120600390910201546001600160a01b031603610465576103158583838154811061041e5761041e611422565b9060005260206000209060030201868680806020026020016040519081016040528093929190818152602001838360200280828437600092019190915250610eb092505050565b61046e8161144e565b90506103c4565b61047d611025565b610487600061107f565b565b60606001600160a01b0382166104b2576040516359d55b9160e11b815260040160405180910390fd5b6001600160a01b038216600090815260976020908152604080832080548251818502810185019093528083529193909284015b828210156105c65760008481526020808220604080516060810182526003870290920180546001600160a01b0316835260018101548385015260028101805483518187028101870185528181529496929593870194939192909184015b828210156105af576000848152602090206040805160608101909152600384029091018054829060ff16801561057a5761057a6112cd565b8015610588576105886112cd565b81526020016001820154815260200160028201548152505081526020019060010190610542565b5050505081525050815260200190600101906104e5565b505050509050919050565b60655433906001600160a01b031681146106445760405162461bcd60e51b815260206004820152602960248201527f4f776e61626c6532537465703a2063616c6c6572206973206e6f7420746865206044820152683732bb9037bbb732b960b91b60648201526084015b60405180910390fd5b61064d8161107f565b50565b600054610100900460ff16158080156106705750600054600160ff909116105b8061068a5750303b15801561068a575060005460ff166001145b6106ed5760405162461bcd60e51b815260206004820152602e60248201527f496e697469616c697a61626c653a20636f6e747261637420697320616c72656160448201526d191e481a5b9a5d1a585b1a5e995960921b606482015260840161063b565b6000805460ff191660011790558015610710576000805461ff0019166101001790555b610718611098565b801561064d576000805461ff0019169055604051600181527f7f26b83ff96e1f2b6a682f133852f6798a09c465da95921460cefb38474024989060200160405180910390a150565b6001600160a01b0383166107875760405163055a500d60e51b815260040160405180910390fd5b336000908152609760205260408120905b815481101561086e57846001600160a01b03168282815481106107bd576107bd611422565b60009182526020909120600390910201546001600160a01b03160361085e578181815481106107ee576107ee611422565b9060005260206000209060030201600101546000146108205760405163174191c160e11b815260040160405180910390fd5b4382828154811061083357610833611422565b906000526020600020906003020160010181905550610315858383815481106102ce576102ce611422565b6108678161144e565b9050610798565b5080546001908101808355600083815291839161088b9190611467565b8154811061089b5761089b611422565b60009182526020918290206003919091020180546001600160a01b0319166001600160a01b0388161781554360018201556040805186840280820185019092528681529193506103159288928592909189918991829190850190849080828437600092019190915250610ce692505050565b6001600160a01b0381166109345760405163055a500d60e51b815260040160405180910390fd5b336000908152609760205260408120905b815481101561032c57826001600160a01b031682828154811061096a5761096a611422565b60009182526020909120600390910201546001600160a01b0316036109e65781818154811061099b5761099b611422565b9060005260206000209060030201600101600090556109e1838383815481106109c6576109c6611422565b90600052602060002090600302016109dc6110c7565b610eb0565b505050565b6109ef8161144e565b9050610945565b60006001600160a01b038516610a1f576040516359d55b9160e11b815260040160405180910390fd5b6001600160a01b038416610a465760405163055a500d60e51b815260040160405180910390fd5b81600003610a675760405163a5d0c24760e01b815260040160405180910390fd5b6001600160a01b0385166000908152609760205260408120905b8154811015610c6657856001600160a01b0316828281548110610aa657610aa6611422565b60009182526020909120600390910201546001600160a01b031603610c565760005b828281548110610ada57610ada611422565b906000526020600020906003020160020180549050811015610c5457858015610b0557610b056112cd565b838381548110610b1757610b17611422565b90600052602060002090600302016002018281548110610b3957610b39611422565b600091825260209091206003909102015460ff168015610b5b57610b5b6112cd565b03610c44576000838381548110610b7457610b74611422565b90600052602060002090600302016002018281548110610b9657610b96611422565b90600052602060002090600302016001015490506000848481548110610bbe57610bbe611422565b90600052602060002090600302016002018381548110610be057610be0611422565b906000526020600020906003020160020154905060008083118015610c0457508183105b90508015610c2857878311158015610c1b57508188105b9650505050505050610c6d565b600083118015610c1b5750878311159650505050505050610c6d565b610c4d8161144e565b9050610ac8565b505b610c5f8161144e565b9050610a81565b5060009150505b949350505050565b610c7d611025565b606580546001600160a01b0383166001600160a01b03199091168117909155610cae6033546001600160a01b031690565b6001600160a01b03167f38d16b8cac22d99fc7c124b9cd0de2d3fa1faef420bfe791d8c362d765e2270060405160405180910390a350565b60005b8151811015610e5f576000805b6002850154811015610da8576000856002018281548110610d1957610d19611422565b60009182526020909120600390910201805490915060ff168015610d3f57610d3f6112cd565b858581518110610d5157610d51611422565b60200260200101516000811115610d6a57610d6a6112cd565b03610d975743600182810182905560028301549094501115610d9157600181015460028201555b50610da8565b50610da18161144e565b9050610cf6565b5080610e4e57836002016040518060600160405280858581518110610dcf57610dcf611422565b60200260200101516000811115610de857610de86112cd565b8152436020808301919091526000604090920182905283546001818101865594835291208251600390920201805492939092839160ff1990911690838015610e3257610e326112cd565b0217905550602082015181600101556040820151816002015550505b50610e588161144e565b9050610ce9565b50826001600160a01b0316336001600160a01b03167f1a8c453bd4f4c60416befb32fbbae6c3feb80694214263b26e60888e4bbb58c883604051610ea39190611480565b60405180910390a3505050565b60005b8151811015610fe15760005b6002840154811015610fd057836002018181548110610ee057610ee0611422565b600091825260209091206003909102015460ff168015610f0257610f026112cd565b838381518110610f1457610f14611422565b60200260200101516000811115610f2d57610f2d6112cd565b03610fc057836002018181548110610f4757610f47611422565b906000526020600020906003020160020154846002018281548110610f6e57610f6e611422565b90600052602060002090600302016001015410610fbb57610f904360016114cb565b846002018281548110610fa557610fa5611422565b9060005260206000209060030201600201819055505b610fd0565b610fc98161144e565b9050610ebf565b50610fda8161144e565b9050610eb3565b50826001600160a01b0316336001600160a01b03167f91a6ec4bca1e3b215c3597813fbbd8a0b7348750ffc7e57e0891754c8338f69083604051610ea39190611480565b6033546001600160a01b031633146104875760405162461bcd60e51b815260206004820181905260248201527f4f776e61626c653a2063616c6c6572206973206e6f7420746865206f776e6572604482015260640161063b565b606580546001600160a01b031916905561064d81611133565b600054610100900460ff166110bf5760405162461bcd60e51b815260040161063b906114de565b610487611185565b604080516001808252818301909252606091600091906020808301908036833701905050905060008160008151811061110257611102611422565b6020026020010190600081111561111b5761111b6112cd565b9081801561112b5761112b6112cd565b905250919050565b603380546001600160a01b038381166001600160a01b0319831681179093556040519116919082907f8be0079c531659141344cd1fd0a4f28419497f9722a3daafe3b4186f6b6457e090600090a35050565b600054610100900460ff166111ac5760405162461bcd60e51b815260040161063b906114de565b6104873361107f565b6000602082840312156111c757600080fd5b81356001600160e01b0319811681146111df57600080fd5b9392505050565b80356001600160a01b03811681146111fd57600080fd5b919050565b60008060006040848603121561121757600080fd5b611220846111e6565b9250602084013567ffffffffffffffff8082111561123d57600080fd5b818601915086601f83011261125157600080fd5b81358181111561126057600080fd5b8760208260051b850101111561127557600080fd5b6020830194508093505050509250925092565b6000806040838503121561129b57600080fd5b6112a4836111e6565b946020939093013593505050565b6000602082840312156112c457600080fd5b6111df826111e6565b634e487b7160e01b600052602160045260246000fd5b6001811061130157634e487b7160e01b600052602160045260246000fd5b9052565b60006020808301818452808551808352604092508286019150828160051b8701018488016000805b848110156113c257898403603f19018652825180516001600160a01b03168552888101518986015287015160608886018190528151818701819052918a0191849060808801905b808310156113ac5784516113898382516112e3565b808e0151838f01528c01518c830152938c01936001929092019190830190611374565b50988b019896505050928801925060010161132d565b50919998505050505050505050565b600080600080608085870312156113e757600080fd5b6113f0856111e6565b93506113fe602086016111e6565b925060408501356001811061141257600080fd5b9396929550929360600135925050565b634e487b7160e01b600052603260045260246000fd5b634e487b7160e01b600052601160045260246000fd5b60006001820161146057611460611438565b5060010190565b8181038181111561147a5761147a611438565b92915050565b6020808252825182820181905260009190848201906040850190845b818110156114bf576114af8385516112e3565b928401929184019160010161149c565b50909695505050505050565b8082018082111561147a5761147a611438565b6020808252602b908201527f496e697469616c697a61626c653a20636f6e7472616374206973206e6f74206960408201526a6e697469616c697a696e6760a81b60608201526080019056fea26469706673582212208bf2d5355edd479e2abfd98be000006952063cf35e87b64b985488c8e98dd84764736f6c63430008120033",
  "devdoc": {
    "events": {
      "Initialized(uint8)": {
        "details": "Triggered when the contract has been initialized or reinitialized."
      }
    },
    "kind": "dev",
    "methods": {
      "acceptOwnership()": {
        "details": "The new owner accepts the ownership transfer."
      },
      "addPermissions(address,uint8[])": {
        "params": {
          "authorized": "The authorized account address",
          "permissions": "The new permissions will be added to the authorized account"
        }
      },
      "authorizeAccount(address,uint8[])": {
        "params": {
          "authorized": "The address that the main account wants to authorize",
          "permissions": "The list of permissions that the authorized account can perform within the Sylo network."
        }
      },
      "getAuthorizedAccounts(address)": {
        "params": {
          "main": "The address of main account"
        },
        "returns": {
          "_0": "An array of authorized accounts"
        }
      },
      "owner()": {
        "details": "Returns the address of the current owner."
      },
      "pendingOwner()": {
        "details": "Returns the address of the pending owner."
      },
      "removePermissions(address,uint8[])": {
        "params": {
          "authorized": "The address of authorized account",
          "permissions": "The list of permissions will be removed"
        }
      },
      "renounceOwnership()": {
        "details": "Leaves the contract without owner. It will not be possible to call `onlyOwner` functions. Can only be called by the current owner. NOTE: Renouncing ownership will leave the contract without an owner, thereby disabling any functionality that is only available to the owner."
      },
      "transferOwnership(address)": {
        "details": "Starts the ownership transfer of the contract to a new account. Replaces the pending transfer if there is one. Can only be called by the current owner."
      },
      "unauthorizeAccount(address)": {
        "params": {
          "authorized": "The address of the authorized account"
        }
      },
      "validatePermission(address,address,uint8,uint256)": {
        "params": {
          "atBlock": "The block number to check if the permission is valid between the permission's authorizedAt and unauthorizedAt period. It is added later to prevent the timing attack. E.g. If the main account authorizes the PersonalSign permission at block 1, creates a ticket at block 2, then unauthorizes the permission at block 3, the ticket will be invalid and cannot be redeemed. To avoid this, the `atBlock` param is needed to check if the permission is authorized between its authorizedAt and unauthorizedAt duration.",
          "authorized": "The address of authorized account",
          "main": "The address of main account",
          "permission": "The permission needs to be verified with the authorized account"
        },
        "returns": {
          "_0": "boolean value"
        }
      }
    },
    "version": 1
  },
  "userdoc": {
    "kind": "user",
    "methods": {
      "addPermissions(address,uint8[])": {
        "notice": "Adds new permissions to a specific authorized account. - Adding permissions that don't exist in the Permission enum will return with panic code 0x21 (convert a value that is too big or negative into an enum type). - Adding duplicate permissions will update the permissions' authorizedAt value. - Adding permissions that were previously unauthorized will update the authorizedAt and unauthorizedAt values (refer to the comment in IAuthorizedAccount -> AuthorizedPermission struct). This will revert if the account does not exist."
      },
      "authorizeAccount(address,uint8[])": {
        "notice": "Adds new authorized accounts with certain permissions. This will revert if the account has already existed."
      },
      "authorizedAccounts(address,uint256)": {
        "notice": "Tracks authorized accounts for every main account"
      },
      "getAuthorizedAccounts(address)": {
        "notice": "Get all authorized accounts associated with a given account"
      },
      "removePermissions(address,uint8[])": {
        "notice": "Removes permissions of specific authorized account. - Removing permissions that don't exist in the Permission enum will return with panic code 0x21 (convert a value that is too big or negative into an enum type). - Removing duplicate/authorized permissions will update the permissions' unauthorizedAt value. This will revert if the account does not exist."
      },
      "supportsInterface(bytes4)": {
        "notice": "Returns true if the contract implements the interface defined by `interfaceId` from ERC165."
      },
      "unauthorizeAccount(address)": {
        "notice": "Removes all permissions of a specific authorized account associated with the msg.sender, and sets the account's authorizedAt to 0. Note: It does not remove the authorized account from the list. This will revert if the account does not exist."
      },
      "validatePermission(address,address,uint8,uint256)": {
        "notice": "Validates permission of an authorized account associated with the main account."
      }
    },
    "notice": "Manages authorized accounts with limited permissions on behalf of main account these authorized accounts are allowed to perform some certain actions in the Sylo network in order to reduce the works for main account",
    "version": 1
  },
  "storageLayout": {
    "storage": [
      {
        "astId": 244,
        "contract": "contracts/AuthorizedAccounts.sol:AuthorizedAccounts",
        "label": "_initialized",
        "offset": 0,
        "slot": "0",
        "type": "t_uint8"
      },
      {
        "astId": 247,
        "contract": "contracts/AuthorizedAccounts.sol:AuthorizedAccounts",
        "label": "_initializing",
        "offset": 1,
        "slot": "0",
        "type": "t_bool"
      },
      {
        "astId": 777,
        "contract": "contracts/AuthorizedAccounts.sol:AuthorizedAccounts",
        "label": "__gap",
        "offset": 0,
        "slot": "1",
        "type": "t_array(t_uint256)50_storage"
      },
      {
        "astId": 116,
        "contract": "contracts/AuthorizedAccounts.sol:AuthorizedAccounts",
        "label": "_owner",
        "offset": 0,
        "slot": "51",
        "type": "t_address"
      },
      {
        "astId": 236,
        "contract": "contracts/AuthorizedAccounts.sol:AuthorizedAccounts",
        "label": "__gap",
        "offset": 0,
        "slot": "52",
        "type": "t_array(t_uint256)49_storage"
      },
      {
        "astId": 25,
        "contract": "contracts/AuthorizedAccounts.sol:AuthorizedAccounts",
        "label": "_pendingOwner",
        "offset": 0,
        "slot": "101",
        "type": "t_address"
      },
      {
        "astId": 104,
        "contract": "contracts/AuthorizedAccounts.sol:AuthorizedAccounts",
        "label": "__gap",
        "offset": 0,
        "slot": "102",
        "type": "t_array(t_uint256)49_storage"
      },
      {
        "astId": 9298,
        "contract": "contracts/AuthorizedAccounts.sol:AuthorizedAccounts",
        "label": "authorizedAccounts",
        "offset": 0,
        "slot": "151",
        "type": "t_mapping(t_address,t_array(t_struct(AuthorizedAccount)11401_storage)dyn_storage)"
      }
    ],
    "types": {
      "t_address": {
        "encoding": "inplace",
        "label": "address",
        "numberOfBytes": "20"
      },
      "t_array(t_struct(AuthorizedAccount)11401_storage)dyn_storage": {
        "base": "t_struct(AuthorizedAccount)11401_storage",
        "encoding": "dynamic_array",
        "label": "struct IAuthorizedAccounts.AuthorizedAccount[]",
        "numberOfBytes": "32"
      },
      "t_array(t_struct(AuthorizedPermission)11392_storage)dyn_storage": {
        "base": "t_struct(AuthorizedPermission)11392_storage",
        "encoding": "dynamic_array",
        "label": "struct IAuthorizedAccounts.AuthorizedPermission[]",
        "numberOfBytes": "32"
      },
      "t_array(t_uint256)49_storage": {
        "base": "t_uint256",
        "encoding": "inplace",
        "label": "uint256[49]",
        "numberOfBytes": "1568"
      },
      "t_array(t_uint256)50_storage": {
        "base": "t_uint256",
        "encoding": "inplace",
        "label": "uint256[50]",
        "numberOfBytes": "1600"
      },
      "t_bool": {
        "encoding": "inplace",
        "label": "bool",
        "numberOfBytes": "1"
      },
      "t_enum(Permission)11384": {
        "encoding": "inplace",
        "label": "enum IAuthorizedAccounts.Permission",
        "numberOfBytes": "1"
      },
      "t_mapping(t_address,t_array(t_struct(AuthorizedAccount)11401_storage)dyn_storage)": {
        "encoding": "mapping",
        "key": "t_address",
        "label": "mapping(address => struct IAuthorizedAccounts.AuthorizedAccount[])",
        "numberOfBytes": "32",
        "value": "t_array(t_struct(AuthorizedAccount)11401_storage)dyn_storage"
      },
      "t_struct(AuthorizedAccount)11401_storage": {
        "encoding": "inplace",
        "label": "struct IAuthorizedAccounts.AuthorizedAccount",
        "members": [
          {
            "astId": 11394,
            "contract": "contracts/AuthorizedAccounts.sol:AuthorizedAccounts",
            "label": "account",
            "offset": 0,
            "slot": "0",
            "type": "t_address"
          },
          {
            "astId": 11396,
            "contract": "contracts/AuthorizedAccounts.sol:AuthorizedAccounts",
            "label": "authorizedAt",
            "offset": 0,
            "slot": "1",
            "type": "t_uint256"
          },
          {
            "astId": 11400,
            "contract": "contracts/AuthorizedAccounts.sol:AuthorizedAccounts",
            "label": "permissions",
            "offset": 0,
            "slot": "2",
            "type": "t_array(t_struct(AuthorizedPermission)11392_storage)dyn_storage"
          }
        ],
        "numberOfBytes": "96"
      },
      "t_struct(AuthorizedPermission)11392_storage": {
        "encoding": "inplace",
        "label": "struct IAuthorizedAccounts.AuthorizedPermission",
        "members": [
          {
            "astId": 11387,
            "contract": "contracts/AuthorizedAccounts.sol:AuthorizedAccounts",
            "label": "permission",
            "offset": 0,
            "slot": "0",
            "type": "t_enum(Permission)11384"
          },
          {
            "astId": 11389,
            "contract": "contracts/AuthorizedAccounts.sol:AuthorizedAccounts",
            "label": "authorizedAt",
            "offset": 0,
            "slot": "1",
            "type": "t_uint256"
          },
          {
            "astId": 11391,
            "contract": "contracts/AuthorizedAccounts.sol:AuthorizedAccounts",
            "label": "unauthorizedAt",
            "offset": 0,
            "slot": "2",
            "type": "t_uint256"
          }
        ],
        "numberOfBytes": "96"
      },
      "t_uint256": {
        "encoding": "inplace",
        "label": "uint256",
        "numberOfBytes": "32"
      },
      "t_uint8": {
        "encoding": "inplace",
        "label": "uint8",
        "numberOfBytes": "1"
      }
    }
  }
}