{
  "address": "0x6349940BA71F68304529aD1147e33F29c71E192E",
  "abi": [
    {
      "inputs": [],
      "name": "AmountCannotBeZero",
      "type": "error"
    },
    {
      "inputs": [],
      "name": "ContractNameCannotBeEmpty",
      "type": "error"
    },
    {
      "inputs": [],
      "name": "DoNotAllowZeroAddress",
      "type": "error"
    },
    {
      "inputs": [],
      "name": "InterfaceIdCannotBeZeroBytes",
      "type": "error"
    },
    {
      "inputs": [],
      "name": "InvalidFixedPointResult",
      "type": "error"
    },
    {
      "inputs": [],
      "name": "ManagerCannotBeZeroAddress",
      "type": "error"
    },
    {
      "inputs": [],
      "name": "NoRewardToClaim",
      "type": "error"
    },
    {
      "inputs": [],
      "name": "NoStakeToCreateRewardPool",
      "type": "error"
    },
    {
      "inputs": [],
      "name": "OnlyManagers",
      "type": "error"
    },
    {
      "inputs": [],
      "name": "RewardPoolAlreadyExist",
      "type": "error"
    },
    {
      "inputs": [],
      "name": "RewardPoolNotExist",
      "type": "error"
    },
    {
      "inputs": [],
      "name": "StakeeCannotBeZeroAddress",
      "type": "error"
    },
    {
      "inputs": [],
      "name": "StakerCannotBeZeroAddress",
      "type": "error"
    },
    {
      "inputs": [],
      "name": "StakerKeyCannotBeZeroBytes",
      "type": "error"
    },
    {
      "inputs": [
        {
          "internalType": "string",
          "name": "name",
          "type": "string"
        }
      ],
      "name": "TargetContractCannotBeZeroAddress",
      "type": "error"
    },
    {
      "inputs": [
        {
          "internalType": "string",
          "name": "name",
          "type": "string"
        },
        {
          "internalType": "bytes4",
          "name": "interfaceId",
          "type": "bytes4"
        }
      ],
      "name": "TargetNotSupportInterface",
      "type": "error"
    },
    {
      "inputs": [],
      "name": "TokenCannotBeZeroAddress",
      "type": "error"
    },
    {
      "anonymous": false,
      "inputs": [
        {
          "indexed": false,
          "internalType": "uint8",
          "name": "version",
          "type": "uint8"
        }
      ],
      "name": "Initialized",
      "type": "event"
    },
    {
      "anonymous": false,
      "inputs": [
        {
          "indexed": true,
          "internalType": "address",
          "name": "previousOwner",
          "type": "address"
        },
        {
          "indexed": true,
          "internalType": "address",
          "name": "newOwner",
          "type": "address"
        }
      ],
      "name": "OwnershipTransferStarted",
      "type": "event"
    },
    {
      "anonymous": false,
      "inputs": [
        {
          "indexed": true,
          "internalType": "address",
          "name": "previousOwner",
          "type": "address"
        },
        {
          "indexed": true,
          "internalType": "address",
          "name": "newOwner",
          "type": "address"
        }
      ],
      "name": "OwnershipTransferred",
      "type": "event"
    },
    {
      "inputs": [],
      "name": "_epochsManager",
      "outputs": [
        {
          "internalType": "contract EpochsManager",
          "name": "",
          "type": "address"
        }
      ],
      "stateMutability": "view",
      "type": "function"
    },
    {
      "inputs": [],
      "name": "_stakingManager",
      "outputs": [
        {
          "internalType": "contract StakingManager",
          "name": "",
          "type": "address"
        }
      ],
      "stateMutability": "view",
      "type": "function"
    },
    {
      "inputs": [],
      "name": "_token",
      "outputs": [
        {
          "internalType": "contract IERC20",
          "name": "",
          "type": "address"
        }
      ],
      "stateMutability": "view",
      "type": "function"
    },
    {
      "inputs": [],
      "name": "acceptOwnership",
      "outputs": [],
      "stateMutability": "nonpayable",
      "type": "function"
    },
    {
      "inputs": [
        {
          "internalType": "address",
          "name": "manager",
          "type": "address"
        }
      ],
      "name": "addManager",
      "outputs": [],
      "stateMutability": "nonpayable",
      "type": "function"
    },
    {
      "inputs": [
        {
          "internalType": "address",
          "name": "stakee",
          "type": "address"
        },
        {
          "internalType": "address",
          "name": "staker",
          "type": "address"
        }
      ],
      "name": "calculateStakerClaim",
      "outputs": [
        {
          "internalType": "uint256",
          "name": "",
          "type": "uint256"
        }
      ],
      "stateMutability": "view",
      "type": "function"
    },
    {
      "inputs": [
        {
          "internalType": "address",
          "name": "stakee",
          "type": "address"
        }
      ],
      "name": "claimStakingRewards",
      "outputs": [
        {
          "internalType": "uint256",
          "name": "",
          "type": "uint256"
        }
      ],
      "stateMutability": "nonpayable",
      "type": "function"
    },
    {
      "inputs": [
        {
          "internalType": "address",
          "name": "stakee",
          "type": "address"
        },
        {
          "internalType": "address",
          "name": "staker",
          "type": "address"
        }
      ],
      "name": "getLastClaim",
      "outputs": [
        {
          "components": [
            {
              "internalType": "uint256",
              "name": "claimedAt",
              "type": "uint256"
            },
            {
              "internalType": "uint256",
              "name": "stake",
              "type": "uint256"
            }
          ],
          "internalType": "struct IRewardsManager.LastClaim",
          "name": "",
          "type": "tuple"
        }
      ],
      "stateMutability": "view",
      "type": "function"
    },
    {
      "inputs": [
        {
          "internalType": "address",
          "name": "stakee",
          "type": "address"
        }
      ],
      "name": "getPendingRewards",
      "outputs": [
        {
          "internalType": "uint256",
          "name": "",
          "type": "uint256"
        }
      ],
      "stateMutability": "view",
      "type": "function"
    },
    {
      "inputs": [
        {
          "internalType": "uint256",
          "name": "epochId",
          "type": "uint256"
        },
        {
          "internalType": "address",
          "name": "stakee",
          "type": "address"
        }
      ],
      "name": "getRewardPool",
      "outputs": [
        {
          "components": [
            {
              "internalType": "uint256",
              "name": "stakersRewardTotal",
              "type": "uint256"
            },
            {
              "internalType": "uint256",
              "name": "initializedAt",
              "type": "uint256"
            },
            {
              "internalType": "uint256",
              "name": "totalActiveStake",
              "type": "uint256"
            },
            {
              "internalType": "int128",
              "name": "initialCumulativeRewardFactor",
              "type": "int128"
            }
          ],
          "internalType": "struct IRewardsManager.RewardPool",
          "name": "",
          "type": "tuple"
        }
      ],
      "stateMutability": "view",
      "type": "function"
    },
    {
      "inputs": [
        {
          "internalType": "uint256",
          "name": "epochId",
          "type": "uint256"
        },
        {
          "internalType": "address",
          "name": "stakee",
          "type": "address"
        }
      ],
      "name": "getRewardPoolActiveStake",
      "outputs": [
        {
          "internalType": "uint256",
          "name": "",
          "type": "uint256"
        }
      ],
      "stateMutability": "view",
      "type": "function"
    },
    {
      "inputs": [
        {
          "internalType": "uint256",
          "name": "epochId",
          "type": "uint256"
        },
        {
          "internalType": "address",
          "name": "stakee",
          "type": "address"
        }
      ],
      "name": "getRewardPoolKey",
      "outputs": [
        {
          "internalType": "bytes32",
          "name": "",
          "type": "bytes32"
        }
      ],
      "stateMutability": "pure",
      "type": "function"
    },
    {
      "inputs": [
        {
          "internalType": "uint256",
          "name": "epochId",
          "type": "uint256"
        },
        {
          "internalType": "address",
          "name": "stakee",
          "type": "address"
        }
      ],
      "name": "getRewardPoolStakersTotal",
      "outputs": [
        {
          "internalType": "uint256",
          "name": "",
          "type": "uint256"
        }
      ],
      "stateMutability": "view",
      "type": "function"
    },
    {
      "inputs": [
        {
          "internalType": "address",
          "name": "stakee",
          "type": "address"
        },
        {
          "internalType": "address",
          "name": "staker",
          "type": "address"
        }
      ],
      "name": "getStakerKey",
      "outputs": [
        {
          "internalType": "bytes32",
          "name": "",
          "type": "bytes32"
        }
      ],
      "stateMutability": "pure",
      "type": "function"
    },
    {
      "inputs": [
        {
          "internalType": "uint256",
          "name": "epochId",
          "type": "uint256"
        }
      ],
      "name": "getTotalEpochRewards",
      "outputs": [
        {
          "internalType": "uint256",
          "name": "",
          "type": "uint256"
        }
      ],
      "stateMutability": "view",
      "type": "function"
    },
    {
      "inputs": [
        {
          "internalType": "uint256",
          "name": "epochId",
          "type": "uint256"
        }
      ],
      "name": "getTotalEpochStakingRewards",
      "outputs": [
        {
          "internalType": "uint256",
          "name": "",
          "type": "uint256"
        }
      ],
      "stateMutability": "view",
      "type": "function"
    },
    {
      "inputs": [
        {
          "internalType": "address",
          "name": "stakee",
          "type": "address"
        },
        {
          "internalType": "uint256",
          "name": "amount",
          "type": "uint256"
        }
      ],
      "name": "incrementRewardPool",
      "outputs": [],
      "stateMutability": "nonpayable",
      "type": "function"
    },
    {
      "inputs": [
        {
          "internalType": "contract IERC20",
          "name": "token",
          "type": "address"
        },
        {
          "internalType": "contract StakingManager",
          "name": "stakingManager",
          "type": "address"
        },
        {
          "internalType": "contract EpochsManager",
          "name": "epochsManager",
          "type": "address"
        }
      ],
      "name": "initialize",
      "outputs": [],
      "stateMutability": "nonpayable",
      "type": "function"
    },
    {
      "inputs": [
        {
          "internalType": "address",
          "name": "stakee",
          "type": "address"
        }
      ],
      "name": "initializeNextRewardPool",
      "outputs": [],
      "stateMutability": "nonpayable",
      "type": "function"
    },
    {
      "inputs": [
        {
          "internalType": "bytes32",
          "name": "",
          "type": "bytes32"
        }
      ],
      "name": "lastClaims",
      "outputs": [
        {
          "internalType": "uint256",
          "name": "claimedAt",
          "type": "uint256"
        },
        {
          "internalType": "uint256",
          "name": "stake",
          "type": "uint256"
        }
      ],
      "stateMutability": "view",
      "type": "function"
    },
    {
      "inputs": [
        {
          "internalType": "address",
          "name": "",
          "type": "address"
        }
      ],
      "name": "latestActiveRewardPools",
      "outputs": [
        {
          "internalType": "uint256",
          "name": "",
          "type": "uint256"
        }
      ],
      "stateMutability": "view",
      "type": "function"
    },
    {
      "inputs": [
        {
          "internalType": "address",
          "name": "",
          "type": "address"
        }
      ],
      "name": "managers",
      "outputs": [
        {
          "internalType": "uint256",
          "name": "",
          "type": "uint256"
        }
      ],
      "stateMutability": "view",
      "type": "function"
    },
    {
      "inputs": [],
      "name": "owner",
      "outputs": [
        {
          "internalType": "address",
          "name": "",
          "type": "address"
        }
      ],
      "stateMutability": "view",
      "type": "function"
    },
    {
      "inputs": [],
      "name": "pendingOwner",
      "outputs": [
        {
          "internalType": "address",
          "name": "",
          "type": "address"
        }
      ],
      "stateMutability": "view",
      "type": "function"
    },
    {
      "inputs": [
        {
          "internalType": "address",
          "name": "",
          "type": "address"
        }
      ],
      "name": "pendingRewards",
      "outputs": [
        {
          "internalType": "uint256",
          "name": "",
          "type": "uint256"
        }
      ],
      "stateMutability": "view",
      "type": "function"
    },
    {
      "inputs": [
        {
          "internalType": "address",
          "name": "manager",
          "type": "address"
        }
      ],
      "name": "removeManager",
      "outputs": [],
      "stateMutability": "nonpayable",
      "type": "function"
    },
    {
      "inputs": [],
      "name": "renounceOwnership",
      "outputs": [],
      "stateMutability": "nonpayable",
      "type": "function"
    },
    {
      "inputs": [
        {
          "internalType": "bytes32",
          "name": "",
          "type": "bytes32"
        }
      ],
      "name": "rewardPools",
      "outputs": [
        {
          "internalType": "uint256",
          "name": "stakersRewardTotal",
          "type": "uint256"
        },
        {
          "internalType": "uint256",
          "name": "initializedAt",
          "type": "uint256"
        },
        {
          "internalType": "uint256",
          "name": "totalActiveStake",
          "type": "uint256"
        },
        {
          "internalType": "int128",
          "name": "initialCumulativeRewardFactor",
          "type": "int128"
        }
      ],
      "stateMutability": "view",
      "type": "function"
    },
    {
      "inputs": [
        {
          "internalType": "bytes4",
          "name": "interfaceId",
          "type": "bytes4"
        }
      ],
      "name": "supportsInterface",
      "outputs": [
        {
          "internalType": "bool",
          "name": "",
          "type": "bool"
        }
      ],
      "stateMutability": "view",
      "type": "function"
    },
    {
      "inputs": [
        {
          "internalType": "uint256",
          "name": "",
          "type": "uint256"
        }
      ],
      "name": "totalEpochRewards",
      "outputs": [
        {
          "internalType": "uint256",
          "name": "",
          "type": "uint256"
        }
      ],
      "stateMutability": "view",
      "type": "function"
    },
    {
      "inputs": [
        {
          "internalType": "uint256",
          "name": "",
          "type": "uint256"
        }
      ],
      "name": "totalEpochStakingRewards",
      "outputs": [
        {
          "internalType": "uint256",
          "name": "",
          "type": "uint256"
        }
      ],
      "stateMutability": "view",
      "type": "function"
    },
    {
      "inputs": [
        {
          "internalType": "address",
          "name": "newOwner",
          "type": "address"
        }
      ],
      "name": "transferOwnership",
      "outputs": [],
      "stateMutability": "nonpayable",
      "type": "function"
    },
    {
      "inputs": [
        {
          "internalType": "bytes32",
          "name": "",
          "type": "bytes32"
        }
      ],
      "name": "unclaimedStakingRewards",
      "outputs": [
        {
          "internalType": "uint256",
          "name": "",
          "type": "uint256"
        }
      ],
      "stateMutability": "view",
      "type": "function"
    },
    {
      "inputs": [
        {
          "internalType": "address",
          "name": "stakee",
          "type": "address"
        },
        {
          "internalType": "address",
          "name": "staker",
          "type": "address"
        }
      ],
      "name": "updatePendingRewards",
      "outputs": [],
      "stateMutability": "nonpayable",
      "type": "function"
    }
  ],
  "transactionHash": "0x5be13d6d9c9abbcf4aca1fa0efb0967d54b0374d64ed910d68bb38e13988216f",
  "args": [],
  "numDeployments": 1,
  "solcInputHash": "76c1e1f3445d6d518cb33f614f9922c9",
  "bytecode": "0x608060405234801561001057600080fd5b50612392806100206000396000f3fe608060405234801561001057600080fd5b50600436106102065760003560e01c80638a87fe681161011a578063c829b66d116100ad578063e30c39781161007c578063e30c397814610585578063ecd0c0c314610596578063f2fde38b146105a9578063f6ed2017146105bc578063fdff9b4d146105e557600080fd5b8063c829b66d14610503578063ce8b486f14610516578063cec6e51f14610529578063d96d57671461057257600080fd5b8063ab56b4f0116100e9578063ab56b4f01461049c578063ac18de43146104ca578063c0c53b8b146104dd578063c3b6f726146104f057600080fd5b80638a87fe68146104455780638da5cb5b1461045857806391b8105a1461046957806396bb1fef1461048957600080fd5b80633150fa8a1161019d5780635653f6791161016c5780635653f679146103ef5780635dba03281461040f578063715018a61461042257806378c041a61461042a57806379ba50971461043d57600080fd5b80633150fa8a1461036d57806331d7a2621461038057806340768fd3146103a057806351e9d686146103b357600080fd5b80631e903c04116101d95780631e903c04146102bd5780631ed9fb0f146102dd5780632073de5c146102fd5780632d06177a1461035857600080fd5b806301ffc9a71461020b578063032fd1ba1461024457806307b4fc01146102725780630ab2502214610292575b600080fd5b61022f610219366004611eb3565b6001600160e01b031916631ed895ad60e11b1490565b60405190151581526020015b60405180910390f35b610264610252366004611edd565b60d16020526000908152604090205481565b60405190815260200161023b565b610264610280366004611f0b565b60d06020526000908152604090205481565b60cb546102a5906001600160a01b031681565b6040516001600160a01b03909116815260200161023b565b6102646102cb366004611edd565b600090815260d1602052604090205490565b6102646102eb366004611edd565b60d26020526000908152604090205481565b61033561030b366004611edd565b60d360205260009081526040902080546001820154600283015460039093015491929091600f0b84565b60408051948552602085019390935291830152600f0b606082015260800161023b565b61036b610366366004611f0b565b610605565b005b61026461037b366004611f28565b610650565b61026461038e366004611f0b565b60ce6020526000908152604090205481565b61036b6103ae366004611f58565b61067b565b6103da6103c1366004611edd565b60cd602052600090815260409020805460019091015482565b6040805192835260208301919091520161023b565b6102646103fd366004611edd565b60cf6020526000908152604090205481565b61036b61041d366004611f84565b610a05565b61036b610ac7565b610264610438366004611f84565b610adb565b61036b610b26565b610264610453366004611f28565b610ba5565b6033546001600160a01b03166102a5565b610264610477366004611edd565b600090815260d2602052604090205490565b610264610497366004611f0b565b610bd5565b6104af6104aa366004611f84565b610cce565b6040805182518152602092830151928101929092520161023b565b61036b6104d8366004611f0b565b610d25565b61036b6104eb366004611fb2565b610d47565b60ca546102a5906001600160a01b031681565b61036b610511366004611f0b565b610f2d565b610264610524366004611f84565b6110d9565b61053c610537366004611f28565b611169565b60405161023b9190815181526020808301519082015260408083015190820152606091820151600f0b9181019190915260800190565b610264610580366004611f28565b6111ef565b6065546001600160a01b03166102a5565b60c9546102a5906001600160a01b031681565b61036b6105b7366004611f0b565b611219565b6102646105ca366004611f0b565b6001600160a01b0316600090815260ce602052604090205490565b6102646105f3366004611f0b565b60976020526000908152604090205481565b61060d61128a565b6001600160a01b038116610634576040516309045a0360e41b815260040160405180910390fd5b6001600160a01b03166000908152609760205260409020439055565b600060d360006106608585610ba5565b81526020019081526020016000206000015490505b92915050565b3360009081526097602052604081205490036106a957604051620ab82160e31b815260040160405180910390fd5b6001600160a01b0382166106d057604051630381bf9b60e01b815260040160405180910390fd5b806000036106f15760405163d11b25af60e01b815260040160405180910390fd5b60008060cb60009054906101000a90046001600160a01b03166001600160a01b031663e34bf0136040518163ffffffff1660e01b815260040161014060405180830381865afa158015610748573d6000803e3d6000fd5b505050506040513d601f19601f8201168201806040525081019061076c9190612065565b91509150600060d360006107808588610ba5565b8152602001908152602001600020905080600101546000036107b557604051631656dc4d60e21b815260040160405180910390fd5b6001600160a01b038516600090815260d060205260409020548311156107f1576001600160a01b038516600090815260d0602052604090208390555b60006108096107ff866112e4565b8460600151611351565b9050610815818661212e565b60cf6000610823898a610adb565b81526020019081526020016000205461083c9190612141565b60cf600061084a898a610adb565b8152602001908152602001600020819055508060ce6000886001600160a01b03166001600160a01b031681526020019081526020016000205461088d9190612141565b6001600160a01b038716600090815260ce6020526040812091909155825490036108ec576001600160a01b038616600090815260cc60205260409020546003830180546001600160801b0319166001600160801b039092169190911790555b81546108f9908290612141565b82556002820154819061091590677fffffffffffffff90612154565b101561093457604051636d77051560e11b815260040160405180910390fd5b6001600160a01b038616600090815260cc602052604090205461097790600f0b61097261096084611381565b61096d8660020154611381565b6113cc565b611424565b6001600160a01b038716600090815260cc6020908152604080832080546001600160801b0319166001600160801b03959095169490941790935586825260d1905220546109c5908690612141565b600085815260d1602090815260408083209390935560d2905220546109eb908290612141565b600094855260d26020526040909420939093555050505050565b336000908152609760205260408120549003610a3357604051620ab82160e31b815260040160405180910390fd5b6000610a3f8383610adb565b90506000610a4e828585611457565b6001600160a01b038516600090815260ce6020526040902054909150610a7590829061212e565b6001600160a01b038516600090815260ce602090815260408083209390935584825260cf90522054610aa8908290612141565b600083815260cf6020526040902055610ac18484611692565b50505050565b610acf61128a565b610ad960006117ba565b565b6040516bffffffffffffffffffffffff19606084811b8216602084015283901b1660348201526000906048015b60405160208183030381529060405280519060200120905092915050565b60655433906001600160a01b03168114610b995760405162461bcd60e51b815260206004820152602960248201527f4f776e61626c6532537465703a2063616c6c6572206973206e6f7420746865206044820152683732bb9037bbb732b960b91b60648201526084015b60405180910390fd5b610ba2816117ba565b50565b60008282604051602001610b0892919091825260601b6bffffffffffffffffffffffff1916602082015260340190565b60006001600160a01b038216610bfe57604051630381bf9b60e01b815260040160405180910390fd5b6000610c0a8333610adb565b90506000610c19828533611457565b600083815260cf602052604081205491925090610c369083612141565b905080600003610c5957604051635aa9184d60e01b815260040160405180910390fd5b600083815260cf602090815260408083208390556001600160a01b038816835260ce909152902054610c8c90839061212e565b6001600160a01b038616600090815260ce6020526040902055610caf8533611692565b60c954610cc6906001600160a01b031633836117d3565b949350505050565b604080518082019091526000808252602082015260cd6000610cf08585610adb565b815260200190815260200160002060405180604001604052908160008201548152602001600182015481525050905092915050565b610d2d61128a565b6001600160a01b0316600090815260976020526040812055565b600054610100900460ff1615808015610d675750600054600160ff909116105b80610d815750303b158015610d81575060005460ff166001145b610de45760405162461bcd60e51b815260206004820152602e60248201527f496e697469616c697a61626c653a20636f6e747261637420697320616c72656160448201526d191e481a5b9a5d1a585b1a5e995960921b6064820152608401610b90565b6000805460ff191660011790558015610e07576000805461ff0019166101001790555b6001600160a01b038416610e2e57604051635f5d339960e01b815260040160405180910390fd5b610e666040518060400160405280600e81526020016d29ba30b5b4b733a6b0b730b3b2b960911b815250846303e0261b60e41b61182a565b610e9d6040518060400160405280600d81526020016c22b837b1b439a6b0b730b3b2b960991b8152508363078a0a4b60e41b61182a565b610ea561192e565b60c980546001600160a01b038087166001600160a01b03199283161790925560cb805485841690831617905560ca8054928616929091169190911790558015610ac1576000805461ff0019169055604051600181527f7f26b83ff96e1f2b6a682f133852f6798a09c465da95921460cefb38474024989060200160405180910390a150505050565b336000908152609760205260408120549003610f5b57604051620ab82160e31b815260040160405180910390fd5b6001600160a01b038116610f8257604051630381bf9b60e01b815260040160405180910390fd5b60cb546040805163b3e123db60e01b815290516000926001600160a01b03169163b3e123db9160048083019260209291908290030181865afa158015610fcc573d6000803e3d6000fd5b505050506040513d601f19601f82011682018060405250810190610ff0919061216b565b9050600060d360006110028486610ba5565b81526020019081526020016000209050806001015460001461103757604051637182438960e01b815260040160405180910390fd5b60ca546040516313cdd31b60e01b81526001600160a01b03858116600483015260009216906313cdd31b90602401602060405180830381865afa158015611082573d6000803e3d6000fd5b505050506040513d601f19601f820116820180604052508101906110a6919061216b565b9050806000036110c95760405163353dae3760e11b815260040160405180910390fd5b6002820155436001909101555050565b60006001600160a01b03831661110257604051630381bf9b60e01b815260040160405180910390fd5b6001600160a01b03821661112957604051632a5d705360e11b815260040160405180910390fd5b60006111358484610adb565b90506000611144828686611457565b600083815260cf60205260409020549091506111609082612141565b95945050505050565b61119760405180608001604052806000815260200160008152602001600081526020016000600f0b81525090565b60d360006111a58585610ba5565b8152602080820192909252604090810160002081516080810183528154815260018201549381019390935260028101549183019190915260030154600f0b60608201529392505050565b600060d360006111ff8585610ba5565b815260200190815260200160002060020154905092915050565b61122161128a565b606580546001600160a01b0383166001600160a01b031990911681179091556112526033546001600160a01b031690565b6001600160a01b03167f38d16b8cac22d99fc7c124b9cd0de2d3fa1faef420bfe791d8c362d765e2270060405160405180910390a350565b6033546001600160a01b03163314610ad95760405162461bcd60e51b815260206004820181905260248201527f4f776e61626c653a2063616c6c6572206973206e6f7420746865206f776e65726044820152606401610b90565b60006001600160801b0382111561134d5760405162461bcd60e51b815260206004820152602760248201527f53616665436173743a2076616c756520646f65736e27742066697420696e20316044820152663238206269747360c81b6064820152608401610b90565b5090565b6000620186a061137063ffffffff84166001600160801b038616612154565b61137a919061219a565b9392505050565b60008061139e611399670de0b6b3a76400008561219a565b61195d565b905060006113b7611399670de0b6b3a7640000866121ae565b9050610cc682610972836503782dace9d960521b5b600081600f0b6000036113de57600080fd5b600082600f0b604085600f0b901b816113f9576113f9612184565b05905060016001607f1b0319811280159061141b575060016001607f1b038113155b61137a57600080fd5b6000600f83810b9083900b0160016001607f1b0319811280159061141b575060016001607f1b0381131561137a57600080fd5b600080611464858561197b565b9050600061149660405180608001604052806000815260200160008152602001600081526020016000600f0b81525090565b60cb5460408051631118d57f60e31b815290516000926001600160a01b0316916388c6abf89160048083019260209291908290030181865afa1580156114e0573d6000803e3d6000fd5b505050506040513d601f19601f82011682018060405250810190611504919061216b565b600089815260cd602052604081205491925090611522906001612141565b90505b818110156115aa5760d3600061153b838b610ba5565b81526020808201929092526040908101600020815160808101835281548152600182015493810184905260028201549281019290925260030154600f0b606082015293501580159061158d5750825115155b1561159a578093506115aa565b6115a3816121c2565b9050611525565b50826000036115bf578394505050505061137a565b60ca5460405163f731cb4960e01b81526001600160a01b0389811660048301528881166024830152600092169063f731cb4990604401606060405180830381865afa158015611612573d6000803e3d6000fd5b505050506040513d601f19601f8201168201806040525081019061163691906121db565b905060006116478260000151611381565b6060850151909150600061165b8b86611aa7565b90506116786116738461166e8486611b33565b611b66565b611b9c565b6116829089612141565b9c9b505050505050505050505050565b60ca5460405163f731cb4960e01b81526001600160a01b0384811660048301528381166024830152600092169063f731cb4990604401606060405180830381865afa1580156116e5573d6000803e3d6000fd5b505050506040513d601f19601f8201168201806040525081019061170991906121db565b6040805180820180835260cb54631118d57f60e31b90915291519293509182916001600160a01b0316906388c6abf8906044808501916020918187030181865afa15801561175b573d6000803e3d6000fd5b505050506040513d601f19601f8201168201806040525081019061177f919061216b565b8152825160209091015260cd60006117978686610adb565b815260208082019290925260400160002082518155910151600190910155505050565b606580546001600160a01b0319169055610ba281611c1d565b604080516001600160a01b038416602482015260448082018490528251808303909101815260649091019091526020810180516001600160e01b031663a9059cbb60e01b179052611825908490611c6f565b505050565b825160000361184c5760405163d1fc12f760e01b815260040160405180910390fd5b6001600160a01b038216611873578260405161f56160eb1b8152600401610b909190612295565b6001600160e01b0319811661189b5760405163308c995160e01b815260040160405180910390fd5b6040516301ffc9a760e01b81526001600160e01b0319821660048201526001600160a01b038316906301ffc9a790602401602060405180830381865afa1580156118e9573d6000803e3d6000fd5b505050506040513d601f19601f8201168201806040525081019061190d91906122a8565b611825578281604051633f8ccd3b60e21b8152600401610b909291906122ca565b600054610100900460ff166119555760405162461bcd60e51b8152600401610b90906122f5565b610ad9611d44565b6000677fffffffffffffff82111561197457600080fd5b5060401b90565b600082815260cd602090815260408083208151808301835281548082526001909201548185015260cb548351631118d57f60e31b81529351919492936001600160a01b03909116926388c6abf8926004808401938290030181865afa1580156119e8573d6000803e3d6000fd5b505050506040513d601f19601f82011682018060405250810190611a0c919061216b565b03611a1b576000915050610675565b600060d36000611a2f846000015187610ba5565b815260208082019290925260409081016000908120825160808101845281548152600182015494810194909452600281015492840183905260030154600f0b60608401529192509003611a8757600092505050610675565b604081015160208301518251611a9d9190612154565b611160919061219a565b6001600160a01b038216600090815260d060205260408120548190831115611aeb57506001600160a01b038316600090815260cc6020526040902054600f0b61137a565b6001600160a01b038416600090815260d0602052604081205460d3908290611b139088610ba5565b8152602081019190915260400160002060030154600f0b95945050505050565b6000600f82810b9084900b0360016001607f1b0319811280159061141b575060016001607f1b0381131561137a57600080fd5b6000600f83810b9083900b0260401d60016001607f1b0319811280159061141b575060016001607f1b0381131561137a57600080fd5b600080611ba883611d74565b67ffffffffffffffff1690506000611bc8670de0b6b3a764000083612154565b90506000611bde85611bd98561195d565b611b33565b90506000611bfd611bf8836503782dace9d960521b611b66565b611d74565b67ffffffffffffffff169050611c138184612141565b9695505050505050565b603380546001600160a01b038381166001600160a01b0319831681179093556040519116919082907f8be0079c531659141344cd1fd0a4f28419497f9722a3daafe3b4186f6b6457e090600090a35050565b6000611cc4826040518060400160405280602081526020017f5361666545524332303a206c6f772d6c6576656c2063616c6c206661696c6564815250856001600160a01b0316611d909092919063ffffffff16565b9050805160001480611ce5575080806020019051810190611ce591906122a8565b6118255760405162461bcd60e51b815260206004820152602a60248201527f5361666545524332303a204552433230206f7065726174696f6e20646964206e6044820152691bdd081cdd58d8d9595960b21b6064820152608401610b90565b600054610100900460ff16611d6b5760405162461bcd60e51b8152600401610b90906122f5565b610ad9336117ba565b60008082600f0b1215611d8657600080fd5b50600f0b60401d90565b6060610cc6848460008585600080866001600160a01b03168587604051611db79190612340565b60006040518083038185875af1925050503d8060008114611df4576040519150601f19603f3d011682016040523d82523d6000602084013e611df9565b606091505b5091509150611e0a87838387611e15565b979650505050505050565b60608315611e84578251600003611e7d576001600160a01b0385163b611e7d5760405162461bcd60e51b815260206004820152601d60248201527f416464726573733a2063616c6c20746f206e6f6e2d636f6e74726163740000006044820152606401610b90565b5081610cc6565b610cc68383815115611e995781518083602001fd5b8060405162461bcd60e51b8152600401610b909190612295565b600060208284031215611ec557600080fd5b81356001600160e01b03198116811461137a57600080fd5b600060208284031215611eef57600080fd5b5035919050565b6001600160a01b0381168114610ba257600080fd5b600060208284031215611f1d57600080fd5b813561137a81611ef6565b60008060408385031215611f3b57600080fd5b823591506020830135611f4d81611ef6565b809150509250929050565b60008060408385031215611f6b57600080fd5b8235611f7681611ef6565b946020939093013593505050565b60008060408385031215611f9757600080fd5b8235611fa281611ef6565b91506020830135611f4d81611ef6565b600080600060608486031215611fc757600080fd5b8335611fd281611ef6565b92506020840135611fe281611ef6565b91506040840135611ff281611ef6565b809150509250925092565b604051610120810167ffffffffffffffff8111828210171561202f57634e487b7160e01b600052604160045260246000fd5b60405290565b805163ffffffff8116811461204957600080fd5b919050565b80516001600160801b038116811461204957600080fd5b60008082840361014081121561207a57600080fd5b8351925061012080601f198301121561209257600080fd5b61209a611ffd565b91506020850151825260408501516020830152606085015160408301526120c360808601612035565b60608301526120d460a08601612035565b608083015260c085015160a08301526120ef60e0860161204e565b60c083015261010061210281870161204e565b60e0840152940151938101939093525092909150565b634e487b7160e01b600052601160045260246000fd5b8181038181111561067557610675612118565b8082018082111561067557610675612118565b808202811582820484141761067557610675612118565b60006020828403121561217d57600080fd5b5051919050565b634e487b7160e01b600052601260045260246000fd5b6000826121a9576121a9612184565b500490565b6000826121bd576121bd612184565b500690565b6000600182016121d4576121d4612118565b5060010190565b6000606082840312156121ed57600080fd5b6040516060810181811067ffffffffffffffff8211171561221e57634e487b7160e01b600052604160045260246000fd5b80604052508251815260208301516020820152604083015160408201528091505092915050565b60005b83811015612260578181015183820152602001612248565b50506000910152565b60008151808452612281816020860160208601612245565b601f01601f19169290920160200192915050565b60208152600061137a6020830184612269565b6000602082840312156122ba57600080fd5b8151801515811461137a57600080fd5b6040815260006122dd6040830185612269565b905063ffffffff60e01b831660208301529392505050565b6020808252602b908201527f496e697469616c697a61626c653a20636f6e7472616374206973206e6f74206960408201526a6e697469616c697a696e6760a81b606082015260800190565b60008251612352818460208701612245565b919091019291505056fea26469706673582212208000874aaef2337fdfe6b94fd691efde58f78c30a1364130fd5c3fb1bf350c9264736f6c63430008120033",
  "devdoc": {
    "details": "After deployment, the SyloTicketing contract should be set up as a manager to be able to call certain restricted functions.",
    "events": {
      "Initialized(uint8)": {
        "details": "Triggered when the contract has been initialized or reinitialized."
      }
    },
    "kind": "dev",
    "methods": {
      "acceptOwnership()": {
        "details": "The new owner accepts the ownership transfer."
      },
      "addManager(address)": {
        "params": {
          "manager": "The address of the manager contract."
        }
      },
      "calculateStakerClaim(address,address)": {
        "details": "This function will utilize the cumulative reward factor to perform the calculation, keeping the gas cost scaling of this function to a constant value.",
        "params": {
          "stakee": "The address of the Node.",
          "staker": "The address of the staker."
        },
        "returns": {
          "_0": "The value of the reward owed to the staker in SOLO."
        }
      },
      "claimStakingRewards(address)": {
        "params": {
          "stakee": "The address of the Node to claim against."
        }
      },
      "getLastClaim(address,address)": {
        "params": {
          "stakee": "The address of the Node.",
          "staker": "The address of the staker."
        },
        "returns": {
          "_0": "The ID of the epoch."
        }
      },
      "getPendingRewards(address)": {
        "params": {
          "stakee": "The address of the Node."
        },
        "returns": {
          "_0": "The total pending staking reward in SOLO."
        }
      },
      "getRewardPool(uint256,address)": {
        "params": {
          "epochId": "The ID of the epoch the reward pool was initialized in.",
          "stakee": "The address of the Node."
        },
        "returns": {
          "_0": "The reward pool."
        }
      },
      "getRewardPoolActiveStake(uint256,address)": {
        "params": {
          "epochId": "The ID of the epoch the reward pool was initialized in.",
          "stakee": "The address of the Node."
        },
        "returns": {
          "_0": "The total active stake for that reward pool in SOLO."
        }
      },
      "getRewardPoolKey(uint256,address)": {
        "params": {
          "epochId": "The epoch ID the reward pool was created in.",
          "stakee": "The address of the Node."
        },
        "returns": {
          "_0": "A byte-array representing the reward pool key."
        }
      },
      "getRewardPoolStakersTotal(uint256,address)": {
        "params": {
          "epochId": "The ID of the epoch the reward pool was initialized in.",
          "stakee": "The address of the Node."
        },
        "returns": {
          "_0": "The total accumulated staker reward in SOLO."
        }
      },
      "getStakerKey(address,address)": {
        "params": {
          "stakee": "The address of the Node.",
          "staker": "The address of the stake."
        },
        "returns": {
          "_0": "A byte-array representing the key."
        }
      },
      "getTotalEpochRewards(uint256)": {
        "params": {
          "epochId": "The epoch id."
        },
        "returns": {
          "_0": "The total reward in that epoch, including staking rewards and fee reward."
        }
      },
      "getTotalEpochStakingRewards(uint256)": {
        "params": {
          "epochId": "The epoch id."
        },
        "returns": {
          "_0": "The total staking reward in that epoch."
        }
      },
      "incrementRewardPool(address,uint256)": {
        "details": "This function should be called by the Ticketing contract when a ticket is successfully redeemed. The face value of the ticket should be split between incrementing the node's reward balance, and the reward balance for the node's delegated stakers. The face value will be added to the current reward pool's balance. This function will fail if the Ticketing contract has not been set as a manager.",
        "params": {
          "amount": "The face value of the ticket in SOLO.",
          "stakee": "The address of the Node."
        }
      },
      "owner()": {
        "details": "Returns the address of the current owner."
      },
      "pendingOwner()": {
        "details": "Returns the address of the pending owner."
      },
      "removeManager(address)": {
        "params": {
          "manager": "The address of the manager contract."
        }
      },
      "renounceOwnership()": {
        "details": "Leaves the contract without owner. It will not be possible to call `onlyOwner` functions. Can only be called by the current owner. NOTE: Renouncing ownership will leave the contract without an owner, thereby disabling any functionality that is only available to the owner."
      },
      "transferOwnership(address)": {
        "details": "Starts the ownership transfer of the contract to a new account. Replaces the pending transfer if there is one. Can only be called by the current owner."
      }
    },
    "stateVariables": {
      "cumulativeRewardFactors": {
        "details": "Each node will manage a cumulative reward factor (CRF) that is incremented whenever a ticket is redeemed. This factor acts as a single value that can be used to calculate any particular staker's reward share. This prevents the need to individually track each staker's proportion, and also allows a claim calculation to be performed without iterating through every epoch. The CRF is calculated as CRF = CRF + Reward / TotalStake."
      }
    },
    "version": 1
  },
  "userdoc": {
    "kind": "user",
    "methods": {
      "_epochsManager()": {
        "notice": "Sylo Epochs Manager. "
      },
      "_stakingManager()": {
        "notice": "Sylo Staking Manager contract. "
      },
      "_token()": {
        "notice": "ERC20 Sylo token contract. "
      },
      "addManager(address)": {
        "notice": "Adds a manager to this contract. Only callable by the owner."
      },
      "calculateStakerClaim(address,address)": {
        "notice": "Call this function to calculate the total reward owed to a staker. This value will include all epochs since the last claim was made up to the previous epoch. This will also add any pending rewards to the final value as well."
      },
      "claimStakingRewards(address)": {
        "notice": "Call this function to claim rewards as a staker. The SYLO tokens will be transferred to the caller's account. This function will fail if there exists no reward to claim. Note: Calling this will remove the current unclaimed reward from being used as stake in the next round."
      },
      "getLastClaim(address,address)": {
        "notice": "Retrieves the ID of the epoch in which a staker last made their staking claim."
      },
      "getPendingRewards(address)": {
        "notice": "Retrieve the total pending staking reward allocated to a Node's stakers."
      },
      "getRewardPool(uint256,address)": {
        "notice": "Retrieve the reward pool initialized by the given node, at the specified epoch."
      },
      "getRewardPoolActiveStake(uint256,address)": {
        "notice": "Retrieve the total active stake that will be used for a Node's reward pool in a given epoch."
      },
      "getRewardPoolKey(uint256,address)": {
        "notice": "Returns the key used to index a reward pool. The key is a hash of the epochId and Node's address."
      },
      "getRewardPoolStakersTotal(uint256,address)": {
        "notice": "Retrieve the total accumulated reward that will be distributed to a Node's delegated stakers for a given epoch."
      },
      "getStakerKey(address,address)": {
        "notice": "Returns the key used to index staking claims. The key is a hash of the Node's address and the staker's address."
      },
      "getTotalEpochRewards(uint256)": {
        "notice": "Retrieves the total accumulated rewards for a specific epoch."
      },
      "getTotalEpochStakingRewards(uint256)": {
        "notice": "Retrieves the total accumulated rewards for stakers in a specific epoch."
      },
      "initializeNextRewardPool(address)": {
        "notice": "This is used by Nodes to initialize their reward pool for the next epoch. This function will revert if the caller has no stake, or if the reward pool has already been initialized. The total active stake for the next reward pool is calculated by summing up the total managed stake held by the RewardsManager contract."
      },
      "lastClaims(bytes32)": {
        "notice": "Tracks the last epoch a delegated staker made a reward claim in. The key to this mapping is a hash of the Node's address and the delegated stakers address."
      },
      "latestActiveRewardPools(address)": {
        "notice": "Tracks each Node's most recently active reward pool"
      },
      "pendingRewards(address)": {
        "notice": "Tracks each Nodes total pending rewards in SOLOs. This value is accumulated as Node's redeem tickets. Rewards are pending if the distribution amongst the stakers has not been accounted for yet. Pending rewards are transferred to unclaimed rewards once the the staker's share has been calculated."
      },
      "removeManager(address)": {
        "notice": "Removes a manager from this contract. Only callable by the owner."
      },
      "rewardPools(bytes32)": {
        "notice": "Tracks each reward pool initialized by a Node. The key to this map is derived from the epochId and the Node's address."
      },
      "supportsInterface(bytes4)": {
        "notice": "Returns true if the contract implements the interface defined by `interfaceId` from ERC165."
      },
      "totalEpochRewards(uint256)": {
        "notice": "Tracks total accumulated rewards in each epoch"
      },
      "totalEpochStakingRewards(uint256)": {
        "notice": "Tracks total accumulated staking rewards in each epoch"
      },
      "unclaimedStakingRewards(bytes32)": {
        "notice": "Tracks rewards for stakers after the stakers share has been calculated, but has not actually been claimed by the staker. The node fee reward is also added to the node's unclaimedStakingRewards."
      },
      "updatePendingRewards(address,address)": {
        "notice": "This is called by the staking manager to transfer pending rewards to unclaimed rewards for a staker. This is required as the last used CRF needs to be updated whenever stake changes."
      }
    },
    "notice": "Handles epoch based reward pools that are incremented from redeeming tickets. Nodes use this contract to set up their reward pool for the next epoch, and stakers use this contract to track and claim staking rewards.",
    "version": 1
  },
  "storageLayout": {
    "storage": [
      {
        "astId": 244,
        "contract": "contracts/payments/ticketing/RewardsManager.sol:RewardsManager",
        "label": "_initialized",
        "offset": 0,
        "slot": "0",
        "type": "t_uint8"
      },
      {
        "astId": 247,
        "contract": "contracts/payments/ticketing/RewardsManager.sol:RewardsManager",
        "label": "_initializing",
        "offset": 1,
        "slot": "0",
        "type": "t_bool"
      },
      {
        "astId": 777,
        "contract": "contracts/payments/ticketing/RewardsManager.sol:RewardsManager",
        "label": "__gap",
        "offset": 0,
        "slot": "1",
        "type": "t_array(t_uint256)50_storage"
      },
      {
        "astId": 116,
        "contract": "contracts/payments/ticketing/RewardsManager.sol:RewardsManager",
        "label": "_owner",
        "offset": 0,
        "slot": "51",
        "type": "t_address"
      },
      {
        "astId": 236,
        "contract": "contracts/payments/ticketing/RewardsManager.sol:RewardsManager",
        "label": "__gap",
        "offset": 0,
        "slot": "52",
        "type": "t_array(t_uint256)49_storage"
      },
      {
        "astId": 25,
        "contract": "contracts/payments/ticketing/RewardsManager.sol:RewardsManager",
        "label": "_pendingOwner",
        "offset": 0,
        "slot": "101",
        "type": "t_address"
      },
      {
        "astId": 104,
        "contract": "contracts/payments/ticketing/RewardsManager.sol:RewardsManager",
        "label": "__gap",
        "offset": 0,
        "slot": "102",
        "type": "t_array(t_uint256)49_storage"
      },
      {
        "astId": 11127,
        "contract": "contracts/payments/ticketing/RewardsManager.sol:RewardsManager",
        "label": "managers",
        "offset": 0,
        "slot": "151",
        "type": "t_mapping(t_address,t_uint256)"
      },
      {
        "astId": 11192,
        "contract": "contracts/payments/ticketing/RewardsManager.sol:RewardsManager",
        "label": "__gap",
        "offset": 0,
        "slot": "152",
        "type": "t_array(t_uint256)49_storage"
      },
      {
        "astId": 13026,
        "contract": "contracts/payments/ticketing/RewardsManager.sol:RewardsManager",
        "label": "_token",
        "offset": 0,
        "slot": "201",
        "type": "t_contract(IERC20)1443"
      },
      {
        "astId": 13030,
        "contract": "contracts/payments/ticketing/RewardsManager.sol:RewardsManager",
        "label": "_stakingManager",
        "offset": 0,
        "slot": "202",
        "type": "t_contract(StakingManager)15921"
      },
      {
        "astId": 13034,
        "contract": "contracts/payments/ticketing/RewardsManager.sol:RewardsManager",
        "label": "_epochsManager",
        "offset": 0,
        "slot": "203",
        "type": "t_contract(EpochsManager)10429"
      },
      {
        "astId": 13039,
        "contract": "contracts/payments/ticketing/RewardsManager.sol:RewardsManager",
        "label": "cumulativeRewardFactors",
        "offset": 0,
        "slot": "204",
        "type": "t_mapping(t_address,t_int128)"
      },
      {
        "astId": 13045,
        "contract": "contracts/payments/ticketing/RewardsManager.sol:RewardsManager",
        "label": "lastClaims",
        "offset": 0,
        "slot": "205",
        "type": "t_mapping(t_bytes32,t_struct(LastClaim)10809_storage)"
      },
      {
        "astId": 13050,
        "contract": "contracts/payments/ticketing/RewardsManager.sol:RewardsManager",
        "label": "pendingRewards",
        "offset": 0,
        "slot": "206",
        "type": "t_mapping(t_address,t_uint256)"
      },
      {
        "astId": 13055,
        "contract": "contracts/payments/ticketing/RewardsManager.sol:RewardsManager",
        "label": "unclaimedStakingRewards",
        "offset": 0,
        "slot": "207",
        "type": "t_mapping(t_bytes32,t_uint256)"
      },
      {
        "astId": 13060,
        "contract": "contracts/payments/ticketing/RewardsManager.sol:RewardsManager",
        "label": "latestActiveRewardPools",
        "offset": 0,
        "slot": "208",
        "type": "t_mapping(t_address,t_uint256)"
      },
      {
        "astId": 13065,
        "contract": "contracts/payments/ticketing/RewardsManager.sol:RewardsManager",
        "label": "totalEpochRewards",
        "offset": 0,
        "slot": "209",
        "type": "t_mapping(t_uint256,t_uint256)"
      },
      {
        "astId": 13070,
        "contract": "contracts/payments/ticketing/RewardsManager.sol:RewardsManager",
        "label": "totalEpochStakingRewards",
        "offset": 0,
        "slot": "210",
        "type": "t_mapping(t_uint256,t_uint256)"
      },
      {
        "astId": 13076,
        "contract": "contracts/payments/ticketing/RewardsManager.sol:RewardsManager",
        "label": "rewardPools",
        "offset": 0,
        "slot": "211",
        "type": "t_mapping(t_bytes32,t_struct(RewardPool)10804_storage)"
      }
    ],
    "types": {
      "t_address": {
        "encoding": "inplace",
        "label": "address",
        "numberOfBytes": "20"
      },
      "t_array(t_uint256)49_storage": {
        "base": "t_uint256",
        "encoding": "inplace",
        "label": "uint256[49]",
        "numberOfBytes": "1568"
      },
      "t_array(t_uint256)50_storage": {
        "base": "t_uint256",
        "encoding": "inplace",
        "label": "uint256[50]",
        "numberOfBytes": "1600"
      },
      "t_bool": {
        "encoding": "inplace",
        "label": "bool",
        "numberOfBytes": "1"
      },
      "t_bytes32": {
        "encoding": "inplace",
        "label": "bytes32",
        "numberOfBytes": "32"
      },
      "t_contract(EpochsManager)10429": {
        "encoding": "inplace",
        "label": "contract EpochsManager",
        "numberOfBytes": "20"
      },
      "t_contract(IERC20)1443": {
        "encoding": "inplace",
        "label": "contract IERC20",
        "numberOfBytes": "20"
      },
      "t_contract(StakingManager)15921": {
        "encoding": "inplace",
        "label": "contract StakingManager",
        "numberOfBytes": "20"
      },
      "t_int128": {
        "encoding": "inplace",
        "label": "int128",
        "numberOfBytes": "16"
      },
      "t_mapping(t_address,t_int128)": {
        "encoding": "mapping",
        "key": "t_address",
        "label": "mapping(address => int128)",
        "numberOfBytes": "32",
        "value": "t_int128"
      },
      "t_mapping(t_address,t_uint256)": {
        "encoding": "mapping",
        "key": "t_address",
        "label": "mapping(address => uint256)",
        "numberOfBytes": "32",
        "value": "t_uint256"
      },
      "t_mapping(t_bytes32,t_struct(LastClaim)10809_storage)": {
        "encoding": "mapping",
        "key": "t_bytes32",
        "label": "mapping(bytes32 => struct IRewardsManager.LastClaim)",
        "numberOfBytes": "32",
        "value": "t_struct(LastClaim)10809_storage"
      },
      "t_mapping(t_bytes32,t_struct(RewardPool)10804_storage)": {
        "encoding": "mapping",
        "key": "t_bytes32",
        "label": "mapping(bytes32 => struct IRewardsManager.RewardPool)",
        "numberOfBytes": "32",
        "value": "t_struct(RewardPool)10804_storage"
      },
      "t_mapping(t_bytes32,t_uint256)": {
        "encoding": "mapping",
        "key": "t_bytes32",
        "label": "mapping(bytes32 => uint256)",
        "numberOfBytes": "32",
        "value": "t_uint256"
      },
      "t_mapping(t_uint256,t_uint256)": {
        "encoding": "mapping",
        "key": "t_uint256",
        "label": "mapping(uint256 => uint256)",
        "numberOfBytes": "32",
        "value": "t_uint256"
      },
      "t_struct(LastClaim)10809_storage": {
        "encoding": "inplace",
        "label": "struct IRewardsManager.LastClaim",
        "members": [
          {
            "astId": 10806,
            "contract": "contracts/payments/ticketing/RewardsManager.sol:RewardsManager",
            "label": "claimedAt",
            "offset": 0,
            "slot": "0",
            "type": "t_uint256"
          },
          {
            "astId": 10808,
            "contract": "contracts/payments/ticketing/RewardsManager.sol:RewardsManager",
            "label": "stake",
            "offset": 0,
            "slot": "1",
            "type": "t_uint256"
          }
        ],
        "numberOfBytes": "64"
      },
      "t_struct(RewardPool)10804_storage": {
        "encoding": "inplace",
        "label": "struct IRewardsManager.RewardPool",
        "members": [
          {
            "astId": 10797,
            "contract": "contracts/payments/ticketing/RewardsManager.sol:RewardsManager",
            "label": "stakersRewardTotal",
            "offset": 0,
            "slot": "0",
            "type": "t_uint256"
          },
          {
            "astId": 10799,
            "contract": "contracts/payments/ticketing/RewardsManager.sol:RewardsManager",
            "label": "initializedAt",
            "offset": 0,
            "slot": "1",
            "type": "t_uint256"
          },
          {
            "astId": 10801,
            "contract": "contracts/payments/ticketing/RewardsManager.sol:RewardsManager",
            "label": "totalActiveStake",
            "offset": 0,
            "slot": "2",
            "type": "t_uint256"
          },
          {
            "astId": 10803,
            "contract": "contracts/payments/ticketing/RewardsManager.sol:RewardsManager",
            "label": "initialCumulativeRewardFactor",
            "offset": 0,
            "slot": "3",
            "type": "t_int128"
          }
        ],
        "numberOfBytes": "128"
      },
      "t_uint256": {
        "encoding": "inplace",
        "label": "uint256",
        "numberOfBytes": "32"
      },
      "t_uint8": {
        "encoding": "inplace",
        "label": "uint8",
        "numberOfBytes": "1"
      }
    }
  }
}