{
  "address": "0xbE7b816f0335aCaA1A65fFc33C0d6873FfB346BE",
  "abi": [
    {
      "inputs": [],
      "name": "NonceCannotBeReused",
      "type": "error"
    },
    {
      "inputs": [],
      "name": "OracleCannotBeZeroAddress",
      "type": "error"
    },
    {
      "inputs": [],
      "name": "PowerCannotBeZero",
      "type": "error"
    },
    {
      "inputs": [],
      "name": "UnauthorizedRegisterSeekerPowerCall",
      "type": "error"
    },
    {
      "anonymous": false,
      "inputs": [
        {
          "indexed": false,
          "internalType": "uint8",
          "name": "version",
          "type": "uint8"
        }
      ],
      "name": "Initialized",
      "type": "event"
    },
    {
      "anonymous": false,
      "inputs": [
        {
          "indexed": true,
          "internalType": "address",
          "name": "previousOwner",
          "type": "address"
        },
        {
          "indexed": true,
          "internalType": "address",
          "name": "newOwner",
          "type": "address"
        }
      ],
      "name": "OwnershipTransferStarted",
      "type": "event"
    },
    {
      "anonymous": false,
      "inputs": [
        {
          "indexed": true,
          "internalType": "address",
          "name": "previousOwner",
          "type": "address"
        },
        {
          "indexed": true,
          "internalType": "address",
          "name": "newOwner",
          "type": "address"
        }
      ],
      "name": "OwnershipTransferred",
      "type": "event"
    },
    {
      "anonymous": false,
      "inputs": [
        {
          "indexed": true,
          "internalType": "uint256",
          "name": "seekerId",
          "type": "uint256"
        },
        {
          "indexed": true,
          "internalType": "uint256",
          "name": "power",
          "type": "uint256"
        }
      ],
      "name": "SeekerPowerUpdated",
      "type": "event"
    },
    {
      "inputs": [],
      "name": "acceptOwnership",
      "outputs": [],
      "stateMutability": "nonpayable",
      "type": "function"
    },
    {
      "inputs": [
        {
          "internalType": "uint256",
          "name": "seekerId",
          "type": "uint256"
        },
        {
          "internalType": "uint256",
          "name": "power",
          "type": "uint256"
        },
        {
          "internalType": "bytes32",
          "name": "nonce",
          "type": "bytes32"
        }
      ],
      "name": "getProofMessage",
      "outputs": [
        {
          "internalType": "bytes",
          "name": "",
          "type": "bytes"
        }
      ],
      "stateMutability": "pure",
      "type": "function"
    },
    {
      "inputs": [
        {
          "internalType": "uint256",
          "name": "seekerId",
          "type": "uint256"
        }
      ],
      "name": "getSeekerPower",
      "outputs": [
        {
          "internalType": "uint256",
          "name": "",
          "type": "uint256"
        }
      ],
      "stateMutability": "view",
      "type": "function"
    },
    {
      "inputs": [
        {
          "internalType": "address",
          "name": "_oracle",
          "type": "address"
        }
      ],
      "name": "initialize",
      "outputs": [],
      "stateMutability": "nonpayable",
      "type": "function"
    },
    {
      "inputs": [],
      "name": "oracle",
      "outputs": [
        {
          "internalType": "address",
          "name": "",
          "type": "address"
        }
      ],
      "stateMutability": "view",
      "type": "function"
    },
    {
      "inputs": [],
      "name": "owner",
      "outputs": [
        {
          "internalType": "address",
          "name": "",
          "type": "address"
        }
      ],
      "stateMutability": "view",
      "type": "function"
    },
    {
      "inputs": [],
      "name": "pendingOwner",
      "outputs": [
        {
          "internalType": "address",
          "name": "",
          "type": "address"
        }
      ],
      "stateMutability": "view",
      "type": "function"
    },
    {
      "inputs": [
        {
          "internalType": "uint256",
          "name": "seekerId",
          "type": "uint256"
        },
        {
          "internalType": "uint256",
          "name": "power",
          "type": "uint256"
        },
        {
          "internalType": "bytes32",
          "name": "nonce",
          "type": "bytes32"
        },
        {
          "internalType": "bytes",
          "name": "proof",
          "type": "bytes"
        }
      ],
      "name": "registerSeekerPower",
      "outputs": [],
      "stateMutability": "nonpayable",
      "type": "function"
    },
    {
      "inputs": [
        {
          "internalType": "uint256",
          "name": "seekerId",
          "type": "uint256"
        },
        {
          "internalType": "uint256",
          "name": "power",
          "type": "uint256"
        }
      ],
      "name": "registerSeekerPowerRestricted",
      "outputs": [],
      "stateMutability": "nonpayable",
      "type": "function"
    },
    {
      "inputs": [],
      "name": "renounceOwnership",
      "outputs": [],
      "stateMutability": "nonpayable",
      "type": "function"
    },
    {
      "inputs": [
        {
          "internalType": "uint256",
          "name": "",
          "type": "uint256"
        }
      ],
      "name": "seekerPowers",
      "outputs": [
        {
          "internalType": "uint256",
          "name": "",
          "type": "uint256"
        }
      ],
      "stateMutability": "view",
      "type": "function"
    },
    {
      "inputs": [
        {
          "internalType": "address",
          "name": "_oracle",
          "type": "address"
        }
      ],
      "name": "setOracle",
      "outputs": [],
      "stateMutability": "nonpayable",
      "type": "function"
    },
    {
      "inputs": [
        {
          "internalType": "bytes4",
          "name": "interfaceId",
          "type": "bytes4"
        }
      ],
      "name": "supportsInterface",
      "outputs": [
        {
          "internalType": "bool",
          "name": "",
          "type": "bool"
        }
      ],
      "stateMutability": "view",
      "type": "function"
    },
    {
      "inputs": [
        {
          "internalType": "address",
          "name": "newOwner",
          "type": "address"
        }
      ],
      "name": "transferOwnership",
      "outputs": [],
      "stateMutability": "nonpayable",
      "type": "function"
    }
  ],
  "transactionHash": "0x8aa0912c671fd4fe3eb2595f677a7278289360473c6b160b220a54b6cf36a7c5",
  "args": [],
  "numDeployments": 1,
  "solcInputHash": "01c18e17110aebc106fdbcdf4fe92518",
  "bytecode": "0x608060405234801561001057600080fd5b50611159806100206000396000f3fe608060405234801561001057600080fd5b50600436106100ea5760003560e01c8063ac0350741161008c578063bbf311b311610066578063bbf311b31461020a578063c4d66de81461021d578063e30c397814610230578063f2fde38b1461024157600080fd5b8063ac035074146101b7578063b3b52807146101ca578063b955c567146101ea57600080fd5b806379ba5097116100c857806379ba5097146101605780637adbf973146101685780637dc0d1d01461017b5780638da5cb5b146101a657600080fd5b806301ffc9a7146100ef57806366a0896414610128578063715018a614610156575b600080fd5b6101136100fd366004610dec565b6001600160e01b03191663b83e19d760e01b1490565b60405190151581526020015b60405180910390f35b610148610136366004610e16565b60009081526099602052604090205490565b60405190815260200161011f565b61015e610254565b005b61015e610268565b61015e610176366004610e2f565b6102e7565b60975461018e906001600160a01b031681565b6040516001600160a01b03909116815260200161011f565b6033546001600160a01b031661018e565b61015e6101c5366004610e58565b610311565b6101dd6101d8366004610e7a565b61039c565b60405161011f9190610eca565b6101486101f8366004610e16565b60996020526000908152604090205481565b61015e610218366004610efd565b6103e5565b61015e61022b366004610e2f565b610541565b6065546001600160a01b031661018e565b61015e61024f366004610e2f565b610695565b61025c610706565b6102666000610760565b565b60655433906001600160a01b031681146102db5760405162461bcd60e51b815260206004820152602960248201527f4f776e61626c6532537465703a2063616c6c6572206973206e6f7420746865206044820152683732bb9037bbb732b960b91b60648201526084015b60405180910390fd5b6102e481610760565b50565b6102ef610706565b609780546001600160a01b0319166001600160a01b0392909216919091179055565b6097546001600160a01b0316331461033c5760405163441e21ad60e01b815260040160405180910390fd5b8060000361035d576040516345faa71360e01b815260040160405180910390fd5b60008281526099602052604080822083905551829184917f51e90e779fee3d4d807fb1ebd78153a738db91e236abd2e1372e8355ed6ed6f29190a35050565b60606103a784610779565b6103b084610779565b6103bb84602061080c565b6040516020016103cd93929190610f8a565b60405160208183030381529060405290509392505050565b6000838152609860205260409020546001600160a01b03161561041b57604051635989b1a960e11b815260040160405180910390fd5b8360000361043c576040516345faa71360e01b815260040160405180910390fd5b600061044986868661039c565b90506000610456826109b1565b609754604080516020601f88018190048102820181019092528681529293506001600160a01b03909116916104a89184919088908890819084018382808284376000920191909152506109ec92505050565b6001600160a01b0316146104cf5760405163441e21ad60e01b815260040160405180910390fd5b6000878152609960209081526040808320899055609754888452609890925280832080546001600160a01b0319166001600160a01b039093169290921790915551879189917f51e90e779fee3d4d807fb1ebd78153a738db91e236abd2e1372e8355ed6ed6f29190a350505050505050565b600054610100900460ff16158080156105615750600054600160ff909116105b8061057b5750303b15801561057b575060005460ff166001145b6105de5760405162461bcd60e51b815260206004820152602e60248201527f496e697469616c697a61626c653a20636f6e747261637420697320616c72656160448201526d191e481a5b9a5d1a585b1a5e995960921b60648201526084016102d2565b6000805460ff191660011790558015610601576000805461ff0019166101001790555b610609610a10565b6001600160a01b0382166106305760405163d6c62c9b60e01b815260040160405180910390fd5b609780546001600160a01b0319166001600160a01b0384161790558015610691576000805461ff0019169055604051600181527f7f26b83ff96e1f2b6a682f133852f6798a09c465da95921460cefb38474024989060200160405180910390a15b5050565b61069d610706565b606580546001600160a01b0383166001600160a01b031990911681179091556106ce6033546001600160a01b031690565b6001600160a01b03167f38d16b8cac22d99fc7c124b9cd0de2d3fa1faef420bfe791d8c362d765e2270060405160405180910390a350565b6033546001600160a01b031633146102665760405162461bcd60e51b815260206004820181905260248201527f4f776e61626c653a2063616c6c6572206973206e6f7420746865206f776e657260448201526064016102d2565b606580546001600160a01b03191690556102e481610a3f565b6060600061078683610a91565b600101905060008167ffffffffffffffff8111156107a6576107a6610fe4565b6040519080825280601f01601f1916602001820160405280156107d0576020820181803683370190505b5090508181016020015b600019016f181899199a1a9b1b9c1cb0b131b232b360811b600a86061a8153600a85049450846107da57509392505050565b6060600061081b836002611010565b610826906002611027565b67ffffffffffffffff81111561083e5761083e610fe4565b6040519080825280601f01601f191660200182016040528015610868576020820181803683370190505b509050600360fc1b816000815181106108835761088361103a565b60200101906001600160f81b031916908160001a905350600f60fb1b816001815181106108b2576108b261103a565b60200101906001600160f81b031916908160001a90535060006108d6846002611010565b6108e1906001611027565b90505b6001811115610959576f181899199a1a9b1b9c1cb0b131b232b360811b85600f16601081106109155761091561103a565b1a60f81b82828151811061092b5761092b61103a565b60200101906001600160f81b031916908160001a90535060049490941c9361095281611050565b90506108e4565b5083156109a85760405162461bcd60e51b815260206004820181905260248201527f537472696e67733a20686578206c656e67746820696e73756666696369656e7460448201526064016102d2565b90505b92915050565b60006109bd8251610779565b826040516020016109cf929190611067565b604051602081830303815290604052805190602001209050919050565b60008060006109fb8585610b69565b91509150610a0881610bae565b509392505050565b600054610100900460ff16610a375760405162461bcd60e51b81526004016102d2906110c2565b610266610cf8565b603380546001600160a01b038381166001600160a01b0319831681179093556040519116919082907f8be0079c531659141344cd1fd0a4f28419497f9722a3daafe3b4186f6b6457e090600090a35050565b60008072184f03e93ff9f4daa797ed6e38ed64bf6a1f0160401b8310610ad05772184f03e93ff9f4daa797ed6e38ed64bf6a1f0160401b830492506040015b6d04ee2d6d415b85acef81000000008310610afc576d04ee2d6d415b85acef8100000000830492506020015b662386f26fc100008310610b1a57662386f26fc10000830492506010015b6305f5e1008310610b32576305f5e100830492506008015b6127108310610b4657612710830492506004015b60648310610b58576064830492506002015b600a83106109ab5760010192915050565b6000808251604103610b9f5760208301516040840151606085015160001a610b9387828585610d28565b94509450505050610ba7565b506000905060025b9250929050565b6000816004811115610bc257610bc261110d565b03610bca5750565b6001816004811115610bde57610bde61110d565b03610c2b5760405162461bcd60e51b815260206004820152601860248201527f45434453413a20696e76616c6964207369676e6174757265000000000000000060448201526064016102d2565b6002816004811115610c3f57610c3f61110d565b03610c8c5760405162461bcd60e51b815260206004820152601f60248201527f45434453413a20696e76616c6964207369676e6174757265206c656e6774680060448201526064016102d2565b6003816004811115610ca057610ca061110d565b036102e45760405162461bcd60e51b815260206004820152602260248201527f45434453413a20696e76616c6964207369676e6174757265202773272076616c604482015261756560f01b60648201526084016102d2565b600054610100900460ff16610d1f5760405162461bcd60e51b81526004016102d2906110c2565b61026633610760565b6000807f7fffffffffffffffffffffffffffffff5d576e7357a4501ddfe92f46681b20a0831115610d5f5750600090506003610de3565b6040805160008082526020820180845289905260ff881692820192909252606081018690526080810185905260019060a0016020604051602081039080840390855afa158015610db3573d6000803e3d6000fd5b5050604051601f1901519150506001600160a01b038116610ddc57600060019250925050610de3565b9150600090505b94509492505050565b600060208284031215610dfe57600080fd5b81356001600160e01b0319811681146109a857600080fd5b600060208284031215610e2857600080fd5b5035919050565b600060208284031215610e4157600080fd5b81356001600160a01b03811681146109a857600080fd5b60008060408385031215610e6b57600080fd5b50508035926020909101359150565b600080600060608486031215610e8f57600080fd5b505081359360208301359350604090920135919050565b60005b83811015610ec1578181015183820152602001610ea9565b50506000910152565b6020815260008251806020840152610ee9816040850160208701610ea6565b601f01601f19169190910160400192915050565b600080600080600060808688031215610f1557600080fd5b853594506020860135935060408601359250606086013567ffffffffffffffff80821115610f4257600080fd5b818801915088601f830112610f5657600080fd5b813581811115610f6557600080fd5b896020828501011115610f7757600080fd5b9699959850939650602001949392505050565b60008451610f9c818460208901610ea6565b8083019050601d60f91b8082528551610fbc816001850160208a01610ea6565b60019201918201528351610fd7816002840160208801610ea6565b0160020195945050505050565b634e487b7160e01b600052604160045260246000fd5b634e487b7160e01b600052601160045260246000fd5b80820281158282048414176109ab576109ab610ffa565b808201808211156109ab576109ab610ffa565b634e487b7160e01b600052603260045260246000fd5b60008161105f5761105f610ffa565b506000190190565b7f19457468657265756d205369676e6564204d6573736167653a0a00000000000081526000835161109f81601a850160208801610ea6565b8351908301906110b681601a840160208801610ea6565b01601a01949350505050565b6020808252602b908201527f496e697469616c697a61626c653a20636f6e7472616374206973206e6f74206960408201526a6e697469616c697a696e6760a81b606082015260800190565b634e487b7160e01b600052602160045260246000fdfea264697066735822122023fd0c146013303592f5815e502af9a035049dc5c3d562610a8c9e6c7d9c9ccc64736f6c63430008120033",
  "devdoc": {
    "events": {
      "Initialized(uint8)": {
        "details": "Triggered when the contract has been initialized or reinitialized."
      }
    },
    "kind": "dev",
    "methods": {
      "acceptOwnership()": {
        "details": "The new owner accepts the ownership transfer."
      },
      "getProofMessage(uint256,uint256,bytes32)": {
        "params": {
          "power": "The power level of the Seeker.",
          "seekerId": "The id of the Seeker."
        }
      },
      "getSeekerPower(uint256)": {
        "params": {
          "seekerId": "The id of the Seeker."
        }
      },
      "owner()": {
        "details": "Returns the address of the current owner."
      },
      "pendingOwner()": {
        "details": "Returns the address of the pending owner."
      },
      "registerSeekerPower(uint256,uint256,bytes32,bytes)": {
        "params": {
          "power": "The power level of the Seeker.",
          "seekerId": "The id of the Seeker."
        }
      },
      "registerSeekerPowerRestricted(uint256,uint256)": {
        "params": {
          "power": "The power level of the Seeker.",
          "seekerId": "The id of the Seeker."
        }
      },
      "renounceOwnership()": {
        "details": "Leaves the contract without owner. It will not be possible to call `onlyOwner` functions. Can only be called by the current owner. NOTE: Renouncing ownership will leave the contract without an owner, thereby disabling any functionality that is only available to the owner."
      },
      "setOracle(address)": {
        "params": {
          "_oracle": "The oracle account."
        }
      },
      "transferOwnership(address)": {
        "details": "Starts the ownership transfer of the contract to a new account. Replaces the pending transfer if there is one. Can only be called by the current owner."
      }
    },
    "version": 1
  },
  "userdoc": {
    "kind": "user",
    "methods": {
      "getProofMessage(uint256,uint256,bytes32)": {
        "notice": "Constructs a proof message for the oracle to sign."
      },
      "getSeekerPower(uint256)": {
        "notice": "Retrieves a Seeker's stored power level."
      },
      "oracle()": {
        "notice": "The oracle account. This contract accepts any attestations of Seeker power that have been signed by this account."
      },
      "registerSeekerPower(uint256,uint256,bytes32,bytes)": {
        "notice": "Registers a Seeker's power level. Callable by any account but requires a proof signed by the oracle."
      },
      "registerSeekerPowerRestricted(uint256,uint256)": {
        "notice": "Registers a Seeker's power level. Only callable by the owner or the oracle account."
      },
      "seekerPowers(uint256)": {
        "notice": "Tracks the set of Seeker Power levels."
      },
      "setOracle(address)": {
        "notice": "Sets the oracle account."
      },
      "supportsInterface(bytes4)": {
        "notice": "Returns true if the contract implements the interface defined by `interfaceId` from ERC165."
      }
    },
    "notice": "Acts as a source of information for Seeker Powers. Allows setting a Seeker's power level via a restricted oracle account call. Seeker Power can also be set by any account if the correct Oracle signature proof is provided.",
    "version": 1
  },
  "storageLayout": {
    "storage": [
      {
        "astId": 244,
        "contract": "contracts/SeekerPowerOracle.sol:SeekerPowerOracle",
        "label": "_initialized",
        "offset": 0,
        "slot": "0",
        "type": "t_uint8"
      },
      {
        "astId": 247,
        "contract": "contracts/SeekerPowerOracle.sol:SeekerPowerOracle",
        "label": "_initializing",
        "offset": 1,
        "slot": "0",
        "type": "t_bool"
      },
      {
        "astId": 777,
        "contract": "contracts/SeekerPowerOracle.sol:SeekerPowerOracle",
        "label": "__gap",
        "offset": 0,
        "slot": "1",
        "type": "t_array(t_uint256)50_storage"
      },
      {
        "astId": 116,
        "contract": "contracts/SeekerPowerOracle.sol:SeekerPowerOracle",
        "label": "_owner",
        "offset": 0,
        "slot": "51",
        "type": "t_address"
      },
      {
        "astId": 236,
        "contract": "contracts/SeekerPowerOracle.sol:SeekerPowerOracle",
        "label": "__gap",
        "offset": 0,
        "slot": "52",
        "type": "t_array(t_uint256)49_storage"
      },
      {
        "astId": 25,
        "contract": "contracts/SeekerPowerOracle.sol:SeekerPowerOracle",
        "label": "_pendingOwner",
        "offset": 0,
        "slot": "101",
        "type": "t_address"
      },
      {
        "astId": 104,
        "contract": "contracts/SeekerPowerOracle.sol:SeekerPowerOracle",
        "label": "__gap",
        "offset": 0,
        "slot": "102",
        "type": "t_array(t_uint256)49_storage"
      },
      {
        "astId": 10633,
        "contract": "contracts/SeekerPowerOracle.sol:SeekerPowerOracle",
        "label": "oracle",
        "offset": 0,
        "slot": "151",
        "type": "t_address"
      },
      {
        "astId": 10638,
        "contract": "contracts/SeekerPowerOracle.sol:SeekerPowerOracle",
        "label": "proofNonces",
        "offset": 0,
        "slot": "152",
        "type": "t_mapping(t_bytes32,t_address)"
      },
      {
        "astId": 10643,
        "contract": "contracts/SeekerPowerOracle.sol:SeekerPowerOracle",
        "label": "seekerPowers",
        "offset": 0,
        "slot": "153",
        "type": "t_mapping(t_uint256,t_uint256)"
      }
    ],
    "types": {
      "t_address": {
        "encoding": "inplace",
        "label": "address",
        "numberOfBytes": "20"
      },
      "t_array(t_uint256)49_storage": {
        "base": "t_uint256",
        "encoding": "inplace",
        "label": "uint256[49]",
        "numberOfBytes": "1568"
      },
      "t_array(t_uint256)50_storage": {
        "base": "t_uint256",
        "encoding": "inplace",
        "label": "uint256[50]",
        "numberOfBytes": "1600"
      },
      "t_bool": {
        "encoding": "inplace",
        "label": "bool",
        "numberOfBytes": "1"
      },
      "t_bytes32": {
        "encoding": "inplace",
        "label": "bytes32",
        "numberOfBytes": "32"
      },
      "t_mapping(t_bytes32,t_address)": {
        "encoding": "mapping",
        "key": "t_bytes32",
        "label": "mapping(bytes32 => address)",
        "numberOfBytes": "32",
        "value": "t_address"
      },
      "t_mapping(t_uint256,t_uint256)": {
        "encoding": "mapping",
        "key": "t_uint256",
        "label": "mapping(uint256 => uint256)",
        "numberOfBytes": "32",
        "value": "t_uint256"
      },
      "t_uint256": {
        "encoding": "inplace",
        "label": "uint256",
        "numberOfBytes": "32"
      },
      "t_uint8": {
        "encoding": "inplace",
        "label": "uint8",
        "numberOfBytes": "1"
      }
    }
  }
}