{
  "address": "0x8185e90E424116c67D8429Be71006941679E08bB",
  "abi": [
    {
      "inputs": [],
      "name": "AccountCannotBeZeroAddress",
      "type": "error"
    },
    {
      "inputs": [],
      "name": "ContractNameCannotBeEmpty",
      "type": "error"
    },
    {
      "inputs": [],
      "name": "EscrowAmountCannotBeZero",
      "type": "error"
    },
    {
      "inputs": [],
      "name": "InterfaceIdCannotBeZeroBytes",
      "type": "error"
    },
    {
      "inputs": [],
      "name": "InvalidReceiverSignature",
      "type": "error"
    },
    {
      "inputs": [],
      "name": "InvalidReceiverSigningPermission",
      "type": "error"
    },
    {
      "inputs": [],
      "name": "InvalidSenderSignature",
      "type": "error"
    },
    {
      "inputs": [],
      "name": "InvalidSenderSigningPermission",
      "type": "error"
    },
    {
      "inputs": [
        {
          "internalType": "address",
          "name": "receiver",
          "type": "address"
        }
      ],
      "name": "MissingFuturepassAccount",
      "type": "error"
    },
    {
      "inputs": [],
      "name": "NoEsrowAndPenalty",
      "type": "error"
    },
    {
      "inputs": [],
      "name": "PenaltyAmountCannotBeZero",
      "type": "error"
    },
    {
      "inputs": [],
      "name": "RedeemerCommitMismatch",
      "type": "error"
    },
    {
      "inputs": [
        {
          "internalType": "uint256",
          "name": "epochId",
          "type": "uint256"
        }
      ],
      "name": "RedeemerMustHaveJoinedEpoch",
      "type": "error"
    },
    {
      "inputs": [
        {
          "internalType": "string",
          "name": "name",
          "type": "string"
        }
      ],
      "name": "TargetContractCannotBeZeroAddress",
      "type": "error"
    },
    {
      "inputs": [
        {
          "internalType": "string",
          "name": "name",
          "type": "string"
        },
        {
          "internalType": "bytes4",
          "name": "interfaceId",
          "type": "bytes4"
        }
      ],
      "name": "TargetNotSupportInterface",
      "type": "error"
    },
    {
      "inputs": [],
      "name": "TicketAlreadyRedeemed",
      "type": "error"
    },
    {
      "inputs": [],
      "name": "TicketAlreadyUsed",
      "type": "error"
    },
    {
      "inputs": [],
      "name": "TicketCannotBeFromFutureBlock",
      "type": "error"
    },
    {
      "inputs": [],
      "name": "TicketEpochNotFound",
      "type": "error"
    },
    {
      "inputs": [],
      "name": "TicketNotCreatedInTheEpoch",
      "type": "error"
    },
    {
      "inputs": [],
      "name": "TicketNotWinning",
      "type": "error"
    },
    {
      "inputs": [],
      "name": "TicketReceiverCannotBeZeroAddress",
      "type": "error"
    },
    {
      "inputs": [],
      "name": "TicketRedeemerCannotBeZeroAddress",
      "type": "error"
    },
    {
      "inputs": [],
      "name": "TicketSenderCannotBeZeroAddress",
      "type": "error"
    },
    {
      "inputs": [],
      "name": "TokenCannotBeZeroAddress",
      "type": "error"
    },
    {
      "inputs": [],
      "name": "UnlockDurationCannotBeZero",
      "type": "error"
    },
    {
      "inputs": [],
      "name": "UnlockingInProcess",
      "type": "error"
    },
    {
      "inputs": [],
      "name": "UnlockingNotCompleted",
      "type": "error"
    },
    {
      "inputs": [],
      "name": "UnlockingNotInProcess",
      "type": "error"
    },
    {
      "anonymous": false,
      "inputs": [
        {
          "indexed": false,
          "internalType": "uint8",
          "name": "version",
          "type": "uint8"
        }
      ],
      "name": "Initialized",
      "type": "event"
    },
    {
      "anonymous": false,
      "inputs": [
        {
          "indexed": true,
          "internalType": "uint256",
          "name": "epochId",
          "type": "uint256"
        },
        {
          "indexed": true,
          "internalType": "address",
          "name": "redeemer",
          "type": "address"
        },
        {
          "indexed": true,
          "internalType": "address",
          "name": "sender",
          "type": "address"
        },
        {
          "indexed": false,
          "internalType": "address",
          "name": "receiver",
          "type": "address"
        },
        {
          "indexed": false,
          "internalType": "uint256",
          "name": "generationBlock",
          "type": "uint256"
        },
        {
          "indexed": false,
          "internalType": "uint256",
          "name": "amount",
          "type": "uint256"
        }
      ],
      "name": "MultiReceiverRedemption",
      "type": "event"
    },
    {
      "anonymous": false,
      "inputs": [
        {
          "indexed": true,
          "internalType": "address",
          "name": "previousOwner",
          "type": "address"
        },
        {
          "indexed": true,
          "internalType": "address",
          "name": "newOwner",
          "type": "address"
        }
      ],
      "name": "OwnershipTransferStarted",
      "type": "event"
    },
    {
      "anonymous": false,
      "inputs": [
        {
          "indexed": true,
          "internalType": "address",
          "name": "previousOwner",
          "type": "address"
        },
        {
          "indexed": true,
          "internalType": "address",
          "name": "newOwner",
          "type": "address"
        }
      ],
      "name": "OwnershipTransferred",
      "type": "event"
    },
    {
      "anonymous": false,
      "inputs": [
        {
          "indexed": true,
          "internalType": "uint256",
          "name": "epochId",
          "type": "uint256"
        },
        {
          "indexed": true,
          "internalType": "address",
          "name": "redeemer",
          "type": "address"
        },
        {
          "indexed": true,
          "internalType": "address",
          "name": "sender",
          "type": "address"
        },
        {
          "indexed": false,
          "internalType": "address",
          "name": "receiver",
          "type": "address"
        },
        {
          "indexed": false,
          "internalType": "uint256",
          "name": "generationBlock",
          "type": "uint256"
        },
        {
          "indexed": false,
          "internalType": "uint256",
          "name": "amount",
          "type": "uint256"
        }
      ],
      "name": "Redemption",
      "type": "event"
    },
    {
      "anonymous": false,
      "inputs": [
        {
          "indexed": false,
          "internalType": "address",
          "name": "sender",
          "type": "address"
        }
      ],
      "name": "SenderPenaltyBurnt",
      "type": "event"
    },
    {
      "anonymous": false,
      "inputs": [
        {
          "indexed": false,
          "internalType": "uint256",
          "name": "unlockDuration",
          "type": "uint256"
        }
      ],
      "name": "UnlockDurationUpdated",
      "type": "event"
    },
    {
      "inputs": [],
      "name": "_authorizedAccounts",
      "outputs": [
        {
          "internalType": "contract AuthorizedAccounts",
          "name": "",
          "type": "address"
        }
      ],
      "stateMutability": "view",
      "type": "function"
    },
    {
      "inputs": [],
      "name": "_directory",
      "outputs": [
        {
          "internalType": "contract Directory",
          "name": "",
          "type": "address"
        }
      ],
      "stateMutability": "view",
      "type": "function"
    },
    {
      "inputs": [],
      "name": "_epochsManager",
      "outputs": [
        {
          "internalType": "contract EpochsManager",
          "name": "",
          "type": "address"
        }
      ],
      "stateMutability": "view",
      "type": "function"
    },
    {
      "inputs": [],
      "name": "_futurepassRegistrar",
      "outputs": [
        {
          "internalType": "contract IFuturePassRegistrar",
          "name": "",
          "type": "address"
        }
      ],
      "stateMutability": "view",
      "type": "function"
    },
    {
      "inputs": [],
      "name": "_registries",
      "outputs": [
        {
          "internalType": "contract Registries",
          "name": "",
          "type": "address"
        }
      ],
      "stateMutability": "view",
      "type": "function"
    },
    {
      "inputs": [],
      "name": "_rewardsManager",
      "outputs": [
        {
          "internalType": "contract RewardsManager",
          "name": "",
          "type": "address"
        }
      ],
      "stateMutability": "view",
      "type": "function"
    },
    {
      "inputs": [],
      "name": "_stakingManager",
      "outputs": [
        {
          "internalType": "contract StakingManager",
          "name": "",
          "type": "address"
        }
      ],
      "stateMutability": "view",
      "type": "function"
    },
    {
      "inputs": [],
      "name": "_token",
      "outputs": [
        {
          "internalType": "contract IERC20",
          "name": "",
          "type": "address"
        }
      ],
      "stateMutability": "view",
      "type": "function"
    },
    {
      "inputs": [],
      "name": "acceptOwnership",
      "outputs": [],
      "stateMutability": "nonpayable",
      "type": "function"
    },
    {
      "inputs": [
        {
          "internalType": "uint256",
          "name": "epochId",
          "type": "uint256"
        },
        {
          "internalType": "uint256",
          "name": "generationBlock",
          "type": "uint256"
        }
      ],
      "name": "calculateWinningProbability",
      "outputs": [
        {
          "internalType": "uint128",
          "name": "",
          "type": "uint128"
        }
      ],
      "stateMutability": "view",
      "type": "function"
    },
    {
      "inputs": [
        {
          "internalType": "uint256",
          "name": "generationBlock",
          "type": "uint256"
        },
        {
          "internalType": "uint256",
          "name": "rand",
          "type": "uint256"
        }
      ],
      "name": "createCommit",
      "outputs": [
        {
          "internalType": "bytes32",
          "name": "",
          "type": "bytes32"
        }
      ],
      "stateMutability": "pure",
      "type": "function"
    },
    {
      "inputs": [
        {
          "internalType": "uint256",
          "name": "amount",
          "type": "uint256"
        },
        {
          "internalType": "address",
          "name": "account",
          "type": "address"
        }
      ],
      "name": "depositEscrow",
      "outputs": [],
      "stateMutability": "nonpayable",
      "type": "function"
    },
    {
      "inputs": [
        {
          "internalType": "uint256",
          "name": "amount",
          "type": "uint256"
        },
        {
          "internalType": "address",
          "name": "account",
          "type": "address"
        }
      ],
      "name": "depositPenalty",
      "outputs": [],
      "stateMutability": "nonpayable",
      "type": "function"
    },
    {
      "inputs": [
        {
          "internalType": "address",
          "name": "",
          "type": "address"
        }
      ],
      "name": "deposits",
      "outputs": [
        {
          "internalType": "uint256",
          "name": "escrow",
          "type": "uint256"
        },
        {
          "internalType": "uint256",
          "name": "penalty",
          "type": "uint256"
        },
        {
          "internalType": "uint256",
          "name": "unlockAt",
          "type": "uint256"
        }
      ],
      "stateMutability": "view",
      "type": "function"
    },
    {
      "inputs": [
        {
          "components": [
            {
              "internalType": "uint256",
              "name": "epochId",
              "type": "uint256"
            },
            {
              "components": [
                {
                  "internalType": "address",
                  "name": "main",
                  "type": "address"
                },
                {
                  "internalType": "address",
                  "name": "delegated",
                  "type": "address"
                }
              ],
              "internalType": "struct ISyloTicketing.User",
              "name": "sender",
              "type": "tuple"
            },
            {
              "internalType": "address",
              "name": "redeemer",
              "type": "address"
            },
            {
              "internalType": "uint256",
              "name": "generationBlock",
              "type": "uint256"
            },
            {
              "internalType": "bytes32",
              "name": "redeemerCommit",
              "type": "bytes32"
            }
          ],
          "internalType": "struct ISyloTicketing.MultiReceiverTicket",
          "name": "ticket",
          "type": "tuple"
        }
      ],
      "name": "getMultiReceiverTicketHash",
      "outputs": [
        {
          "internalType": "bytes32",
          "name": "",
          "type": "bytes32"
        }
      ],
      "stateMutability": "pure",
      "type": "function"
    },
    {
      "inputs": [
        {
          "components": [
            {
              "internalType": "uint256",
              "name": "epochId",
              "type": "uint256"
            },
            {
              "components": [
                {
                  "internalType": "address",
                  "name": "main",
                  "type": "address"
                },
                {
                  "internalType": "address",
                  "name": "delegated",
                  "type": "address"
                }
              ],
              "internalType": "struct ISyloTicketing.User",
              "name": "sender",
              "type": "tuple"
            },
            {
              "components": [
                {
                  "internalType": "address",
                  "name": "main",
                  "type": "address"
                },
                {
                  "internalType": "address",
                  "name": "delegated",
                  "type": "address"
                }
              ],
              "internalType": "struct ISyloTicketing.User",
              "name": "receiver",
              "type": "tuple"
            },
            {
              "internalType": "address",
              "name": "redeemer",
              "type": "address"
            },
            {
              "internalType": "uint256",
              "name": "generationBlock",
              "type": "uint256"
            },
            {
              "internalType": "bytes32",
              "name": "redeemerCommit",
              "type": "bytes32"
            }
          ],
          "internalType": "struct ISyloTicketing.Ticket",
          "name": "ticket",
          "type": "tuple"
        }
      ],
      "name": "getTicketHash",
      "outputs": [
        {
          "internalType": "bytes32",
          "name": "",
          "type": "bytes32"
        }
      ],
      "stateMutability": "pure",
      "type": "function"
    },
    {
      "inputs": [
        {
          "internalType": "contract IERC20",
          "name": "token",
          "type": "address"
        },
        {
          "internalType": "contract Registries",
          "name": "registries",
          "type": "address"
        },
        {
          "internalType": "contract StakingManager",
          "name": "stakingManager",
          "type": "address"
        },
        {
          "internalType": "contract Directory",
          "name": "directory",
          "type": "address"
        },
        {
          "internalType": "contract EpochsManager",
          "name": "epochsManager",
          "type": "address"
        },
        {
          "internalType": "contract RewardsManager",
          "name": "rewardsManager",
          "type": "address"
        },
        {
          "internalType": "contract AuthorizedAccounts",
          "name": "authorizedAccounts",
          "type": "address"
        },
        {
          "internalType": "contract IFuturePassRegistrar",
          "name": "futurepassRegistrar",
          "type": "address"
        },
        {
          "internalType": "uint256",
          "name": "_unlockDuration",
          "type": "uint256"
        }
      ],
      "name": "initialize",
      "outputs": [],
      "stateMutability": "nonpayable",
      "type": "function"
    },
    {
      "inputs": [
        {
          "internalType": "bytes",
          "name": "senderSig",
          "type": "bytes"
        },
        {
          "internalType": "bytes",
          "name": "receiverSig",
          "type": "bytes"
        },
        {
          "internalType": "uint256",
          "name": "epochId",
          "type": "uint256"
        },
        {
          "internalType": "uint256",
          "name": "generationBlock",
          "type": "uint256"
        },
        {
          "internalType": "uint256",
          "name": "redeemerRand",
          "type": "uint256"
        }
      ],
      "name": "isWinningTicket",
      "outputs": [
        {
          "internalType": "bool",
          "name": "",
          "type": "bool"
        }
      ],
      "stateMutability": "view",
      "type": "function"
    },
    {
      "inputs": [],
      "name": "lockDeposits",
      "outputs": [],
      "stateMutability": "nonpayable",
      "type": "function"
    },
    {
      "inputs": [],
      "name": "owner",
      "outputs": [
        {
          "internalType": "address",
          "name": "",
          "type": "address"
        }
      ],
      "stateMutability": "view",
      "type": "function"
    },
    {
      "inputs": [],
      "name": "pendingOwner",
      "outputs": [
        {
          "internalType": "address",
          "name": "",
          "type": "address"
        }
      ],
      "stateMutability": "view",
      "type": "function"
    },
    {
      "inputs": [
        {
          "components": [
            {
              "internalType": "uint256",
              "name": "epochId",
              "type": "uint256"
            },
            {
              "components": [
                {
                  "internalType": "address",
                  "name": "main",
                  "type": "address"
                },
                {
                  "internalType": "address",
                  "name": "delegated",
                  "type": "address"
                }
              ],
              "internalType": "struct ISyloTicketing.User",
              "name": "sender",
              "type": "tuple"
            },
            {
              "components": [
                {
                  "internalType": "address",
                  "name": "main",
                  "type": "address"
                },
                {
                  "internalType": "address",
                  "name": "delegated",
                  "type": "address"
                }
              ],
              "internalType": "struct ISyloTicketing.User",
              "name": "receiver",
              "type": "tuple"
            },
            {
              "internalType": "address",
              "name": "redeemer",
              "type": "address"
            },
            {
              "internalType": "uint256",
              "name": "generationBlock",
              "type": "uint256"
            },
            {
              "internalType": "bytes32",
              "name": "redeemerCommit",
              "type": "bytes32"
            }
          ],
          "internalType": "struct ISyloTicketing.Ticket",
          "name": "ticket",
          "type": "tuple"
        },
        {
          "internalType": "uint256",
          "name": "redeemerRand",
          "type": "uint256"
        },
        {
          "internalType": "bytes",
          "name": "senderSig",
          "type": "bytes"
        },
        {
          "internalType": "bytes",
          "name": "receiverSig",
          "type": "bytes"
        }
      ],
      "name": "redeem",
      "outputs": [],
      "stateMutability": "nonpayable",
      "type": "function"
    },
    {
      "inputs": [
        {
          "components": [
            {
              "internalType": "uint256",
              "name": "epochId",
              "type": "uint256"
            },
            {
              "components": [
                {
                  "internalType": "address",
                  "name": "main",
                  "type": "address"
                },
                {
                  "internalType": "address",
                  "name": "delegated",
                  "type": "address"
                }
              ],
              "internalType": "struct ISyloTicketing.User",
              "name": "sender",
              "type": "tuple"
            },
            {
              "internalType": "address",
              "name": "redeemer",
              "type": "address"
            },
            {
              "internalType": "uint256",
              "name": "generationBlock",
              "type": "uint256"
            },
            {
              "internalType": "bytes32",
              "name": "redeemerCommit",
              "type": "bytes32"
            }
          ],
          "internalType": "struct ISyloTicketing.MultiReceiverTicket",
          "name": "ticket",
          "type": "tuple"
        },
        {
          "internalType": "uint256",
          "name": "redeemerRand",
          "type": "uint256"
        },
        {
          "components": [
            {
              "internalType": "address",
              "name": "main",
              "type": "address"
            },
            {
              "internalType": "address",
              "name": "delegated",
              "type": "address"
            }
          ],
          "internalType": "struct ISyloTicketing.User",
          "name": "receiver",
          "type": "tuple"
        },
        {
          "internalType": "bytes",
          "name": "senderSig",
          "type": "bytes"
        },
        {
          "internalType": "bytes",
          "name": "receiverSig",
          "type": "bytes"
        }
      ],
      "name": "redeemMultiReceiver",
      "outputs": [],
      "stateMutability": "nonpayable",
      "type": "function"
    },
    {
      "inputs": [],
      "name": "renounceOwnership",
      "outputs": [],
      "stateMutability": "nonpayable",
      "type": "function"
    },
    {
      "inputs": [
        {
          "components": [
            {
              "internalType": "uint256",
              "name": "epochId",
              "type": "uint256"
            },
            {
              "components": [
                {
                  "internalType": "address",
                  "name": "main",
                  "type": "address"
                },
                {
                  "internalType": "address",
                  "name": "delegated",
                  "type": "address"
                }
              ],
              "internalType": "struct ISyloTicketing.User",
              "name": "sender",
              "type": "tuple"
            },
            {
              "internalType": "address",
              "name": "redeemer",
              "type": "address"
            },
            {
              "internalType": "uint256",
              "name": "generationBlock",
              "type": "uint256"
            },
            {
              "internalType": "bytes32",
              "name": "redeemerCommit",
              "type": "bytes32"
            }
          ],
          "internalType": "struct ISyloTicketing.MultiReceiverTicket",
          "name": "ticket",
          "type": "tuple"
        },
        {
          "components": [
            {
              "internalType": "address",
              "name": "main",
              "type": "address"
            },
            {
              "internalType": "address",
              "name": "delegated",
              "type": "address"
            }
          ],
          "internalType": "struct ISyloTicketing.User",
          "name": "receiver",
          "type": "tuple"
        },
        {
          "internalType": "uint256",
          "name": "redeemerRand",
          "type": "uint256"
        },
        {
          "internalType": "bytes",
          "name": "senderSig",
          "type": "bytes"
        },
        {
          "internalType": "bytes",
          "name": "receiverSig",
          "type": "bytes"
        }
      ],
      "name": "requireValidWinningMultiReceiverTicket",
      "outputs": [
        {
          "internalType": "bytes32",
          "name": "ticketHash",
          "type": "bytes32"
        },
        {
          "internalType": "bytes32",
          "name": "ticketReceiverHash",
          "type": "bytes32"
        }
      ],
      "stateMutability": "view",
      "type": "function"
    },
    {
      "inputs": [
        {
          "components": [
            {
              "internalType": "uint256",
              "name": "epochId",
              "type": "uint256"
            },
            {
              "components": [
                {
                  "internalType": "address",
                  "name": "main",
                  "type": "address"
                },
                {
                  "internalType": "address",
                  "name": "delegated",
                  "type": "address"
                }
              ],
              "internalType": "struct ISyloTicketing.User",
              "name": "sender",
              "type": "tuple"
            },
            {
              "components": [
                {
                  "internalType": "address",
                  "name": "main",
                  "type": "address"
                },
                {
                  "internalType": "address",
                  "name": "delegated",
                  "type": "address"
                }
              ],
              "internalType": "struct ISyloTicketing.User",
              "name": "receiver",
              "type": "tuple"
            },
            {
              "internalType": "address",
              "name": "redeemer",
              "type": "address"
            },
            {
              "internalType": "uint256",
              "name": "generationBlock",
              "type": "uint256"
            },
            {
              "internalType": "bytes32",
              "name": "redeemerCommit",
              "type": "bytes32"
            }
          ],
          "internalType": "struct ISyloTicketing.Ticket",
          "name": "ticket",
          "type": "tuple"
        },
        {
          "internalType": "uint256",
          "name": "redeemerRand",
          "type": "uint256"
        },
        {
          "internalType": "bytes",
          "name": "senderSig",
          "type": "bytes"
        },
        {
          "internalType": "bytes",
          "name": "receiverSig",
          "type": "bytes"
        }
      ],
      "name": "requireValidWinningTicket",
      "outputs": [
        {
          "internalType": "bytes32",
          "name": "ticketHash",
          "type": "bytes32"
        }
      ],
      "stateMutability": "view",
      "type": "function"
    },
    {
      "inputs": [
        {
          "internalType": "uint256",
          "name": "_unlockDuration",
          "type": "uint256"
        }
      ],
      "name": "setUnlockDuration",
      "outputs": [],
      "stateMutability": "nonpayable",
      "type": "function"
    },
    {
      "inputs": [
        {
          "internalType": "bytes4",
          "name": "interfaceId",
          "type": "bytes4"
        }
      ],
      "name": "supportsInterface",
      "outputs": [
        {
          "internalType": "bool",
          "name": "",
          "type": "bool"
        }
      ],
      "stateMutability": "view",
      "type": "function"
    },
    {
      "inputs": [
        {
          "internalType": "address",
          "name": "newOwner",
          "type": "address"
        }
      ],
      "name": "transferOwnership",
      "outputs": [],
      "stateMutability": "nonpayable",
      "type": "function"
    },
    {
      "inputs": [],
      "name": "unlockDeposits",
      "outputs": [
        {
          "internalType": "uint256",
          "name": "",
          "type": "uint256"
        }
      ],
      "stateMutability": "nonpayable",
      "type": "function"
    },
    {
      "inputs": [],
      "name": "unlockDuration",
      "outputs": [
        {
          "internalType": "uint256",
          "name": "",
          "type": "uint256"
        }
      ],
      "stateMutability": "view",
      "type": "function"
    },
    {
      "inputs": [
        {
          "internalType": "bytes32",
          "name": "",
          "type": "bytes32"
        }
      ],
      "name": "usedTickets",
      "outputs": [
        {
          "internalType": "bool",
          "name": "",
          "type": "bool"
        }
      ],
      "stateMutability": "view",
      "type": "function"
    },
    {
      "inputs": [],
      "name": "withdraw",
      "outputs": [],
      "stateMutability": "nonpayable",
      "type": "function"
    },
    {
      "inputs": [
        {
          "internalType": "address",
          "name": "account",
          "type": "address"
        }
      ],
      "name": "withdrawTo",
      "outputs": [],
      "stateMutability": "nonpayable",
      "type": "function"
    }
  ],
  "transactionHash": "0x4ddfa0a931e5d92a7b37ba275747c2fb753d2dfd84681de938574fc1cc7d1936",
  "args": [],
  "numDeployments": 1,
  "solcInputHash": "76c1e1f3445d6d518cb33f614f9922c9",
  "bytecode": "0x608060405234801561001057600080fd5b50612fc5806100206000396000f3fe608060405234801561001057600080fd5b50600436106102065760003560e01c80638a1fcd601161011a578063cdba7342116100ad578063eb6d17891161007c578063eb6d178914610478578063ebd807861461048b578063ecd0c0c31461049e578063f2fde38b146104b1578063fc7e286d146104c457600080fd5b8063cdba734214610439578063d088a2311461044c578063dd90076914610454578063e30c39781461046757600080fd5b8063b24651c4116100e9578063b24651c4146103ed578063c3b6f72614610400578063c70f1a8c14610413578063caf3b7fd1461042657600080fd5b80638a1fcd60146103ad5780638da5cb5b146103b6578063a40b209f146103c7578063ac908b6e146103da57600080fd5b806343c8d8a21161019d57806372b0d90c1161016c57806372b0d90c1461036457806378a9c63d1461037757806379ba50971461038a5780637d6babb4146103925780637ddc62c11461039a57600080fd5b806343c8d8a2146102fe57806359a515ba1461031157806367653e5514610334578063715018a61461035c57600080fd5b8063295ca02d116101d9578063295ca02d146102975780632c4ab445146102b8578063344dd6e4146102e35780633ccfd60b146102f657600080fd5b806301ffc9a71461020b5780630ab2502214610244578063169e1ca81461026f5780631f4c747e14610284575b600080fd5b61022f610219366004612580565b6001600160e01b03191663567cd4c960e11b1490565b60405190151581526020015b60405180910390f35b609c54610257906001600160a01b031681565b6040516001600160a01b03909116815260200161023b565b61028261027d3660046125bf565b61050e565b005b609e54610257906001600160a01b031681565b6102aa6102a5366004612713565b6105bd565b60405190815260200161023b565b6102cb6102c636600461272f565b61062e565b6040516001600160801b03909116815260200161023b565b6102826102f1366004612751565b610786565b610282610ab6565b61028261030c36600461285e565b610ac1565b61022f61031f366004612905565b60a16020526000908152604090205460ff1681565b61034761034236600461291e565b610c65565b6040805192835260208301919091520161023b565b61028261105e565b610282610372366004612979565b611070565b610282610385366004612996565b611134565b6102826112d4565b6102aa61134e565b609b54610257906001600160a01b031681565b6102aa609f5481565b6033546001600160a01b0316610257565b6102aa6103d5366004612abf565b6113c9565b6102aa6103e8366004612b09565b611684565b609854610257906001600160a01b031681565b609954610257906001600160a01b031681565b609a54610257906001600160a01b031681565b609d54610257906001600160a01b031681565b6102826104473660046125bf565b6116ec565b61028261179c565b610282610462366004612905565b6117da565b6065546001600160a01b0316610257565b6102aa61048636600461272f565b61183e565b61022f610499366004612bb3565b611890565b609754610257906001600160a01b031681565b6102826104bf366004612979565b6118ee565b6104f36104d2366004612979565b60a06020526000908152604090208054600182015460029092015490919083565b6040805193845260208401929092529082015260600161023b565b8160000361052f5760405163adfd6eb360e01b815260040160405180910390fd5b6001600160a01b03811661055657604051633423ddb360e11b815260040160405180910390fd5b6001600160a01b038116600090815260a06020526040902060028101541561059157604051631c98f45d60e01b815260040160405180910390fd5b805461059e908490612c48565b81556097546105b8906001600160a01b031633308661195f565b505050565b805160208083015151604080850151606080870151608088015184519687019790975293811b6001600160601b0319908116938601939093521b1660548301526068820152608881019190915260009060a8015b604051602081830303815290604052805190602001209050919050565b609c54604051635e05e35d60e11b81526004810184905260009182916001600160a01b039091169063bc0bc6ba9060240161012060405180830381865afa15801561067d573d6000803e3d6000fd5b505050506040513d601f19601f820116820180604052508101906106a19190612c8b565b80519091506000036106c65760405163a756193360e01b815260040160405180910390fd5b80518310806106e85750600081604001511180156106e8575080604001518310155b15610706576040516339e9ad8d60e11b815260040160405180910390fd5b60006107128443612d20565b9050816101000151811061072b57600092505050610780565b600061073f8360c0015184608001516119d0565b9050600083610100015183836107559190612d33565b61075f9190612d4a565b905061076a81611a00565b8460c001516107799190612d6c565b9450505050505b92915050565b600054610100900460ff16158080156107a65750600054600160ff909116105b806107c05750303b1580156107c0575060005460ff166001145b6108285760405162461bcd60e51b815260206004820152602e60248201527f496e697469616c697a61626c653a20636f6e747261637420697320616c72656160448201526d191e481a5b9a5d1a585b1a5e995960921b60648201526084015b60405180910390fd5b6000805460ff19166001179055801561084b576000805461ff0019166101001790555b6001600160a01b038a1661087257604051635f5d339960e01b815260040160405180910390fd5b6108a66040518060400160405280600a8152602001695265676973747269657360b01b8152508a637ccc541d60e11b611a6d565b6108de6040518060400160405280600e81526020016d29ba30b5b4b733a6b0b730b3b2b960911b815250896303e0261b60e41b611a6d565b610911604051806040016040528060098152602001684469726563746f727960b81b81525088638a5d64cd60e01b611a6d565b6109486040518060400160405280600d81526020016c22b837b1b439a6b0b730b3b2b960991b8152508763078a0a4b60e41b611a6d565b6109806040518060400160405280600e81526020016d2932bbb0b93239a6b0b730b3b2b960911b81525086631ed895ad60e11b611a6d565b6109bc60405180604001604052806012815260200171417574686f72697a65644163636f756e747360701b815250856337e592f160e21b611a6d565b816000036109dd57604051632d8ef94560e11b815260040160405180910390fd5b6109e5611b71565b609780546001600160a01b03199081166001600160a01b038d8116919091179092556098805482168c84161790556099805482168b8416179055609a805482168a8416179055609c80548216898416179055609b80548216888416179055609d80548216878416179055609e8054909116918516919091179055609f8290558015610aaa576000805461ff0019169055604051600181527f7f26b83ff96e1f2b6a682f133852f6798a09c465da95921460cefb38474024989060200160405180910390a15b50505050505050505050565b610abf33611070565b565b609c54604051635e05e35d60e11b8152883560048201526000916001600160a01b03169063bc0bc6ba9060240161012060405180830381865afa158015610b0c573d6000803e3d6000fd5b505050506040513d601f19601f82011682018060405250810190610b309190612c8b565b90504388608001351115610b5a576040516001623a160d60e21b0319815260040160405180910390fd5b6000610b79610b6e368b90038b018b612713565b888a89898989610c65565b600081815260a160205260408120805460ff19166001179055609a5491935091506001600160a01b0316631bdcc9ad8b35610bba60808e0160608f01612979565b6040516001600160e01b031960e085901b16815260048101929092526001600160a01b03166024820152604401602060405180830381865afa158015610c04573d6000803e3d6000fd5b505050506040513d601f19601f82011682018060405250810190610c289190612d93565b905080600003610c4e57604051637f6cbf1960e11b81528a35600482015260240161081f565b610aaa838b610c6060208c018c612979565b611ba0565b60208701515160009081906001600160a01b0316610c965760405163091e31fd60e31b815260040160405180910390fd5b6000610ca560208a018a612979565b6001600160a01b031603610ccc57604051635ff51db760e11b815260040160405180910390fd5b60408901516001600160a01b0316610cf75760405163cab78a2360e01b815260040160405180910390fd5b609e546000906001600160a01b0316634dde5a44610d1860208c018c612979565b6040516001600160e01b031960e084901b1681526001600160a01b039091166004820152602401602060405180830381865afa158015610d5c573d6000803e3d6000fd5b505050506040513d601f19601f82011682018060405250810190610d809190612dac565b90506001600160a01b038116610dc257610d9d60208a018a612979565b60405163149948a160e31b81526001600160a01b03909116600482015260240161081f565b610dcb8a6105bd565b92508281604051602001610df692919091825260601b6001600160601b031916602082015260340190565b60408051601f198184030181529181528151602092830120600081815260a190935291205490925060ff1615610e3f576040516301faedd760e61b815260040160405180910390fd5b8960800151610e528b606001518a61183e565b14610e705760405163bfec4b7960e01b815260040160405180910390fd5b610e828a602001518b60600151611c44565b610e9f57604051632616fe7d60e11b815260040160405180910390fd5b610ebb610eb1368b90038b018b612dc9565b8b60600151611c44565b610ed8576040516354c4763f60e01b815260040160405180910390fd5b610f1e8a6020015188888080601f016020809104026020016040519081016040528093929190818152602001838380828437600092019190915250889250611ce4915050565b610f3b576040516319ad5a6d60e21b815260040160405180910390fd5b610f8b610f4d368b90038b018b612dc9565b86868080601f016020809104026020016040519081016040528093929190818152602001838380828437600092019190915250889250611ce4915050565b610fa857604051639bce429160e01b815260040160405180910390fd5b61103487878080601f01602080910402602001604051908101604052809392919081815260200183838082843760009201919091525050604080516020601f8b018190048102820181019092528981529250899150889081908401838280828437600081840152601f19601f820116905080830192505050505050508c600001518d606001518c611890565b61105157604051630554a83160e31b815260040160405180910390fd5b5097509795505050505050565b611066611d62565b610abf6000611dbc565b33600090815260a0602052604081206040805160608101825282548152600183015460208201526002909201549082018190529091506000036110c65760405163065bea4960e21b815260040160405180910390fd5b438160400151106110ea576040516366af725560e01b815260040160405180910390fd5b602081015181516000916110fd91612c48565b33600090815260a06020526040812081815560018101829055600201556097549091506105b8906001600160a01b03168483611dd5565b609c54604051635e05e35d60e11b8152873560048201526000916001600160a01b03169063bc0bc6ba9060240161012060405180830381865afa15801561117f573d6000803e3d6000fd5b505050506040513d601f19601f820116820180604052508101906111a39190612c8b565b9050438760c0013511156111cd576040516001623a160d60e21b0319815260040160405180910390fd5b60006111eb6111e1368a90038a018a612b09565b88888888886113c9565b600081815260a160205260408120805460ff19166001179055609a54919250906001600160a01b0316631bdcc9ad8a3561122b60c08d0160a08e01612979565b6040516001600160e01b031960e085901b16815260048101929092526001600160a01b03166024820152604401602060405180830381865afa158015611275573d6000803e3d6000fd5b505050506040513d601f19601f820116820180604052508101906112999190612d93565b9050806000036112bf57604051637f6cbf1960e11b81528935600482015260240161081f565b6112c9838a611e05565b505050505050505050565b60655433906001600160a01b031681146113425760405162461bcd60e51b815260206004820152602960248201527f4f776e61626c6532537465703a2063616c6c6572206973206e6f7420746865206044820152683732bb9037bbb732b960b91b606482015260840161081f565b61134b81611dbc565b50565b33600090815260a060205260408120805415801561136e57506001810154155b1561138c57604051639c4e744360e01b815260040160405180910390fd5b6002810154156113af57604051631c98f45d60e01b815260040160405180910390fd5b609f546113bc9043612c48565b6002909101819055919050565b6020860151516000906001600160a01b03166113f85760405163091e31fd60e31b815260040160405180910390fd5b6040870151516001600160a01b031661142457604051635ff51db760e11b815260040160405180910390fd5b60608701516001600160a01b031661144f5760405163cab78a2360e01b815260040160405180910390fd5b61145887611684565b600081815260a1602052604090205490915060ff161561148b576040516301faedd760e61b815260040160405180910390fd5b8660a0015161149e88608001518861183e565b146114bc5760405163bfec4b7960e01b815260040160405180910390fd5b6114ce87602001518860800151611c44565b6114eb57604051632616fe7d60e11b815260040160405180910390fd5b6114fd87604001518860800151611c44565b61151a576040516354c4763f60e01b815260040160405180910390fd5b611560876020015186868080601f016020809104026020016040519081016040528093929190818152602001838380828437600092019190915250869250611ce4915050565b61157d576040516319ad5a6d60e21b815260040160405180910390fd5b6115c3876040015184848080601f016020809104026020016040519081016040528093929190818152602001838380828437600092019190915250869250611ce4915050565b6115e057604051639bce429160e01b815260040160405180910390fd5b61165d85858080601f01602080910402602001604051908101604052809392919081815260200183838082843760009201919091525050604080516020601f89018190048102820181019092528781529250879150869081908401838280828437600092019190915250508b5160808d015190925090508a611890565b61167a57604051630554a83160e31b815260040160405180910390fd5b9695505050505050565b80516020808301515160408085015151606080870151608088015160a089015185519788019890985294821b6001600160601b03199081169487019490945291811b831660548601521b166068830152607c820152609c81019190915260009060bc01610611565b8160000361170d5760405163ea50132f60e01b815260040160405180910390fd5b6001600160a01b03811661173457604051633423ddb360e11b815260040160405180910390fd5b6001600160a01b038116600090815260a06020526040902060028101541561176f57604051631c98f45d60e01b815260040160405180910390fd5b82816001015461177f9190612c48565b60018201556097546105b8906001600160a01b031633308661195f565b33600090815260a06020526040812060028101549091036117d05760405163065bea4960e21b815260040160405180910390fd5b6000600290910155565b6117e2611d62565b8060000361180357604051632d8ef94560e11b815260040160405180910390fd5b609f8190556040518181527fbf6423edafc706e6ae214d98c485a52f610ee2f23148b43d546af3f8834c21b39060200160405180910390a150565b604080516020810184905290810182905260009060600160408051601f198184030181528282528051602091820120908301520160405160208183030381529060405280519060200120905092915050565b60008061189d858561062e565b6001600160801b03169050600081608083901b179050808888866040516020016118c993929190612e09565b60408051601f1981840301815291905280516020909101201098975050505050505050565b6118f6611d62565b606580546001600160a01b0383166001600160a01b031990911681179091556119276033546001600160a01b031690565b6001600160a01b03167f38d16b8cac22d99fc7c124b9cd0de2d3fa1faef420bfe791d8c362d765e2270060405160405180910390a350565b6040516001600160a01b03808516602483015283166044820152606481018290526119ca9085906323b872dd60e01b906084015b60408051601f198184030181529190526020810180516001600160e01b03166001600160e01b031990931692909217909152611eb6565b50505050565b6000620186a06119ef63ffffffff84166001600160801b038616612d33565b6119f99190612d4a565b9392505050565b60006001600160801b03821115611a695760405162461bcd60e51b815260206004820152602760248201527f53616665436173743a2076616c756520646f65736e27742066697420696e20316044820152663238206269747360c81b606482015260840161081f565b5090565b8251600003611a8f5760405163d1fc12f760e01b815260040160405180910390fd5b6001600160a01b038216611ab6578260405161f56160eb1b815260040161081f9190612e6a565b6001600160e01b03198116611ade5760405163308c995160e01b815260040160405180910390fd5b6040516301ffc9a760e01b81526001600160e01b0319821660048201526001600160a01b038316906301ffc9a790602401602060405180830381865afa158015611b2c573d6000803e3d6000fd5b505050506040513d601f19601f82011682018060405250810190611b509190612e7d565b6105b8578281604051633f8ccd3b60e21b815260040161081f929190612e9f565b600054610100900460ff16611b985760405162461bcd60e51b815260040161081f90612eca565b610abf611f8b565b6000611bbf8460208501611bba6080870160608801612979565b611fbb565b9050611bd16040840160208501612979565b6001600160a01b0316611bea6080850160608601612979565b604080516001600160a01b038681168252608088013560208301529181018590529116908535907f04562f4c0ee54b401e8fcaafa7daa175963d9bb7a07297633221dc08b1d57b0f9060600160405180910390a450505050565b60208201516000906001600160a01b0316611c6157506001610780565b609d548351602085015160405163c346893b60e01b81526000936001600160a01b03169263c346893b92611c9b9286908990600401612f2b565b602060405180830381865afa158015611cb8573d6000803e3d6000fd5b505050506040513d601f19601f82011682018060405250810190611cdc9190612e7d565b949350505050565b602083015160009081906001600160a01b031615611d0757506020840151611d0b565b5083515b7f19457468657265756d205369676e6564204d6573736167653a0a3332000000006000908152601c849052603c90206001600160a01b038216611d4e8287612098565b6001600160a01b0316149695505050505050565b6033546001600160a01b03163314610abf5760405162461bcd60e51b815260206004820181905260248201527f4f776e61626c653a2063616c6c6572206973206e6f7420746865206f776e6572604482015260640161081f565b606580546001600160a01b031916905561134b816120bc565b6040516001600160a01b0383166024820152604481018290526105b890849063a9059cbb60e01b90606401611993565b6000611e1f8360208401611bba60c0860160a08701612979565b9050611e316040830160208401612979565b6001600160a01b0316611e4a60c0840160a08501612979565b6001600160a01b031683357f7d274bdf94856b1ec309b530c7bf991ea808eb7782afef762e28cce446178907611e866080870160608801612979565b604080516001600160a01b03909216825260c08801356020830152810186905260600160405180910390a4505050565b6000611f0b826040518060400160405280602081526020017f5361666545524332303a206c6f772d6c6576656c2063616c6c206661696c6564815250856001600160a01b031661210e9092919063ffffffff16565b9050805160001480611f2c575080806020019051810190611f2c9190612e7d565b6105b85760405162461bcd60e51b815260206004820152602a60248201527f5361666545524332303a204552433230206f7065726174696f6e20646964206e6044820152691bdd081cdd58d8d9595960b21b606482015260840161081f565b600054610100900460ff16611fb25760405162461bcd60e51b815260040161081f90612eca565b610abf33611dbc565b600080611fe8611fce6020860186612979565b6001600160a01b0316600090815260a06020526040902090565b9050600081600001548660a00151111561207e5750805461200a84838361211d565b6097546001830154612029916001600160a01b03169061dead90611dd5565b600060018301557f2ec87e1ff3f5b311fa539eb48a387afc2e82e11ac9919086426f16c1b35cfe8561205e6020870187612979565b6040516001600160a01b03909116815260200160405180910390a161208f565b5060a085015161208f84838361211d565b95945050505050565b60008060006120a785856121b4565b915091506120b4816121f9565b509392505050565b603380546001600160a01b038381166001600160a01b0319831681179093556040519116919082907f8be0079c531659141344cd1fd0a4f28419497f9722a3daafe3b4186f6b6457e090600090a35050565b6060611cdc8484600085612343565b815461212a908290612d20565b8255609754609b54612149916001600160a01b03908116911683611dd5565b609b546040516340768fd360e01b81526001600160a01b03858116600483015260248201849052909116906340768fd390604401600060405180830381600087803b15801561219757600080fd5b505af11580156121ab573d6000803e3d6000fd5b50505050505050565b60008082516041036121ea5760208301516040840151606085015160001a6121de8782858561241e565b945094505050506121f2565b506000905060025b9250929050565b600081600481111561220d5761220d612f15565b036122155750565b600181600481111561222957612229612f15565b036122765760405162461bcd60e51b815260206004820152601860248201527f45434453413a20696e76616c6964207369676e61747572650000000000000000604482015260640161081f565b600281600481111561228a5761228a612f15565b036122d75760405162461bcd60e51b815260206004820152601f60248201527f45434453413a20696e76616c6964207369676e6174757265206c656e67746800604482015260640161081f565b60038160048111156122eb576122eb612f15565b0361134b5760405162461bcd60e51b815260206004820152602260248201527f45434453413a20696e76616c6964207369676e6174757265202773272076616c604482015261756560f01b606482015260840161081f565b6060824710156123a45760405162461bcd60e51b815260206004820152602660248201527f416464726573733a20696e73756666696369656e742062616c616e636520666f6044820152651c8818d85b1b60d21b606482015260840161081f565b600080866001600160a01b031685876040516123c09190612f73565b60006040518083038185875af1925050503d80600081146123fd576040519150601f19603f3d011682016040523d82523d6000602084013e612402565b606091505b5091509150612413878383876124e2565b979650505050505050565b6000807f7fffffffffffffffffffffffffffffff5d576e7357a4501ddfe92f46681b20a083111561245557506000905060036124d9565b6040805160008082526020820180845289905260ff881692820192909252606081018690526080810185905260019060a0016020604051602081039080840390855afa1580156124a9573d6000803e3d6000fd5b5050604051601f1901519150506001600160a01b0381166124d2576000600192509250506124d9565b9150600090505b94509492505050565b6060831561255157825160000361254a576001600160a01b0385163b61254a5760405162461bcd60e51b815260206004820152601d60248201527f416464726573733a2063616c6c20746f206e6f6e2d636f6e7472616374000000604482015260640161081f565b5081611cdc565b611cdc83838151156125665781518083602001fd5b8060405162461bcd60e51b815260040161081f9190612e6a565b60006020828403121561259257600080fd5b81356001600160e01b0319811681146119f957600080fd5b6001600160a01b038116811461134b57600080fd5b600080604083850312156125d257600080fd5b8235915060208301356125e4816125aa565b809150509250929050565b634e487b7160e01b600052604160045260246000fd5b604051610120810167ffffffffffffffff81118282101715612629576126296125ef565b60405290565b60006040828403121561264157600080fd5b6040516040810181811067ffffffffffffffff82111715612664576126646125ef565b6040529050808235612675816125aa565b81526020830135612685816125aa565b6020919091015292915050565b600060c082840312156126a457600080fd5b60405160a0810181811067ffffffffffffffff821117156126c7576126c76125ef565b604052823581529050806126de846020850161262f565b602082015260608301356126f1816125aa565b806040830152506080830135606082015260a083013560808201525092915050565b600060c0828403121561272557600080fd5b6119f98383612692565b6000806040838503121561274257600080fd5b50508035926020909101359150565b60008060008060008060008060006101208a8c03121561277057600080fd5b893561277b816125aa565b985060208a013561278b816125aa565b975060408a013561279b816125aa565b965060608a01356127ab816125aa565b955060808a01356127bb816125aa565b945060a08a01356127cb816125aa565b935060c08a01356127db816125aa565b925060e08a01356127eb816125aa565b809250506101008a013590509295985092959850929598565b60006040828403121561281657600080fd5b50919050565b60008083601f84011261282e57600080fd5b50813567ffffffffffffffff81111561284657600080fd5b6020830191508360208285010111156121f257600080fd5b600080600080600080600087890361016081121561287b57600080fd5b60c081121561288957600080fd5b5087965060c088013595506128a18960e08a01612804565b945061012088013567ffffffffffffffff808211156128bf57600080fd5b6128cb8b838c0161281c565b90965094506101408a01359150808211156128e557600080fd5b506128f28a828b0161281c565b989b979a50959850939692959293505050565b60006020828403121561291757600080fd5b5035919050565b6000806000806000806000610160888a03121561293a57600080fd5b6129448989612692565b96506129538960c08a01612804565b9550610100880135945061012088013567ffffffffffffffff808211156128bf57600080fd5b60006020828403121561298b57600080fd5b81356119f9816125aa565b6000806000806000808688036101608112156129b157600080fd5b610100808212156129c157600080fd5b88975087013595505061012086013567ffffffffffffffff808211156129e657600080fd5b6129f28a838b0161281c565b9096509450610140890135915080821115612a0c57600080fd5b50612a1989828a0161281c565b979a9699509497509295939492505050565b60006101008284031215612a3e57600080fd5b60405160c0810181811067ffffffffffffffff82111715612a6157612a616125ef565b60405282358152905080612a78846020850161262f565b6020820152612a8a846060850161262f565b604082015260a0830135612a9d816125aa565b8060608301525060c0830135608082015260e083013560a08201525092915050565b6000806000806000806101608789031215612ad957600080fd5b612ae38888612a2b565b9550610100870135945061012087013567ffffffffffffffff808211156129e657600080fd5b60006101008284031215612b1c57600080fd5b6119f98383612a2b565b600082601f830112612b3757600080fd5b813567ffffffffffffffff80821115612b5257612b526125ef565b604051601f8301601f19908116603f01168101908282118183101715612b7a57612b7a6125ef565b81604052838152866020858801011115612b9357600080fd5b836020870160208301376000602085830101528094505050505092915050565b600080600080600060a08688031215612bcb57600080fd5b853567ffffffffffffffff80821115612be357600080fd5b612bef89838a01612b26565b96506020880135915080821115612c0557600080fd5b50612c1288828901612b26565b959895975050505060408401359360608101359360809091013592509050565b634e487b7160e01b600052601160045260246000fd5b8082018082111561078057610780612c32565b805163ffffffff81168114612c6f57600080fd5b919050565b80516001600160801b0381168114612c6f57600080fd5b60006101208284031215612c9e57600080fd5b612ca6612605565b825181526020830151602082015260408301516040820152612cca60608401612c5b565b6060820152612cdb60808401612c5b565b608082015260a083015160a0820152612cf660c08401612c74565b60c0820152612d0760e08401612c74565b60e0820152610100928301519281019290925250919050565b8181038181111561078057610780612c32565b808202811582820484141761078057610780612c32565b600082612d6757634e487b7160e01b600052601260045260246000fd5b500490565b6001600160801b03828116828216039080821115612d8c57612d8c612c32565b5092915050565b600060208284031215612da557600080fd5b5051919050565b600060208284031215612dbe57600080fd5b81516119f9816125aa565b600060408284031215612ddb57600080fd5b6119f9838361262f565b60005b83811015612e00578181015183820152602001612de8565b50506000910152565b60008451612e1b818460208901612de5565b845190830190612e2f818360208901612de5565b01928352505060200192915050565b60008151808452612e56816020860160208601612de5565b601f01601f19169290920160200192915050565b6020815260006119f96020830184612e3e565b600060208284031215612e8f57600080fd5b815180151581146119f957600080fd5b604081526000612eb26040830185612e3e565b905063ffffffff60e01b831660208301529392505050565b6020808252602b908201527f496e697469616c697a61626c653a20636f6e7472616374206973206e6f74206960408201526a6e697469616c697a696e6760a81b606082015260800190565b634e487b7160e01b600052602160045260246000fd5b6001600160a01b038581168252841660208201526080810160018410612f6157634e487b7160e01b600052602160045260246000fd5b60408201939093526060015292915050565b60008251612f85818460208701612de5565b919091019291505056fea2646970667358221220df15c9ce639d482fafc3d321375e7ebc8cd7cfc4ec1c8617ea0c1d536d6c317e64736f6c63430008120033",
  "devdoc": {
    "events": {
      "Initialized(uint8)": {
        "details": "Triggered when the contract has been initialized or reinitialized."
      }
    },
    "kind": "dev",
    "methods": {
      "acceptOwnership()": {
        "details": "The new owner accepts the ownership transfer."
      },
      "calculateWinningProbability(uint256,uint256)": {
        "params": {
          "epochId": "The epochId of the ticket.",
          "generationBlock": "The generationBlock of the ticket."
        }
      },
      "depositEscrow(uint256,address)": {
        "params": {
          "account": "The address of the account holding the escrow.",
          "amount": "The amount in SOLO to add to the escrow."
        }
      },
      "depositPenalty(uint256,address)": {
        "params": {
          "account": "The address of the account holding the penalty.",
          "amount": "The amount in SOLO to add to the escrow."
        }
      },
      "getMultiReceiverTicketHash((uint256,(address,address),address,uint256,bytes32))": {
        "returns": {
          "_0": "A byte-array representing the hash."
        }
      },
      "getTicketHash((uint256,(address,address),(address,address),address,uint256,bytes32))": {
        "returns": {
          "_0": "A byte-array representing the hash."
        }
      },
      "isWinningTicket(bytes,bytes,uint256,uint256,uint256)": {
        "params": {
          "epochId": "The epochId of the ticket.",
          "generationBlock": "The generationBlock of the ticket.",
          "receiverSig": "The signature of the receiver of the ticket.",
          "redeemerRand": "The redeemer random value, generated by the Node prior to performing the event relay.",
          "senderSig": "The signature of the sender of the ticket."
        },
        "returns": {
          "_0": "True if a ticket is a winner."
        }
      },
      "owner()": {
        "details": "Returns the address of the current owner."
      },
      "pendingOwner()": {
        "details": "Returns the address of the pending owner."
      },
      "redeem((uint256,(address,address),(address,address),address,uint256,bytes32),uint256,bytes,bytes)": {
        "params": {
          "receiverSig": "The signature of the redeemer of the ticket.",
          "redeemerRand": "The redeemer random value, generated by the Node prior to performing the event relay.",
          "senderSig": "The signature of the sender of the ticket.",
          "ticket": "The ticket issued by the sender."
        }
      },
      "redeemMultiReceiver((uint256,(address,address),address,uint256,bytes32),uint256,(address,address),bytes,bytes)": {
        "params": {
          "receiver": "A valid receiver of the the relay.",
          "receiverSig": "The signature of the redeemer of the ticket.",
          "redeemerRand": "The redeemer random value, generated by the Node prior to performing the event relay.",
          "senderSig": "The signature of the sender of the ticket.",
          "ticket": "The ticket issued by the sender."
        }
      },
      "renounceOwnership()": {
        "details": "Leaves the contract without owner. It will not be possible to call `onlyOwner` functions. Can only be called by the current owner. NOTE: Renouncing ownership will leave the contract without an owner, thereby disabling any functionality that is only available to the owner."
      },
      "requireValidWinningMultiReceiverTicket((uint256,(address,address),address,uint256,bytes32),(address,address),uint256,bytes,bytes)": {
        "params": {
          "receiver": "The receiver associated with the ticket.",
          "receiverSig": "The signature of the redeemer of the ticket.",
          "redeemerRand": "The redeemer random value, generated by the Node prior to performing the event relay.",
          "senderSig": "The signature of the sender of the ticket.",
          "ticket": "The ticket issued by the sender."
        }
      },
      "requireValidWinningTicket((uint256,(address,address),(address,address),address,uint256,bytes32),uint256,bytes,bytes)": {
        "params": {
          "receiverSig": "The signature of the redeemer of the ticket.",
          "redeemerRand": "The redeemer random value, generated by the Node prior to performing the event relay.",
          "senderSig": "The signature of the sender of the ticket.",
          "ticket": "The ticket issued by the sender."
        },
        "returns": {
          "ticketHash": "The hash of the ticket. Should match the hash generated by `getTicketHash`."
        }
      },
      "setUnlockDuration(uint256)": {
        "params": {
          "_unlockDuration": "The unlock duration in blocks."
        }
      },
      "transferOwnership(address)": {
        "details": "Starts the ownership transfer of the contract to a new account. Replaces the pending transfer if there is one. Can only be called by the current owner."
      },
      "withdrawTo(address)": {
        "params": {
          "account": "The address of the account the tokens should be transferred to."
        }
      }
    },
    "stateVariables": {
      "_epochsManager": {
        "details": "The ticketing parameters used when redeeming tickets will be read from this contract."
      }
    },
    "version": 1
  },
  "userdoc": {
    "kind": "user",
    "methods": {
      "_authorizedAccounts()": {
        "notice": "Sylo Authorized Accounts."
      },
      "_directory()": {
        "notice": "Sylo Directory contract "
      },
      "_epochsManager()": {
        "notice": "Sylo Epochs Manager."
      },
      "_futurepassRegistrar()": {
        "notice": "Futurepass Registrar Pre-compile."
      },
      "_registries()": {
        "notice": "Sylo Registries contract "
      },
      "_rewardsManager()": {
        "notice": "Rewards Manager contract "
      },
      "_stakingManager()": {
        "notice": "Sylo Staking Manager contract "
      },
      "_token()": {
        "notice": "ERC20 Sylo token contract."
      },
      "calculateWinningProbability(uint256,uint256)": {
        "notice": "This function calculates the probability of a ticket winning at the block that this function was called. A ticket's winning probability will decay every block since its issuance. The amount of decay will depend on the decay rate parameter of the epoch the ticket was generated in."
      },
      "depositEscrow(uint256,address)": {
        "notice": "Use this function to deposit funds into the escrow. This will fail if the deposit is currently being unlocked."
      },
      "depositPenalty(uint256,address)": {
        "notice": "Use this function to deposit funds into the penalty. This will fail if the deposit is currently being unlocked."
      },
      "deposits(address)": {
        "notice": "Mapping of user deposits "
      },
      "getMultiReceiverTicketHash((uint256,(address,address),address,uint256,bytes32))": {
        "notice": "Returns the hash of a multi receiver ticket. Takes all fields in a ticket as inputs to the hash, as well as a specific receiver."
      },
      "getTicketHash((uint256,(address,address),(address,address),address,uint256,bytes32))": {
        "notice": "Returns the hash of the ticket. Takes all fields in a ticket as inputs to the hash."
      },
      "isWinningTicket(bytes,bytes,uint256,uint256,uint256)": {
        "notice": "Use this function to check if a ticket is winning."
      },
      "lockDeposits()": {
        "notice": "Call this function to cancel any deposit that is in the unlocking process."
      },
      "redeem((uint256,(address,address),(address,address),address,uint256,bytes32),uint256,bytes,bytes)": {
        "notice": "Nodes should call this function on completing an event delivery. This function will fail if the ticket is invalid or if the ticket is not a winner. Clients should calculate if the ticket is a winner locally, but can also use the public view functions: `requireValidWinningTicket` and `isWinningTicket` to check that a ticket is winning."
      },
      "redeemMultiReceiver((uint256,(address,address),address,uint256,bytes32),uint256,(address,address),bytes,bytes)": {
        "notice": "Nodes should call this function on completing a one-to-many event delivery. This function will fail if the ticket is invalid or if the ticket is not a winner. Additionally, the specified receiver must have a valid futurepass account associated with it. Clients should calculate if the ticket is a winner locally, but can also use the public view functions: `requireValidWinningMultiReceiverTicket` and `isWinningTicket` to check that a ticket is winning."
      },
      "requireValidWinningMultiReceiverTicket((uint256,(address,address),address,uint256,bytes32),(address,address),uint256,bytes,bytes)": {
        "notice": "Call this function to check if a multi receiver ticket is valid and is a winning ticket. It will fail if the ticket is invalid or is not a winner. A ticket is invalid if:      - The sender, receiver or redeemer addresses are null      - The receiver does not have a valid futurepass account      - The ticket has already been redeemed.      - The secret random value of the redeemer does not match the commit        in the ticket.      - The signatures are invalid."
      },
      "requireValidWinningTicket((uint256,(address,address),(address,address),address,uint256,bytes32),uint256,bytes,bytes)": {
        "notice": "Call this function to check if a ticket is valid and is a winning ticket. It will fail if the ticket is invalid or is not a winner. A ticket is invalid if:      - The sender or redeemer addresses are null      - The ticket has already been redeemed.      - The secret random value of the sender does not match the commit        in the ticket.      - The signatures are invalid."
      },
      "setUnlockDuration(uint256)": {
        "notice": "Set the unlock duration for deposits. Only callable by the owner."
      },
      "supportsInterface(bytes4)": {
        "notice": "Returns true if the contract implements the interface defined by `interfaceId` from ERC165."
      },
      "unlockDeposits()": {
        "notice": "Call this function to begin unlocking deposits. This function will fail if no deposit exists, or if the unlock process has already begun."
      },
      "unlockDuration()": {
        "notice": "The number of blocks a user must wait after calling \"unlock\" before they can withdraw their funds."
      },
      "usedTickets(bytes32)": {
        "notice": "Mapping of ticket hashes, used to check if a ticket has been redeemed "
      },
      "withdraw()": {
        "notice": "Call this function once the unlock duration has elapsed in order to transfer the unlocked tokens to the caller's account."
      },
      "withdrawTo(address)": {
        "notice": "Call this function once the unlock duration has elapsed in order to transfer the unlocked tokens to the specified account."
      }
    },
    "notice": "The SyloTicketing contract manages the Probabilistic Micro-Payment Ticketing system that pays Nodes for providing the Event Relay service.",
    "version": 1
  },
  "storageLayout": {
    "storage": [
      {
        "astId": 244,
        "contract": "contracts/payments/SyloTicketing.sol:SyloTicketing",
        "label": "_initialized",
        "offset": 0,
        "slot": "0",
        "type": "t_uint8"
      },
      {
        "astId": 247,
        "contract": "contracts/payments/SyloTicketing.sol:SyloTicketing",
        "label": "_initializing",
        "offset": 1,
        "slot": "0",
        "type": "t_bool"
      },
      {
        "astId": 777,
        "contract": "contracts/payments/SyloTicketing.sol:SyloTicketing",
        "label": "__gap",
        "offset": 0,
        "slot": "1",
        "type": "t_array(t_uint256)50_storage"
      },
      {
        "astId": 116,
        "contract": "contracts/payments/SyloTicketing.sol:SyloTicketing",
        "label": "_owner",
        "offset": 0,
        "slot": "51",
        "type": "t_address"
      },
      {
        "astId": 236,
        "contract": "contracts/payments/SyloTicketing.sol:SyloTicketing",
        "label": "__gap",
        "offset": 0,
        "slot": "52",
        "type": "t_array(t_uint256)49_storage"
      },
      {
        "astId": 25,
        "contract": "contracts/payments/SyloTicketing.sol:SyloTicketing",
        "label": "_pendingOwner",
        "offset": 0,
        "slot": "101",
        "type": "t_address"
      },
      {
        "astId": 104,
        "contract": "contracts/payments/SyloTicketing.sol:SyloTicketing",
        "label": "__gap",
        "offset": 0,
        "slot": "102",
        "type": "t_array(t_uint256)49_storage"
      },
      {
        "astId": 11356,
        "contract": "contracts/payments/SyloTicketing.sol:SyloTicketing",
        "label": "_token",
        "offset": 0,
        "slot": "151",
        "type": "t_contract(IERC20)1443"
      },
      {
        "astId": 11360,
        "contract": "contracts/payments/SyloTicketing.sol:SyloTicketing",
        "label": "_registries",
        "offset": 0,
        "slot": "152",
        "type": "t_contract(Registries)9641"
      },
      {
        "astId": 11364,
        "contract": "contracts/payments/SyloTicketing.sol:SyloTicketing",
        "label": "_stakingManager",
        "offset": 0,
        "slot": "153",
        "type": "t_contract(StakingManager)15921"
      },
      {
        "astId": 11368,
        "contract": "contracts/payments/SyloTicketing.sol:SyloTicketing",
        "label": "_directory",
        "offset": 0,
        "slot": "154",
        "type": "t_contract(Directory)14978"
      },
      {
        "astId": 11372,
        "contract": "contracts/payments/SyloTicketing.sol:SyloTicketing",
        "label": "_rewardsManager",
        "offset": 0,
        "slot": "155",
        "type": "t_contract(RewardsManager)14142"
      },
      {
        "astId": 11376,
        "contract": "contracts/payments/SyloTicketing.sol:SyloTicketing",
        "label": "_epochsManager",
        "offset": 0,
        "slot": "156",
        "type": "t_contract(EpochsManager)10429"
      },
      {
        "astId": 11380,
        "contract": "contracts/payments/SyloTicketing.sol:SyloTicketing",
        "label": "_authorizedAccounts",
        "offset": 0,
        "slot": "157",
        "type": "t_contract(AuthorizedAccounts)9090"
      },
      {
        "astId": 11384,
        "contract": "contracts/payments/SyloTicketing.sol:SyloTicketing",
        "label": "_futurepassRegistrar",
        "offset": 0,
        "slot": "158",
        "type": "t_contract(IFuturePassRegistrar)10523"
      },
      {
        "astId": 11387,
        "contract": "contracts/payments/SyloTicketing.sol:SyloTicketing",
        "label": "unlockDuration",
        "offset": 0,
        "slot": "159",
        "type": "t_uint256"
      },
      {
        "astId": 11393,
        "contract": "contracts/payments/SyloTicketing.sol:SyloTicketing",
        "label": "deposits",
        "offset": 0,
        "slot": "160",
        "type": "t_mapping(t_address,t_struct(Deposit)10703_storage)"
      },
      {
        "astId": 11398,
        "contract": "contracts/payments/SyloTicketing.sol:SyloTicketing",
        "label": "usedTickets",
        "offset": 0,
        "slot": "161",
        "type": "t_mapping(t_bytes32,t_bool)"
      }
    ],
    "types": {
      "t_address": {
        "encoding": "inplace",
        "label": "address",
        "numberOfBytes": "20"
      },
      "t_array(t_uint256)49_storage": {
        "base": "t_uint256",
        "encoding": "inplace",
        "label": "uint256[49]",
        "numberOfBytes": "1568"
      },
      "t_array(t_uint256)50_storage": {
        "base": "t_uint256",
        "encoding": "inplace",
        "label": "uint256[50]",
        "numberOfBytes": "1600"
      },
      "t_bool": {
        "encoding": "inplace",
        "label": "bool",
        "numberOfBytes": "1"
      },
      "t_bytes32": {
        "encoding": "inplace",
        "label": "bytes32",
        "numberOfBytes": "32"
      },
      "t_contract(AuthorizedAccounts)9090": {
        "encoding": "inplace",
        "label": "contract AuthorizedAccounts",
        "numberOfBytes": "20"
      },
      "t_contract(Directory)14978": {
        "encoding": "inplace",
        "label": "contract Directory",
        "numberOfBytes": "20"
      },
      "t_contract(EpochsManager)10429": {
        "encoding": "inplace",
        "label": "contract EpochsManager",
        "numberOfBytes": "20"
      },
      "t_contract(IERC20)1443": {
        "encoding": "inplace",
        "label": "contract IERC20",
        "numberOfBytes": "20"
      },
      "t_contract(IFuturePassRegistrar)10523": {
        "encoding": "inplace",
        "label": "contract IFuturePassRegistrar",
        "numberOfBytes": "20"
      },
      "t_contract(Registries)9641": {
        "encoding": "inplace",
        "label": "contract Registries",
        "numberOfBytes": "20"
      },
      "t_contract(RewardsManager)14142": {
        "encoding": "inplace",
        "label": "contract RewardsManager",
        "numberOfBytes": "20"
      },
      "t_contract(StakingManager)15921": {
        "encoding": "inplace",
        "label": "contract StakingManager",
        "numberOfBytes": "20"
      },
      "t_mapping(t_address,t_struct(Deposit)10703_storage)": {
        "encoding": "mapping",
        "key": "t_address",
        "label": "mapping(address => struct ISyloTicketing.Deposit)",
        "numberOfBytes": "32",
        "value": "t_struct(Deposit)10703_storage"
      },
      "t_mapping(t_bytes32,t_bool)": {
        "encoding": "mapping",
        "key": "t_bytes32",
        "label": "mapping(bytes32 => bool)",
        "numberOfBytes": "32",
        "value": "t_bool"
      },
      "t_struct(Deposit)10703_storage": {
        "encoding": "inplace",
        "label": "struct ISyloTicketing.Deposit",
        "members": [
          {
            "astId": 10698,
            "contract": "contracts/payments/SyloTicketing.sol:SyloTicketing",
            "label": "escrow",
            "offset": 0,
            "slot": "0",
            "type": "t_uint256"
          },
          {
            "astId": 10700,
            "contract": "contracts/payments/SyloTicketing.sol:SyloTicketing",
            "label": "penalty",
            "offset": 0,
            "slot": "1",
            "type": "t_uint256"
          },
          {
            "astId": 10702,
            "contract": "contracts/payments/SyloTicketing.sol:SyloTicketing",
            "label": "unlockAt",
            "offset": 0,
            "slot": "2",
            "type": "t_uint256"
          }
        ],
        "numberOfBytes": "96"
      },
      "t_uint256": {
        "encoding": "inplace",
        "label": "uint256",
        "numberOfBytes": "32"
      },
      "t_uint8": {
        "encoding": "inplace",
        "label": "uint8",
        "numberOfBytes": "1"
      }
    }
  }
}