{
  "address": "0x038d2256cb40c25Bfa35bB28Ed7F5eb830256fD5",
  "abi": [
    {
      "inputs": [],
      "name": "FaceValueCannotBeZero",
      "type": "error"
    },
    {
      "inputs": [],
      "name": "TicketDurationCannotBeZero",
      "type": "error"
    },
    {
      "anonymous": false,
      "inputs": [
        {
          "indexed": false,
          "internalType": "uint128",
          "name": "baseLiveWinprob",
          "type": "uint128"
        }
      ],
      "name": "BaseLiveWinProbUpdated",
      "type": "event"
    },
    {
      "anonymous": false,
      "inputs": [
        {
          "indexed": false,
          "internalType": "uint32",
          "name": "decayRate",
          "type": "uint32"
        }
      ],
      "name": "DecayRateUpdated",
      "type": "event"
    },
    {
      "anonymous": false,
      "inputs": [
        {
          "indexed": false,
          "internalType": "uint128",
          "name": "expiredWinProb",
          "type": "uint128"
        }
      ],
      "name": "ExpiredWinProbUpdated",
      "type": "event"
    },
    {
      "anonymous": false,
      "inputs": [
        {
          "indexed": false,
          "internalType": "uint256",
          "name": "faceValue",
          "type": "uint256"
        }
      ],
      "name": "FaceValueUpdated",
      "type": "event"
    },
    {
      "anonymous": false,
      "inputs": [
        {
          "indexed": false,
          "internalType": "uint8",
          "name": "version",
          "type": "uint8"
        }
      ],
      "name": "Initialized",
      "type": "event"
    },
    {
      "anonymous": false,
      "inputs": [
        {
          "indexed": true,
          "internalType": "address",
          "name": "previousOwner",
          "type": "address"
        },
        {
          "indexed": true,
          "internalType": "address",
          "name": "newOwner",
          "type": "address"
        }
      ],
      "name": "OwnershipTransferStarted",
      "type": "event"
    },
    {
      "anonymous": false,
      "inputs": [
        {
          "indexed": true,
          "internalType": "address",
          "name": "previousOwner",
          "type": "address"
        },
        {
          "indexed": true,
          "internalType": "address",
          "name": "newOwner",
          "type": "address"
        }
      ],
      "name": "OwnershipTransferred",
      "type": "event"
    },
    {
      "anonymous": false,
      "inputs": [
        {
          "indexed": false,
          "internalType": "uint256",
          "name": "ticketDuration",
          "type": "uint256"
        }
      ],
      "name": "TicketDurationUpdated",
      "type": "event"
    },
    {
      "inputs": [],
      "name": "acceptOwnership",
      "outputs": [],
      "stateMutability": "nonpayable",
      "type": "function"
    },
    {
      "inputs": [],
      "name": "baseLiveWinProb",
      "outputs": [
        {
          "internalType": "uint128",
          "name": "",
          "type": "uint128"
        }
      ],
      "stateMutability": "view",
      "type": "function"
    },
    {
      "inputs": [],
      "name": "decayRate",
      "outputs": [
        {
          "internalType": "uint32",
          "name": "",
          "type": "uint32"
        }
      ],
      "stateMutability": "view",
      "type": "function"
    },
    {
      "inputs": [],
      "name": "expiredWinProb",
      "outputs": [
        {
          "internalType": "uint128",
          "name": "",
          "type": "uint128"
        }
      ],
      "stateMutability": "view",
      "type": "function"
    },
    {
      "inputs": [],
      "name": "faceValue",
      "outputs": [
        {
          "internalType": "uint256",
          "name": "",
          "type": "uint256"
        }
      ],
      "stateMutability": "view",
      "type": "function"
    },
    {
      "inputs": [],
      "name": "getTicketingParameters",
      "outputs": [
        {
          "internalType": "uint256",
          "name": "",
          "type": "uint256"
        },
        {
          "internalType": "uint128",
          "name": "",
          "type": "uint128"
        },
        {
          "internalType": "uint128",
          "name": "",
          "type": "uint128"
        },
        {
          "internalType": "uint256",
          "name": "",
          "type": "uint256"
        },
        {
          "internalType": "uint32",
          "name": "",
          "type": "uint32"
        }
      ],
      "stateMutability": "view",
      "type": "function"
    },
    {
      "inputs": [
        {
          "internalType": "uint256",
          "name": "_faceValue",
          "type": "uint256"
        },
        {
          "internalType": "uint128",
          "name": "_baseLiveWinProb",
          "type": "uint128"
        },
        {
          "internalType": "uint128",
          "name": "_expiredWinProb",
          "type": "uint128"
        },
        {
          "internalType": "uint32",
          "name": "_decayRate",
          "type": "uint32"
        },
        {
          "internalType": "uint256",
          "name": "_ticketDuration",
          "type": "uint256"
        }
      ],
      "name": "initialize",
      "outputs": [],
      "stateMutability": "nonpayable",
      "type": "function"
    },
    {
      "inputs": [],
      "name": "owner",
      "outputs": [
        {
          "internalType": "address",
          "name": "",
          "type": "address"
        }
      ],
      "stateMutability": "view",
      "type": "function"
    },
    {
      "inputs": [],
      "name": "pendingOwner",
      "outputs": [
        {
          "internalType": "address",
          "name": "",
          "type": "address"
        }
      ],
      "stateMutability": "view",
      "type": "function"
    },
    {
      "inputs": [],
      "name": "renounceOwnership",
      "outputs": [],
      "stateMutability": "nonpayable",
      "type": "function"
    },
    {
      "inputs": [
        {
          "internalType": "uint128",
          "name": "_baseLiveWinProb",
          "type": "uint128"
        }
      ],
      "name": "setBaseLiveWinProb",
      "outputs": [],
      "stateMutability": "nonpayable",
      "type": "function"
    },
    {
      "inputs": [
        {
          "internalType": "uint32",
          "name": "_decayRate",
          "type": "uint32"
        }
      ],
      "name": "setDecayRate",
      "outputs": [],
      "stateMutability": "nonpayable",
      "type": "function"
    },
    {
      "inputs": [
        {
          "internalType": "uint128",
          "name": "_expiredWinProb",
          "type": "uint128"
        }
      ],
      "name": "setExpiredWinProb",
      "outputs": [],
      "stateMutability": "nonpayable",
      "type": "function"
    },
    {
      "inputs": [
        {
          "internalType": "uint256",
          "name": "_faceValue",
          "type": "uint256"
        }
      ],
      "name": "setFaceValue",
      "outputs": [],
      "stateMutability": "nonpayable",
      "type": "function"
    },
    {
      "inputs": [
        {
          "internalType": "uint256",
          "name": "_ticketDuration",
          "type": "uint256"
        }
      ],
      "name": "setTicketDuration",
      "outputs": [],
      "stateMutability": "nonpayable",
      "type": "function"
    },
    {
      "inputs": [
        {
          "internalType": "bytes4",
          "name": "interfaceId",
          "type": "bytes4"
        }
      ],
      "name": "supportsInterface",
      "outputs": [
        {
          "internalType": "bool",
          "name": "",
          "type": "bool"
        }
      ],
      "stateMutability": "view",
      "type": "function"
    },
    {
      "inputs": [],
      "name": "ticketDuration",
      "outputs": [
        {
          "internalType": "uint256",
          "name": "",
          "type": "uint256"
        }
      ],
      "stateMutability": "view",
      "type": "function"
    },
    {
      "inputs": [
        {
          "internalType": "address",
          "name": "newOwner",
          "type": "address"
        }
      ],
      "name": "transferOwnership",
      "outputs": [],
      "stateMutability": "nonpayable",
      "type": "function"
    }
  ],
  "transactionHash": "0xa0b1f41e5a2a0e0a8bf4eb1d95664ec490913ee53b6c5be26e36b27a4fc8af3d",
  "args": [],
  "numDeployments": 1,
  "solcInputHash": "01c18e17110aebc106fdbcdf4fe92518",
  "bytecode": "0x608060405234801561001057600080fd5b50610a27806100206000396000f3fe608060405234801561001057600080fd5b50600436106101165760003560e01c8063a90a6027116100a2578063ce1b1d2411610071578063ce1b1d2414610260578063dedcebda146102ad578063e30c3978146102c0578063ef8032ef146102d1578063f2fde38b146102e457600080fd5b8063a90a6027146101e3578063a9c1f2f1146101f6578063bcbee5431461021b578063be8a151e1461024d57600080fd5b806387bcc0c5116100e957806387bcc0c51461017c5780638da5cb5b146101855780639e9ceeca146101aa578063a4990c31146101bd578063a8f19c14146101d057600080fd5b806301ffc9a71461011b57806344fd9caa14610153578063715018a61461016a57806379ba509714610174575b600080fd5b61013e610129366004610878565b6001600160e01b031916621d8a0b60e21b1490565b60405190151581526020015b60405180910390f35b61015c60975481565b60405190815260200161014a565b6101726102f7565b005b61017261030b565b61015c60995481565b6033546001600160a01b03165b6040516001600160a01b03909116815260200161014a565b6101726101b83660046108a9565b61038a565b6101726101cb3660046108f2565b6103ef565b6101726101de366004610947565b610580565b6101726101f1366004610947565b6105d6565b609a546102069063ffffffff1681565b60405163ffffffff909116815260200161014a565b60985461023590600160801b90046001600160801b031681565b6040516001600160801b03909116815260200161014a565b61017261025b366004610962565b610635565b609754609854609954609a54604080519485526001600160801b038085166020870152600160801b90940490931692840192909252606083015263ffffffff16608082015260a00161014a565b609854610235906001600160801b031681565b6065546001600160a01b0316610192565b6101726102df3660046108a9565b610685565b6101726102f236600461097d565b6106e3565b6102ff610754565b61030960006107ae565b565b60655433906001600160a01b0316811461037e5760405162461bcd60e51b815260206004820152602960248201527f4f776e61626c6532537465703a2063616c6c6572206973206e6f7420746865206044820152683732bb9037bbb732b960b91b60648201526084015b60405180910390fd5b610387816107ae565b50565b610392610754565b806000036103b357604051637422e0f760e01b815260040160405180910390fd5b60998190556040518181527f630561d0640d69f1caae7ef80c14ce15f4ce289e4e6079ddafd3fb1fabc2310b906020015b60405180910390a150565b600054610100900460ff161580801561040f5750600054600160ff909116105b806104295750303b158015610429575060005460ff166001145b61048c5760405162461bcd60e51b815260206004820152602e60248201527f496e697469616c697a61626c653a20636f6e747261637420697320616c72656160448201526d191e481a5b9a5d1a585b1a5e995960921b6064820152608401610375565b6000805460ff1916600117905580156104af576000805461ff0019166101001790555b856000036104d05760405163c1ac8e3d60e01b815260040160405180910390fd5b816000036104f157604051637422e0f760e01b815260040160405180910390fd5b6104f96107c7565b60978690556001600160801b03848116600160801b0290861617609855609a805463ffffffff851663ffffffff1990911617905560998290558015610578576000805461ff0019169055604051600181527f7f26b83ff96e1f2b6a682f133852f6798a09c465da95921460cefb38474024989060200160405180910390a15b505050505050565b610588610754565b609880546001600160801b03908116600160801b918416918202179091556040519081527fcea6d6aa1fc810e8098cd2197e9519b272b52e4cbfcd01fd82c6dd6cbe959924906020016103e4565b6105de610754565b609880546fffffffffffffffffffffffffffffffff19166001600160801b0383169081179091556040519081527fe10770a55eeb4e34b333c34a4399e1f50cdff2ce802e17ac9397488c7c830e8f906020016103e4565b61063d610754565b609a805463ffffffff191663ffffffff83169081179091556040519081527f921fcc05cd90a734956c8b8506293611565ff19723aa0a45457d08a7bc737901906020016103e4565b61068d610754565b806000036106ae5760405163c1ac8e3d60e01b815260040160405180910390fd5b60978190556040518181527fa4a7f18f5a3930835e81e675fe279a69bd4d37bae19f35cac4e978371d139544906020016103e4565b6106eb610754565b606580546001600160a01b0383166001600160a01b0319909116811790915561071c6033546001600160a01b031690565b6001600160a01b03167f38d16b8cac22d99fc7c124b9cd0de2d3fa1faef420bfe791d8c362d765e2270060405160405180910390a350565b6033546001600160a01b031633146103095760405162461bcd60e51b815260206004820181905260248201527f4f776e61626c653a2063616c6c6572206973206e6f7420746865206f776e65726044820152606401610375565b606580546001600160a01b0319169055610387816107f6565b600054610100900460ff166107ee5760405162461bcd60e51b8152600401610375906109a6565b610309610848565b603380546001600160a01b038381166001600160a01b0319831681179093556040519116919082907f8be0079c531659141344cd1fd0a4f28419497f9722a3daafe3b4186f6b6457e090600090a35050565b600054610100900460ff1661086f5760405162461bcd60e51b8152600401610375906109a6565b610309336107ae565b60006020828403121561088a57600080fd5b81356001600160e01b0319811681146108a257600080fd5b9392505050565b6000602082840312156108bb57600080fd5b5035919050565b80356001600160801b03811681146108d957600080fd5b919050565b803563ffffffff811681146108d957600080fd5b600080600080600060a0868803121561090a57600080fd5b8535945061091a602087016108c2565b9350610928604087016108c2565b9250610936606087016108de565b949793965091946080013592915050565b60006020828403121561095957600080fd5b6108a2826108c2565b60006020828403121561097457600080fd5b6108a2826108de565b60006020828403121561098f57600080fd5b81356001600160a01b03811681146108a257600080fd5b6020808252602b908201527f496e697469616c697a61626c653a20636f6e7472616374206973206e6f74206960408201526a6e697469616c697a696e6760a81b60608201526080019056fea2646970667358221220bc5906187cc33b3e6153e6423c18b4d508cc718da4ef365d5400cada3633a32364736f6c63430008120033",
  "devdoc": {
    "details": "Persists the parameters for the ticketing mechanism. This contract is read by the EpochManager. Extracting the parameters into another contract is necessary to avoid a cyclic dependency between the ticketing and epoch contracts.",
    "events": {
      "Initialized(uint8)": {
        "details": "Triggered when the contract has been initialized or reinitialized."
      }
    },
    "kind": "dev",
    "methods": {
      "acceptOwnership()": {
        "details": "The new owner accepts the ownership transfer."
      },
      "getTicketingParameters()": {
        "returns": {
          "_0": "faceValue The face value of a ticket in SOLO.",
          "_1": "baseLiveWinProb The base live win probability of a ticket.",
          "_2": "expiredWinProb The expired win probability of a ticket.",
          "_3": "ticketDuration The duration of a ticket in number of blocks.",
          "_4": "decayRate The decay rate of a ticket."
        }
      },
      "owner()": {
        "details": "Returns the address of the current owner."
      },
      "pendingOwner()": {
        "details": "Returns the address of the pending owner."
      },
      "renounceOwnership()": {
        "details": "Leaves the contract without owner. It will not be possible to call `onlyOwner` functions. Can only be called by the current owner. NOTE: Renouncing ownership will leave the contract without an owner, thereby disabling any functionality that is only available to the owner."
      },
      "setBaseLiveWinProb(uint128)": {
        "params": {
          "_baseLiveWinProb": "The probability represented as a value between 0 to 2**128 - 1."
        }
      },
      "setDecayRate(uint32)": {
        "params": {
          "_decayRate": "The decay rate as a percentage, where the denominator is 10000."
        }
      },
      "setExpiredWinProb(uint128)": {
        "params": {
          "_expiredWinProb": "The probability represented as a value between 0 to 2**128 - 1."
        }
      },
      "setFaceValue(uint256)": {
        "params": {
          "_faceValue": "The face value to set in SOLO."
        }
      },
      "setTicketDuration(uint256)": {
        "params": {
          "_ticketDuration": "The duration of a ticket in number of blocks."
        }
      },
      "transferOwnership(address)": {
        "details": "Starts the ownership transfer of the contract to a new account. Replaces the pending transfer if there is one. Can only be called by the current owner."
      }
    },
    "version": 1
  },
  "userdoc": {
    "kind": "user",
    "methods": {
      "baseLiveWinProb()": {
        "notice": "The probability of a ticket winning during the start of its lifetime. This is a uint128 value representing the numerator in the probability ratio where 2^128 - 1 is the denominator."
      },
      "decayRate()": {
        "notice": "A percentage value representing the proportion of the base win probability that will be decayed once a ticket has expired. Example: 80% decayRate indicates that a ticket will decay down to 20% of its base win probability upon reaching the block before its expiry. The value is expressed as a fraction of 100000."
      },
      "expiredWinProb()": {
        "notice": "The probability of a ticket winning after it has expired. This is a uint128 value representing the numerator in the probability ratio where 2^128 - 1 is the denominator. Note: Redeeming expired tickets is currently not supported."
      },
      "faceValue()": {
        "notice": "The value of a winning ticket in SOLO. "
      },
      "getTicketingParameters()": {
        "notice": "Retrieve the current ticketing parameters."
      },
      "setBaseLiveWinProb(uint128)": {
        "notice": "Set the base live win probability of a ticket. Only callable by the contract owner."
      },
      "setDecayRate(uint32)": {
        "notice": "Set the decay rate of a ticket. Only callable by the the contract owner."
      },
      "setExpiredWinProb(uint128)": {
        "notice": "Set the expired win probability of a ticket. Only callable by the contract owner."
      },
      "setFaceValue(uint256)": {
        "notice": "Set the face value for tickets in SOLO. Only callable by the contract owner."
      },
      "setTicketDuration(uint256)": {
        "notice": "Set the ticket duration of a ticket. Only callable by the contract owner."
      },
      "supportsInterface(bytes4)": {
        "notice": "Returns true if the contract implements the interface defined by `interfaceId` from ERC165."
      },
      "ticketDuration()": {
        "notice": "The length in blocks before a ticket is considered expired. The default initialization value is 80,000. This equates to roughly two weeks (15s per block)."
      }
    },
    "version": 1
  },
  "storageLayout": {
    "storage": [
      {
        "astId": 244,
        "contract": "contracts/payments/ticketing/TicketingParameters.sol:TicketingParameters",
        "label": "_initialized",
        "offset": 0,
        "slot": "0",
        "type": "t_uint8"
      },
      {
        "astId": 247,
        "contract": "contracts/payments/ticketing/TicketingParameters.sol:TicketingParameters",
        "label": "_initializing",
        "offset": 1,
        "slot": "0",
        "type": "t_bool"
      },
      {
        "astId": 777,
        "contract": "contracts/payments/ticketing/TicketingParameters.sol:TicketingParameters",
        "label": "__gap",
        "offset": 0,
        "slot": "1",
        "type": "t_array(t_uint256)50_storage"
      },
      {
        "astId": 116,
        "contract": "contracts/payments/ticketing/TicketingParameters.sol:TicketingParameters",
        "label": "_owner",
        "offset": 0,
        "slot": "51",
        "type": "t_address"
      },
      {
        "astId": 236,
        "contract": "contracts/payments/ticketing/TicketingParameters.sol:TicketingParameters",
        "label": "__gap",
        "offset": 0,
        "slot": "52",
        "type": "t_array(t_uint256)49_storage"
      },
      {
        "astId": 25,
        "contract": "contracts/payments/ticketing/TicketingParameters.sol:TicketingParameters",
        "label": "_pendingOwner",
        "offset": 0,
        "slot": "101",
        "type": "t_address"
      },
      {
        "astId": 104,
        "contract": "contracts/payments/ticketing/TicketingParameters.sol:TicketingParameters",
        "label": "__gap",
        "offset": 0,
        "slot": "102",
        "type": "t_array(t_uint256)49_storage"
      },
      {
        "astId": 15359,
        "contract": "contracts/payments/ticketing/TicketingParameters.sol:TicketingParameters",
        "label": "faceValue",
        "offset": 0,
        "slot": "151",
        "type": "t_uint256"
      },
      {
        "astId": 15362,
        "contract": "contracts/payments/ticketing/TicketingParameters.sol:TicketingParameters",
        "label": "baseLiveWinProb",
        "offset": 0,
        "slot": "152",
        "type": "t_uint128"
      },
      {
        "astId": 15365,
        "contract": "contracts/payments/ticketing/TicketingParameters.sol:TicketingParameters",
        "label": "expiredWinProb",
        "offset": 16,
        "slot": "152",
        "type": "t_uint128"
      },
      {
        "astId": 15368,
        "contract": "contracts/payments/ticketing/TicketingParameters.sol:TicketingParameters",
        "label": "ticketDuration",
        "offset": 0,
        "slot": "153",
        "type": "t_uint256"
      },
      {
        "astId": 15371,
        "contract": "contracts/payments/ticketing/TicketingParameters.sol:TicketingParameters",
        "label": "decayRate",
        "offset": 0,
        "slot": "154",
        "type": "t_uint32"
      }
    ],
    "types": {
      "t_address": {
        "encoding": "inplace",
        "label": "address",
        "numberOfBytes": "20"
      },
      "t_array(t_uint256)49_storage": {
        "base": "t_uint256",
        "encoding": "inplace",
        "label": "uint256[49]",
        "numberOfBytes": "1568"
      },
      "t_array(t_uint256)50_storage": {
        "base": "t_uint256",
        "encoding": "inplace",
        "label": "uint256[50]",
        "numberOfBytes": "1600"
      },
      "t_bool": {
        "encoding": "inplace",
        "label": "bool",
        "numberOfBytes": "1"
      },
      "t_uint128": {
        "encoding": "inplace",
        "label": "uint128",
        "numberOfBytes": "16"
      },
      "t_uint256": {
        "encoding": "inplace",
        "label": "uint256",
        "numberOfBytes": "32"
      },
      "t_uint32": {
        "encoding": "inplace",
        "label": "uint32",
        "numberOfBytes": "4"
      },
      "t_uint8": {
        "encoding": "inplace",
        "label": "uint8",
        "numberOfBytes": "1"
      }
    }
  }
}