{
  "address": "0x95129ceFE34Aabc117541434e5d74aB93809937A",
  "abi": [
    {
      "inputs": [
        {
          "internalType": "uint256",
          "name": "nodeLength",
          "type": "uint256"
        }
      ],
      "name": "EndCannotExceedNumberOfNodes",
      "type": "error"
    },
    {
      "inputs": [],
      "name": "EndMustBeGreaterThanStart",
      "type": "error"
    },
    {
      "inputs": [],
      "name": "NonceCannotBeReused",
      "type": "error"
    },
    {
      "inputs": [],
      "name": "PercentageCannotExceed100000",
      "type": "error"
    },
    {
      "inputs": [],
      "name": "ProofNotSignedBySeekerAccount",
      "type": "error"
    },
    {
      "inputs": [],
      "name": "PublicEndpointCannotBeEmpty",
      "type": "error"
    },
    {
      "inputs": [],
      "name": "RootSeekersCannotBeZeroAddress",
      "type": "error"
    },
    {
      "inputs": [],
      "name": "SeekerAccountCannotBeZeroAddress",
      "type": "error"
    },
    {
      "inputs": [],
      "name": "SeekerAccountMustBeMsgSender",
      "type": "error"
    },
    {
      "inputs": [],
      "name": "SeekerAccountMustOwnSeekerId",
      "type": "error"
    },
    {
      "anonymous": false,
      "inputs": [
        {
          "indexed": false,
          "internalType": "uint32",
          "name": "defaultPayoutPercentage",
          "type": "uint32"
        }
      ],
      "name": "DefaultPayoutPercentageUpdated",
      "type": "event"
    },
    {
      "anonymous": false,
      "inputs": [
        {
          "indexed": false,
          "internalType": "uint8",
          "name": "version",
          "type": "uint8"
        }
      ],
      "name": "Initialized",
      "type": "event"
    },
    {
      "anonymous": false,
      "inputs": [
        {
          "indexed": true,
          "internalType": "address",
          "name": "previousOwner",
          "type": "address"
        },
        {
          "indexed": true,
          "internalType": "address",
          "name": "newOwner",
          "type": "address"
        }
      ],
      "name": "OwnershipTransferStarted",
      "type": "event"
    },
    {
      "anonymous": false,
      "inputs": [
        {
          "indexed": true,
          "internalType": "address",
          "name": "previousOwner",
          "type": "address"
        },
        {
          "indexed": true,
          "internalType": "address",
          "name": "newOwner",
          "type": "address"
        }
      ],
      "name": "OwnershipTransferred",
      "type": "event"
    },
    {
      "inputs": [],
      "name": "_rootSeekers",
      "outputs": [
        {
          "internalType": "contract IERC721",
          "name": "",
          "type": "address"
        }
      ],
      "stateMutability": "view",
      "type": "function"
    },
    {
      "inputs": [],
      "name": "acceptOwnership",
      "outputs": [],
      "stateMutability": "nonpayable",
      "type": "function"
    },
    {
      "inputs": [],
      "name": "defaultPayoutPercentage",
      "outputs": [
        {
          "internalType": "uint32",
          "name": "",
          "type": "uint32"
        }
      ],
      "stateMutability": "view",
      "type": "function"
    },
    {
      "inputs": [],
      "name": "getNodes",
      "outputs": [
        {
          "internalType": "address[]",
          "name": "",
          "type": "address[]"
        }
      ],
      "stateMutability": "view",
      "type": "function"
    },
    {
      "inputs": [
        {
          "internalType": "uint256",
          "name": "seekerId",
          "type": "uint256"
        },
        {
          "internalType": "address",
          "name": "node",
          "type": "address"
        },
        {
          "internalType": "bytes32",
          "name": "nonce",
          "type": "bytes32"
        }
      ],
      "name": "getProofMessage",
      "outputs": [
        {
          "internalType": "bytes",
          "name": "",
          "type": "bytes"
        }
      ],
      "stateMutability": "pure",
      "type": "function"
    },
    {
      "inputs": [
        {
          "internalType": "uint256",
          "name": "start",
          "type": "uint256"
        },
        {
          "internalType": "uint256",
          "name": "end",
          "type": "uint256"
        }
      ],
      "name": "getRegistries",
      "outputs": [
        {
          "internalType": "address[]",
          "name": "",
          "type": "address[]"
        },
        {
          "components": [
            {
              "internalType": "uint32",
              "name": "payoutPercentage",
              "type": "uint32"
            },
            {
              "internalType": "string",
              "name": "publicEndpoint",
              "type": "string"
            },
            {
              "internalType": "address",
              "name": "seekerAccount",
              "type": "address"
            },
            {
              "internalType": "uint256",
              "name": "seekerId",
              "type": "uint256"
            }
          ],
          "internalType": "struct IRegistries.Registry[]",
          "name": "",
          "type": "tuple[]"
        }
      ],
      "stateMutability": "view",
      "type": "function"
    },
    {
      "inputs": [
        {
          "internalType": "address",
          "name": "account",
          "type": "address"
        }
      ],
      "name": "getRegistry",
      "outputs": [
        {
          "components": [
            {
              "internalType": "uint32",
              "name": "payoutPercentage",
              "type": "uint32"
            },
            {
              "internalType": "string",
              "name": "publicEndpoint",
              "type": "string"
            },
            {
              "internalType": "address",
              "name": "seekerAccount",
              "type": "address"
            },
            {
              "internalType": "uint256",
              "name": "seekerId",
              "type": "uint256"
            }
          ],
          "internalType": "struct IRegistries.Registry",
          "name": "",
          "type": "tuple"
        }
      ],
      "stateMutability": "view",
      "type": "function"
    },
    {
      "inputs": [],
      "name": "getTotalNodes",
      "outputs": [
        {
          "internalType": "uint256",
          "name": "",
          "type": "uint256"
        }
      ],
      "stateMutability": "view",
      "type": "function"
    },
    {
      "inputs": [
        {
          "internalType": "contract IERC721",
          "name": "rootSeekers",
          "type": "address"
        },
        {
          "internalType": "uint32",
          "name": "_defaultPayoutPercentage",
          "type": "uint32"
        }
      ],
      "name": "initialize",
      "outputs": [],
      "stateMutability": "nonpayable",
      "type": "function"
    },
    {
      "inputs": [
        {
          "internalType": "uint256",
          "name": "",
          "type": "uint256"
        }
      ],
      "name": "nodes",
      "outputs": [
        {
          "internalType": "address",
          "name": "",
          "type": "address"
        }
      ],
      "stateMutability": "view",
      "type": "function"
    },
    {
      "inputs": [],
      "name": "owner",
      "outputs": [
        {
          "internalType": "address",
          "name": "",
          "type": "address"
        }
      ],
      "stateMutability": "view",
      "type": "function"
    },
    {
      "inputs": [],
      "name": "pendingOwner",
      "outputs": [
        {
          "internalType": "address",
          "name": "",
          "type": "address"
        }
      ],
      "stateMutability": "view",
      "type": "function"
    },
    {
      "inputs": [
        {
          "internalType": "string",
          "name": "publicEndpoint",
          "type": "string"
        }
      ],
      "name": "register",
      "outputs": [],
      "stateMutability": "nonpayable",
      "type": "function"
    },
    {
      "inputs": [
        {
          "internalType": "address",
          "name": "",
          "type": "address"
        }
      ],
      "name": "registries",
      "outputs": [
        {
          "internalType": "uint32",
          "name": "payoutPercentage",
          "type": "uint32"
        },
        {
          "internalType": "string",
          "name": "publicEndpoint",
          "type": "string"
        },
        {
          "internalType": "address",
          "name": "seekerAccount",
          "type": "address"
        },
        {
          "internalType": "uint256",
          "name": "seekerId",
          "type": "uint256"
        }
      ],
      "stateMutability": "view",
      "type": "function"
    },
    {
      "inputs": [],
      "name": "renounceOwnership",
      "outputs": [],
      "stateMutability": "nonpayable",
      "type": "function"
    },
    {
      "inputs": [
        {
          "internalType": "address",
          "name": "node",
          "type": "address"
        }
      ],
      "name": "revokeSeekerAccount",
      "outputs": [],
      "stateMutability": "nonpayable",
      "type": "function"
    },
    {
      "inputs": [
        {
          "internalType": "uint256",
          "name": "",
          "type": "uint256"
        }
      ],
      "name": "seekerRegistration",
      "outputs": [
        {
          "internalType": "address",
          "name": "",
          "type": "address"
        }
      ],
      "stateMutability": "view",
      "type": "function"
    },
    {
      "inputs": [
        {
          "internalType": "uint32",
          "name": "_defaultPayoutPercentage",
          "type": "uint32"
        }
      ],
      "name": "setDefaultPayoutPercentage",
      "outputs": [],
      "stateMutability": "nonpayable",
      "type": "function"
    },
    {
      "inputs": [
        {
          "internalType": "address",
          "name": "seekerAccount",
          "type": "address"
        },
        {
          "internalType": "uint256",
          "name": "seekerId",
          "type": "uint256"
        },
        {
          "internalType": "bytes32",
          "name": "nonce",
          "type": "bytes32"
        },
        {
          "internalType": "bytes",
          "name": "signature",
          "type": "bytes"
        }
      ],
      "name": "setSeekerAccount",
      "outputs": [],
      "stateMutability": "nonpayable",
      "type": "function"
    },
    {
      "inputs": [
        {
          "internalType": "bytes4",
          "name": "interfaceId",
          "type": "bytes4"
        }
      ],
      "name": "supportsInterface",
      "outputs": [
        {
          "internalType": "bool",
          "name": "",
          "type": "bool"
        }
      ],
      "stateMutability": "view",
      "type": "function"
    },
    {
      "inputs": [
        {
          "internalType": "address",
          "name": "newOwner",
          "type": "address"
        }
      ],
      "name": "transferOwnership",
      "outputs": [],
      "stateMutability": "nonpayable",
      "type": "function"
    }
  ],
  "transactionHash": "0x84c502d5a5ef4a882eddad887a4351b88d99ad7812c93a3775dc2ad2ceb36cc7",
  "args": [],
  "numDeployments": 1,
  "solcInputHash": "1bb5ffa7cd6b0eda91a26fb884ef1155",
  "bytecode": "0x608060405234801561001057600080fd5b50611f3c806100206000396000f3fe608060405234801561001057600080fd5b50600436106101375760003560e01c8063c5e4c9f9116100b8578063e354f2e71161007c578063e354f2e7146102a1578063ec90622b146102ca578063ef5563ca146102eb578063f2c298be1461030b578063f2fde38b1461031e578063f971d77c1461033157600080fd5b8063c5e4c9f914610220578063caed80df14610233578063d2a78d7f14610256578063e29581aa1461027b578063e30c39781461029057600080fd5b806363584ecd116100ff57806363584ecd146101db578063715018a6146101ec57806379ba5097146101f45780638da5cb5b146101fc5780639998da751461020d57600080fd5b806301ffc9a71461013c5780631c53c2801461017557806336357cd8146101a05780635ba2f1de146101b35780635d4c611f146101c8575b600080fd5b61016061014a3660046115ff565b6001600160e01b031916637ccc541d60e11b1490565b60405190151581526020015b60405180910390f35b610188610183366004611629565b610351565b6040516001600160a01b03909116815260200161016c565b609754610188906001600160a01b031681565b6101c66101c1366004611699565b61037b565b005b6101c66101d636600461171c565b610597565b609a5460405190815260200161016c565b6101c6610617565b6101c661062b565b6033546001600160a01b0316610188565b6101c661021b366004611737565b6106aa565b6101c661022e366004611754565b610720565b610246610241366004611737565b6108b4565b60405161016c94939291906117d9565b609c546102669063ffffffff1681565b60405163ffffffff909116815260200161016c565b610283610976565b60405161016c9190611858565b6065546001600160a01b0316610188565b6101886102af366004611629565b6099602052600090815260409020546001600160a01b031681565b6102dd6102d836600461186b565b6109d8565b60405161016c9291906118da565b6102fe6102f936600461194c565b610c87565b60405161016c9190611984565b6101c6610319366004611997565b610cdb565b6101c661032c366004611737565b610d83565b61034461033f366004611737565b610df4565b60405161016c91906119d9565b609a818154811061036157600080fd5b6000918252602090912001546001600160a01b0316905081565b6001600160a01b0385166103a257604051630f32ebab60e21b815260040160405180910390fd5b6000838152609b60205260409020546001600160a01b0316156103d857604051635989b1a960e11b815260040160405180910390fd5b60006103e5853386610c87565b905060006103f282610ee5565b9050866001600160a01b031661043e8286868080601f016020809104026020016040519081016040528093929190818152602001838380828437600092019190915250610f2092505050565b6001600160a01b03161461046557604051632e39179560e21b815260040160405180910390fd5b6097546040516331a9108f60e11b8152600481018890526000916001600160a01b031690636352211e90602401602060405180830381865afa1580156104af573d6000803e3d6000fd5b505050506040513d601f19601f820116820180604052508101906104d391906119ec565b9050806001600160a01b0316886001600160a01b03161461050757604051630c564dbf60e31b815260040160405180910390fd5b505050600084815260996020908152604080832080546001600160a01b039081168552609884528285206003908101869055825482168652838620600290810180546001600160a01b031990811690915533808952868920928301805483169e9095169d8e1790945591019990995581548916179055948252609b90529290922080549093169093179091555050565b61059f610f46565b620186a08163ffffffff1611156105c95760405163653eef6b60e11b815260040160405180910390fd5b609c805463ffffffff191663ffffffff83169081179091556040519081527fb7310d2ba8ebc993dd82a8a1e07558e8e3e68ffbabf1319312461d04d887fda69060200160405180910390a150565b61061f610f46565b6106296000610fa0565b565b60655433906001600160a01b0316811461069e5760405162461bcd60e51b815260206004820152602960248201527f4f776e61626c6532537465703a2063616c6c6572206973206e6f7420746865206044820152683732bb9037bbb732b960b91b60648201526084015b60405180910390fd5b6106a781610fa0565b50565b6001600160a01b038082166000908152609860205260409020600281015490911633146106ea5760405163603e767360e11b815260040160405180910390fd5b6002810180546001600160a01b031990811690915560039091018054600090815260996020526040812080549093169092555550565b600054610100900460ff16158080156107405750600054600160ff909116105b8061075a5750303b15801561075a575060005460ff166001145b6107bd5760405162461bcd60e51b815260206004820152602e60248201527f496e697469616c697a61626c653a20636f6e747261637420697320616c72656160448201526d191e481a5b9a5d1a585b1a5e995960921b6064820152608401610695565b6000805460ff1916600117905580156107e0576000805461ff0019166101001790555b6001600160a01b038316610807576040516322d2a86760e21b815260040160405180910390fd5b620186a08263ffffffff1611156108315760405163653eef6b60e11b815260040160405180910390fd5b610839610fb9565b609780546001600160a01b0319166001600160a01b038516179055609c805463ffffffff191663ffffffff841617905580156108af576000805461ff0019169055604051600181527f7f26b83ff96e1f2b6a682f133852f6798a09c465da95921460cefb38474024989060200160405180910390a15b505050565b6098602052600090815260409020805460018201805463ffffffff90921692916108dd90611a09565b80601f016020809104026020016040519081016040528092919081815260200182805461090990611a09565b80156109565780601f1061092b57610100808354040283529160200191610956565b820191906000526020600020905b81548152906001019060200180831161093957829003601f168201915b50505050600283015460039093015491926001600160a01b031691905084565b6060609a8054806020026020016040519081016040528092919081815260200182805480156109ce57602002820191906000526020600020905b81546001600160a01b031681526001909101906020018083116109b0575b5050505050905090565b609a546060908190848411610a005760405163ee6f77d960e01b815260040160405180910390fd5b80841115610a245760405163a81ea1e360e01b815260048101829052602401610695565b6000610a308686611a59565b67ffffffffffffffff811115610a4857610a48611a6c565b604051908082528060200260200182016040528015610a71578160200160208202803683370190505b5090506000815167ffffffffffffffff811115610a9057610a90611a6c565b604051908082528060200260200182016040528015610ac957816020015b610ab66115c8565b815260200190600190039081610aae5790505b509050865b86811015610c7857609a8181548110610ae957610ae9611a82565b6000918252602090912001546001600160a01b031683610b098a84611a59565b81518110610b1957610b19611a82565b60200260200101906001600160a01b031690816001600160a01b03168152505060986000609a8381548110610b5057610b50611a82565b60009182526020808320909101546001600160a01b031683528281019390935260409182019020815160808101909252805463ffffffff1682526001810180549293919291840191610ba190611a09565b80601f0160208091040260200160405190810160405280929190818152602001828054610bcd90611a09565b8015610c1a5780601f10610bef57610100808354040283529160200191610c1a565b820191906000526020600020905b815481529060010190602001808311610bfd57829003601f168201915b505050918352505060028201546001600160a01b0316602082015260039091015460409091015282610c4c8a84611a59565b81518110610c5c57610c5c611a82565b602002602001018190525080610c7190611a98565b9050610ace565b509093509150505b9250929050565b6060610c9d836001600160a01b03166014610fe8565b610ca68561118b565b610cb1846020610fe8565b604051602001610cc393929190611acd565b60405160208183030381529060405290509392505050565b6000819003610cfd576040516309261b3d60e21b815260040160405180910390fd5b3360009081526098602052604090206001018054610d1a90611a09565b9050600003610d6657609a80546001810182556000919091527f44da158ba27f9252712a74ff6a55c5d531f69609f1f6e7f17c4443a8e2089be40180546001600160a01b031916331790555b3360009081526098602052604090206001016108af828483611d48565b610d8b610f46565b606580546001600160a01b0383166001600160a01b03199091168117909155610dbc6033546001600160a01b031690565b6001600160a01b03167f38d16b8cac22d99fc7c124b9cd0de2d3fa1faef420bfe791d8c362d765e2270060405160405180910390a350565b610dfc6115c8565b6001600160a01b038216600090815260986020908152604091829020825160808101909352805463ffffffff1683526001810180549192840191610e3f90611a09565b80601f0160208091040260200160405190810160405280929190818152602001828054610e6b90611a09565b8015610eb85780601f10610e8d57610100808354040283529160200191610eb8565b820191906000526020600020905b815481529060010190602001808311610e9b57829003601f168201915b505050918352505060028201546001600160a01b0316602082015260039091015460409091015292915050565b6000610ef1825161118b565b82604051602001610f03929190611e09565b604051602081830303815290604052805190602001209050919050565b6000806000610f2f858561121e565b91509150610f3c81611260565b5090505b92915050565b6033546001600160a01b031633146106295760405162461bcd60e51b815260206004820181905260248201527f4f776e61626c653a2063616c6c6572206973206e6f7420746865206f776e65726044820152606401610695565b606580546001600160a01b03191690556106a7816113aa565b600054610100900460ff16610fe05760405162461bcd60e51b815260040161069590611e64565b6106296113fc565b60606000610ff7836002611eaf565b611002906002611ec6565b67ffffffffffffffff81111561101a5761101a611a6c565b6040519080825280601f01601f191660200182016040528015611044576020820181803683370190505b509050600360fc1b8160008151811061105f5761105f611a82565b60200101906001600160f81b031916908160001a905350600f60fb1b8160018151811061108e5761108e611a82565b60200101906001600160f81b031916908160001a90535060006110b2846002611eaf565b6110bd906001611ec6565b90505b6001811115611135576f181899199a1a9b1b9c1cb0b131b232b360811b85600f16601081106110f1576110f1611a82565b1a60f81b82828151811061110757611107611a82565b60200101906001600160f81b031916908160001a90535060049490941c9361112e81611ed9565b90506110c0565b5083156111845760405162461bcd60e51b815260206004820181905260248201527f537472696e67733a20686578206c656e67746820696e73756666696369656e746044820152606401610695565b9392505050565b606060006111988361142c565b600101905060008167ffffffffffffffff8111156111b8576111b8611a6c565b6040519080825280601f01601f1916602001820160405280156111e2576020820181803683370190505b5090508181016020015b600019016f181899199a1a9b1b9c1cb0b131b232b360811b600a86061a8153600a85049450846111ec57509392505050565b60008082516041036112545760208301516040840151606085015160001a61124887828585611504565b94509450505050610c80565b50600090506002610c80565b600081600481111561127457611274611ef0565b0361127c5750565b600181600481111561129057611290611ef0565b036112dd5760405162461bcd60e51b815260206004820152601860248201527f45434453413a20696e76616c6964207369676e617475726500000000000000006044820152606401610695565b60028160048111156112f1576112f1611ef0565b0361133e5760405162461bcd60e51b815260206004820152601f60248201527f45434453413a20696e76616c6964207369676e6174757265206c656e677468006044820152606401610695565b600381600481111561135257611352611ef0565b036106a75760405162461bcd60e51b815260206004820152602260248201527f45434453413a20696e76616c6964207369676e6174757265202773272076616c604482015261756560f01b6064820152608401610695565b603380546001600160a01b038381166001600160a01b0319831681179093556040519116919082907f8be0079c531659141344cd1fd0a4f28419497f9722a3daafe3b4186f6b6457e090600090a35050565b600054610100900460ff166114235760405162461bcd60e51b815260040161069590611e64565b61062933610fa0565b60008072184f03e93ff9f4daa797ed6e38ed64bf6a1f0160401b831061146b5772184f03e93ff9f4daa797ed6e38ed64bf6a1f0160401b830492506040015b6d04ee2d6d415b85acef81000000008310611497576d04ee2d6d415b85acef8100000000830492506020015b662386f26fc1000083106114b557662386f26fc10000830492506010015b6305f5e10083106114cd576305f5e100830492506008015b61271083106114e157612710830492506004015b606483106114f3576064830492506002015b600a8310610f405760010192915050565b6000807f7fffffffffffffffffffffffffffffff5d576e7357a4501ddfe92f46681b20a083111561153b57506000905060036115bf565b6040805160008082526020820180845289905260ff881692820192909252606081018690526080810185905260019060a0016020604051602081039080840390855afa15801561158f573d6000803e3d6000fd5b5050604051601f1901519150506001600160a01b0381166115b8576000600192509250506115bf565b9150600090505b94509492505050565b6040518060800160405280600063ffffffff1681526020016060815260200160006001600160a01b03168152602001600081525090565b60006020828403121561161157600080fd5b81356001600160e01b03198116811461118457600080fd5b60006020828403121561163b57600080fd5b5035919050565b6001600160a01b03811681146106a757600080fd5b60008083601f84011261166957600080fd5b50813567ffffffffffffffff81111561168157600080fd5b602083019150836020828501011115610c8057600080fd5b6000806000806000608086880312156116b157600080fd5b85356116bc81611642565b94506020860135935060408601359250606086013567ffffffffffffffff8111156116e657600080fd5b6116f288828901611657565b969995985093965092949392505050565b803563ffffffff8116811461171757600080fd5b919050565b60006020828403121561172e57600080fd5b61118482611703565b60006020828403121561174957600080fd5b813561118481611642565b6000806040838503121561176757600080fd5b823561177281611642565b915061178060208401611703565b90509250929050565b60005b838110156117a457818101518382015260200161178c565b50506000910152565b600081518084526117c5816020860160208601611789565b601f01601f19169290920160200192915050565b63ffffffff851681526080602082015260006117f860808301866117ad565b6001600160a01b03949094166040830152506060015292915050565b600081518084526020808501945080840160005b8381101561184d5781516001600160a01b031687529582019590820190600101611828565b509495945050505050565b6020815260006111846020830184611814565b6000806040838503121561187e57600080fd5b50508035926020909101359150565b63ffffffff815116825260006020820151608060208501526118b260808501826117ad565b6040848101516001600160a01b03169086015260609384015193909401929092525090919050565b6040815260006118ed6040830185611814565b6020838203818501528185518084528284019150828160051b85010183880160005b8381101561193d57601f1987840301855261192b83835161188d565b9486019492509085019060010161190f565b50909998505050505050505050565b60008060006060848603121561196157600080fd5b83359250602084013561197381611642565b929592945050506040919091013590565b60208152600061118460208301846117ad565b600080602083850312156119aa57600080fd5b823567ffffffffffffffff8111156119c157600080fd5b6119cd85828601611657565b90969095509350505050565b602081526000611184602083018461188d565b6000602082840312156119fe57600080fd5b815161118481611642565b600181811c90821680611a1d57607f821691505b602082108103611a3d57634e487b7160e01b600052602260045260246000fd5b50919050565b634e487b7160e01b600052601160045260246000fd5b81810381811115610f4057610f40611a43565b634e487b7160e01b600052604160045260246000fd5b634e487b7160e01b600052603260045260246000fd5b600060018201611aaa57611aaa611a43565b5060010190565b60008151611ac3818560208601611789565b9290920192915050565b7ff09fa496204869206672656e642120f09fa4960a0af09f939c205369676e696e81527f672074686973206d6573736167652070726f766573207468617420796f75277260208201527f6520746865206f776e6572206f662074686973205365656b6572204e4654206160408201527f6e6420616c6c6f777320796f7572205365656b657220746f206265207573656460608201527f20746f206f70657261746520796f7572205365656b65722773204e6f64652e2060808201527f4974277320612073696d706c652062757420696d706f7274616e74207374657060a08201527f20746f20656e7375726520736d6f6f7468206f7065726174696f6e2e0a0a546860c08201527f697320726571756573742077696c6c206e6f742074726967676572206120626c60e08201527f6f636b636861696e207472616e73616374696f6e206f7220636f737420616e796101008201527f2067617320666565732e0a0af09f94a520596f7572206e6f64652773206164646101208201526503932b9b99d160d51b6101408201526000611cf1611ceb611c9c611c96611c7461014687018a611ab1565b75505784fc34a102cb7bab91039b2b2b5b2b91034b21d1604d1b815260170190565b87611ab1565b7f0a0af09f93a6204120756e697175652072616e646f6d2076616c75652077686981527f636820736563757265732074686973206d6573736167653a2000000000000000602082015260390190565b84611ab1565b95945050505050565b601f8211156108af57600081815260208120601f850160051c81016020861015611d215750805b601f850160051c820191505b81811015611d4057828155600101611d2d565b505050505050565b67ffffffffffffffff831115611d6057611d60611a6c565b611d7483611d6e8354611a09565b83611cfa565b6000601f841160018114611da85760008515611d905750838201355b600019600387901b1c1916600186901b178355611e02565b600083815260209020601f19861690835b82811015611dd95786850135825560209485019460019092019101611db9565b5086821015611df65760001960f88860031b161c19848701351681555b505060018560011b0183555b5050505050565b7f19457468657265756d205369676e6564204d6573736167653a0a000000000000815260008351611e4181601a850160208801611789565b835190830190611e5881601a840160208801611789565b01601a01949350505050565b6020808252602b908201527f496e697469616c697a61626c653a20636f6e7472616374206973206e6f74206960408201526a6e697469616c697a696e6760a81b606082015260800190565b8082028115828204841417610f4057610f40611a43565b80820180821115610f4057610f40611a43565b600081611ee857611ee8611a43565b506000190190565b634e487b7160e01b600052602160045260246000fdfea26469706673582212202a100b4f236dceb4a03621716751dff853ae3e44447b0e692022079df98f5ef764736f6c63430008120033",
  "devdoc": {
    "events": {
      "Initialized(uint8)": {
        "details": "Triggered when the contract has been initialized or reinitialized."
      }
    },
    "kind": "dev",
    "methods": {
      "acceptOwnership()": {
        "details": "The new owner accepts the ownership transfer."
      },
      "getNodes()": {
        "returns": {
          "_0": "An array of node addresses."
        }
      },
      "getProofMessage(uint256,address,bytes32)": {
        "params": {
          "node": "The address of the node which that will be operated by the specified seeker.",
          "nonce": "The nonce used for this message.",
          "seekerId": "The tokenId of the seeker used for operation."
        }
      },
      "getRegistries(uint256,uint256)": {
        "params": {
          "end": "The end index which is exclusive.",
          "start": "The start index which is inclusive."
        },
        "returns": {
          "_0": "An array of Registries."
        }
      },
      "getRegistry(address)": {
        "params": {
          "account": "The address of the Node."
        },
        "returns": {
          "_0": "The Node's Registry."
        }
      },
      "getTotalNodes()": {
        "returns": {
          "_0": "The number of registered nodes."
        }
      },
      "owner()": {
        "details": "Returns the address of the current owner."
      },
      "pendingOwner()": {
        "details": "Returns the address of the pending owner."
      },
      "register(string)": {
        "params": {
          "publicEndpoint": "The public endpoint of your Node. Essential for clients to be able to retrieve additional information, such as an address to establish a p2p connection."
        }
      },
      "renounceOwnership()": {
        "details": "Leaves the contract without owner. It will not be possible to call `onlyOwner` functions. Can only be called by the current owner. NOTE: Renouncing ownership will leave the contract without an owner, thereby disabling any functionality that is only available to the owner."
      },
      "setDefaultPayoutPercentage(uint32)": {
        "params": {
          "_defaultPayoutPercentage": "The payout percentage as a value where the denominator is 100000."
        }
      },
      "transferOwnership(address)": {
        "details": "Starts the ownership transfer of the contract to a new account. Replaces the pending transfer if there is one. Can only be called by the current owner."
      }
    },
    "version": 1
  },
  "userdoc": {
    "kind": "user",
    "methods": {
      "_rootSeekers()": {
        "notice": "ERC721 contract for bridged Seekers. Used for verifying ownership of a seeker."
      },
      "defaultPayoutPercentage()": {
        "notice": "Payout percentage refers to the portion of a tickets reward that will be allocated to the Node's stakers. This is global, and is currently set for all Nodes."
      },
      "getNodes()": {
        "notice": "Retrieve all registered nodes."
      },
      "getProofMessage(uint256,address,bytes32)": {
        "notice": "Helper function for deriving the proof message used to validate seeker ownership."
      },
      "getRegistries(uint256,uint256)": {
        "notice": "Retrieves a list of registries. Takes in a a start and end indices to allow pagination."
      },
      "getRegistry(address)": {
        "notice": "Retrieve the registry associated with a Node."
      },
      "getTotalNodes()": {
        "notice": "Returns the total number of registered nodes."
      },
      "nodes(uint256)": {
        "notice": "Tracks the address of every registered node."
      },
      "register(string)": {
        "notice": "Call this as a Node to set or update your Registry entry."
      },
      "registries(address)": {
        "notice": "Tracks each Node's registry."
      },
      "seekerRegistration(uint256)": {
        "notice": "Tracks the node address that each seeker id is registered with"
      },
      "setDefaultPayoutPercentage(uint32)": {
        "notice": "Set the global default payout percentage value. Only callable by the owner."
      },
      "supportsInterface(bytes4)": {
        "notice": "Returns true if the contract implements the interface defined by `interfaceId` from ERC165."
      }
    },
    "notice": "This contract manages Registries for Nodes. A Registry is a set of parameters configured by the Node itself. A Node is required to have a valid Registry to be able to participate in the network.",
    "version": 1
  },
  "storageLayout": {
    "storage": [
      {
        "astId": 244,
        "contract": "contracts/Registries.sol:Registries",
        "label": "_initialized",
        "offset": 0,
        "slot": "0",
        "type": "t_uint8"
      },
      {
        "astId": 247,
        "contract": "contracts/Registries.sol:Registries",
        "label": "_initializing",
        "offset": 1,
        "slot": "0",
        "type": "t_bool"
      },
      {
        "astId": 777,
        "contract": "contracts/Registries.sol:Registries",
        "label": "__gap",
        "offset": 0,
        "slot": "1",
        "type": "t_array(t_uint256)50_storage"
      },
      {
        "astId": 116,
        "contract": "contracts/Registries.sol:Registries",
        "label": "_owner",
        "offset": 0,
        "slot": "51",
        "type": "t_address"
      },
      {
        "astId": 236,
        "contract": "contracts/Registries.sol:Registries",
        "label": "__gap",
        "offset": 0,
        "slot": "52",
        "type": "t_array(t_uint256)49_storage"
      },
      {
        "astId": 25,
        "contract": "contracts/Registries.sol:Registries",
        "label": "_pendingOwner",
        "offset": 0,
        "slot": "101",
        "type": "t_address"
      },
      {
        "astId": 104,
        "contract": "contracts/Registries.sol:Registries",
        "label": "__gap",
        "offset": 0,
        "slot": "102",
        "type": "t_array(t_uint256)49_storage"
      },
      {
        "astId": 10088,
        "contract": "contracts/Registries.sol:Registries",
        "label": "_rootSeekers",
        "offset": 0,
        "slot": "151",
        "type": "t_contract(IERC721)2923"
      },
      {
        "astId": 10094,
        "contract": "contracts/Registries.sol:Registries",
        "label": "registries",
        "offset": 0,
        "slot": "152",
        "type": "t_mapping(t_address,t_struct(Registry)11537_storage)"
      },
      {
        "astId": 10099,
        "contract": "contracts/Registries.sol:Registries",
        "label": "seekerRegistration",
        "offset": 0,
        "slot": "153",
        "type": "t_mapping(t_uint256,t_address)"
      },
      {
        "astId": 10103,
        "contract": "contracts/Registries.sol:Registries",
        "label": "nodes",
        "offset": 0,
        "slot": "154",
        "type": "t_array(t_address)dyn_storage"
      },
      {
        "astId": 10108,
        "contract": "contracts/Registries.sol:Registries",
        "label": "signatureNonces",
        "offset": 0,
        "slot": "155",
        "type": "t_mapping(t_bytes32,t_address)"
      },
      {
        "astId": 10111,
        "contract": "contracts/Registries.sol:Registries",
        "label": "defaultPayoutPercentage",
        "offset": 0,
        "slot": "156",
        "type": "t_uint32"
      }
    ],
    "types": {
      "t_address": {
        "encoding": "inplace",
        "label": "address",
        "numberOfBytes": "20"
      },
      "t_array(t_address)dyn_storage": {
        "base": "t_address",
        "encoding": "dynamic_array",
        "label": "address[]",
        "numberOfBytes": "32"
      },
      "t_array(t_uint256)49_storage": {
        "base": "t_uint256",
        "encoding": "inplace",
        "label": "uint256[49]",
        "numberOfBytes": "1568"
      },
      "t_array(t_uint256)50_storage": {
        "base": "t_uint256",
        "encoding": "inplace",
        "label": "uint256[50]",
        "numberOfBytes": "1600"
      },
      "t_bool": {
        "encoding": "inplace",
        "label": "bool",
        "numberOfBytes": "1"
      },
      "t_bytes32": {
        "encoding": "inplace",
        "label": "bytes32",
        "numberOfBytes": "32"
      },
      "t_contract(IERC721)2923": {
        "encoding": "inplace",
        "label": "contract IERC721",
        "numberOfBytes": "20"
      },
      "t_mapping(t_address,t_struct(Registry)11537_storage)": {
        "encoding": "mapping",
        "key": "t_address",
        "label": "mapping(address => struct IRegistries.Registry)",
        "numberOfBytes": "32",
        "value": "t_struct(Registry)11537_storage"
      },
      "t_mapping(t_bytes32,t_address)": {
        "encoding": "mapping",
        "key": "t_bytes32",
        "label": "mapping(bytes32 => address)",
        "numberOfBytes": "32",
        "value": "t_address"
      },
      "t_mapping(t_uint256,t_address)": {
        "encoding": "mapping",
        "key": "t_uint256",
        "label": "mapping(uint256 => address)",
        "numberOfBytes": "32",
        "value": "t_address"
      },
      "t_string_storage": {
        "encoding": "bytes",
        "label": "string",
        "numberOfBytes": "32"
      },
      "t_struct(Registry)11537_storage": {
        "encoding": "inplace",
        "label": "struct IRegistries.Registry",
        "members": [
          {
            "astId": 11530,
            "contract": "contracts/Registries.sol:Registries",
            "label": "payoutPercentage",
            "offset": 0,
            "slot": "0",
            "type": "t_uint32"
          },
          {
            "astId": 11532,
            "contract": "contracts/Registries.sol:Registries",
            "label": "publicEndpoint",
            "offset": 0,
            "slot": "1",
            "type": "t_string_storage"
          },
          {
            "astId": 11534,
            "contract": "contracts/Registries.sol:Registries",
            "label": "seekerAccount",
            "offset": 0,
            "slot": "2",
            "type": "t_address"
          },
          {
            "astId": 11536,
            "contract": "contracts/Registries.sol:Registries",
            "label": "seekerId",
            "offset": 0,
            "slot": "3",
            "type": "t_uint256"
          }
        ],
        "numberOfBytes": "128"
      },
      "t_uint256": {
        "encoding": "inplace",
        "label": "uint256",
        "numberOfBytes": "32"
      },
      "t_uint32": {
        "encoding": "inplace",
        "label": "uint32",
        "numberOfBytes": "4"
      },
      "t_uint8": {
        "encoding": "inplace",
        "label": "uint8",
        "numberOfBytes": "1"
      }
    }
  }
}